:020000040000fa
:080000000002040000000000f2
:020000040000fa
:040008006003000091
:020000040000fa
:04000c00a20300004b
:020000040000fa
:04001000e203000007
:020000040000fa
:040014008003000065
:020000040000fa
:04001800c20300001f
:020000040000fa
:04001c004c04000090
:020000040000fa
:0400200002040000d6
:020000040000fa
:040024004c04000088
:020000040000fa
:040028004c04000084
:020000040000fa
:04002c004c04000080
:020000040000fa
:040030004c0400007c
:020000040000fa
:040034004c04000078
:020000040000fa
:040038004c04000074
:020000040000fa
:04003c004c04000070
:020000040000fa
:040040004c0400006c
:020000040000fa
:040044004c04000068
:020000040000fa
:040048004c04000064
:020000040000fa
:04004c004c04000060
:020000040000fa
:040050004c0400005c
:020000040000fa
:040054004c04000058
:020000040000fa
:040058004c04000054
:020000040000fa
:04005c004c04000050
:020000040000fa
:040060004c0400004c
:020000040000fa
:040064004c04000048
:020000040000fa
:040068004c04000044
:020000040000fa
:04006c004c04000040
:020000040000fa
:040070004c0400003c
:020000040000fa
:040074004c04000038
:020000040000fa
:040078004c04000034
:020000040000fa
:04007c004c04000030
:020000040000fa
:040080004c0400002c
:020000040000fa
:040084004c04000028
:020000040000fa
:040088004c04000024
:020000040000fa
:04008c004c04000020
:020000040000fa
:040090004c0400001c
:020000040000fa
:040094004c04000018
:020000040000fa
:040098004c04000014
:020000040000fa
:04009c004c04000010
:020000040000fa
:0400a0004c0400000c
:020000040000fa
:0400a4004c04000008
:020000040000fa
:0400a8004c04000004
:020000040000fa
:0400ac004c04000000
:020000040000fa
:0400b0004c040000fc
:020000040000fa
:0400b4004c040000f8
:020000040000fa
:0400b8004c040000f4
:020000040000fa
:0400bc004c040000f0
:020000040000fa
:0400c0004c040000ec
:020000040000fa
:0400c4004c040000e8
:020000040000fa
:0400c8004c040000e4
:020000040000fa
:0400cc004c040000e0
:020000040000fa
:0400d0004c040000dc
:020000040000fa
:0400d4004c040000d8
:020000040000fa
:0400d8004c040000d4
:020000040000fa
:0400dc004c040000d0
:020000040000fa
:0400e0004c040000cc
:020000040000fa
:0400e4004c040000c8
:020000040000fa
:0400e8004c040000c4
:020000040000fa
:0400ec004c040000c0
:020000040000fa
:0400f0004c040000bc
:020000040000fa
:0400f4004c040000b8
:020000040000fa
:0400f8004c040000b4
:020000040000fa
:0400fc004c040000b0
:020000040000fa
:040100004c040000ab
:020000040000fa
:040104004c040000a7
:020000040000fa
:040108004c040000a3
:020000040000fa
:04010c004c0400009f
:020000040000fa
:040110004c0400009b
:020000040000fa
:040114004c04000097
:020000040000fa
:040118004c04000093
:020000040000fa
:04011c004c0400008f
:020000040000fa
:040120004c0400008b
:020000040000fa
:040124004c04000087
:020000040000fa
:040128004c04000083
:020000040000fa
:04012c004c0400007f
:020000040000fa
:040130004c0400007b
:020000040000fa
:040134004c04000077
:020000040000fa
:040138004c04000073
:020000040000fa
:04013c004c0400006f
:020000040000fa
:040140004c0400006b
:020000040000fa
:040144004c04000067
:020000040000fa
:040148004c04000063
:020000040000fa
:04014c004c0400005f
:020000040000fa
:040150004c0400005b
:020000040000fa
:040154004c04000057
:020000040000fa
:040158004c04000053
:020000040000fa
:04015c004c0400004f
:020000040000fa
:040160004c0400004b
:020000040000fa
:040164004c04000047
:020000040000fa
:040168004c04000043
:020000040000fa
:04016c004c0400003f
:020000040000fa
:040170004c0400003b
:020000040000fa
:040174004c04000037
:020000040000fa
:040178004c04000033
:020000040000fa
:04017c004c0400002f
:020000040000fa
:040180004c0400002b
:020000040000fa
:040184004c04000027
:020000040000fa
:040188004c04000023
:020000040000fa
:04018c004c0400001f
:020000040000fa
:040190004c0400001b
:020000040000fa
:040194004c04000017
:020000040000fa
:040198004c04000013
:020000040000fa
:04019c004c0400000f
:020000040000fa
:0401a0004c0400000b
:020000040000fa
:0401a4004c04000007
:020000040000fa
:0401a8004c04000003
:020000040000fa
:0401ac004c040000ff
:020000040000fa
:0401b0004c040000fb
:020000040000fa
:0401b4004c040000f7
:020000040000fa
:0401b8004c040000f3
:020000040000fa
:0401bc004c040000ef
:020000040000fa
:0401c0004c040000eb
:020000040000fa
:0401c4004c040000e7
:020000040000fa
:0401c8004c040000e3
:020000040000fa
:0401cc004c040000df
:020000040000fa
:0401d0004c040000db
:020000040000fa
:0401d4004c040000d7
:020000040000fa
:0401d8004c040000d3
:020000040000fa
:0401dc004c040000cf
:020000040000fa
:0401e0004c040000cb
:020000040000fa
:0401e4004c040000c7
:020000040000fa
:0401e8004c040000c3
:020000040000fa
:0401ec004c040000bf
:020000040000fa
:0401f0004c040000bb
:020000040000fa
:0401f4004c040000b7
:020000040000fa
:0401f8004c040000b3
:020000040000fa
:0401fc004c040000af
:020000040000fa
:040200004c040000aa
:020000040000fa
:040204004c040000a6
:020000040000fa
:040208004c040000a2
:020000040000fa
:04020c004c0400009e
:020000040000fa
:040210004c0400009a
:020000040000fa
:040214004c04000096
:020000040000fa
:040218004c04000092
:020000040000fa
:04021c004c0400008e
:020000040000fa
:040220004c0400008a
:020000040000fa
:040224004c04000086
:020000040000fa
:040228004c04000082
:020000040000fa
:04022c004c0400007e
:020000040000fa
:040230004c0400007a
:020000040000fa
:040234004c04000076
:020000040000fa
:040238004c04000072
:020000040000fa
:04023c004c0400006e
:020000040000fa
:040240004c0400006a
:020000040000fa
:040244004c04000066
:020000040000fa
:040248004c04000062
:020000040000fa
:04024c004c0400005e
:020000040000fa
:040250004c0400005a
:020000040000fa
:040254004c04000056
:020000040000fa
:040258004c04000052
:020000040000fa
:04025c004c0400004e
:020000040000fa
:040260004c0400004a
:020000040000fa
:040264004c04000046
:020000040000fa
:040268004c04000042
:020000040000fa
:04026c004c0400003e
:020000040000fa
:040270004c0400003a
:020000040000fa
:040274004c04000036
:020000040000fa
:040278004c04000032
:020000040000fa
:04027c004c0400002e
:020000040000fa
:040280004c0400002a
:020000040000fa
:040284004c04000026
:020000040000fa
:040288004c04000022
:020000040000fa
:04028c004c0400001e
:020000040000fa
:040290004c0400001a
:020000040000fa
:040294004c04000016
:020000040000fa
:040298004c04000012
:020000040000fa
:04029c004c0400000e
:020000040000fa
:0402a0004c0400000a
:020000040000fa
:0402a4004c04000006
:020000040000fa
:0402a8004c04000002
:020000040000fa
:0402ac004c040000fe
:020000040000fa
:0402b0004c040000fa
:020000040000fa
:0402b4004c040000f6
:020000040000fa
:0402b8004c040000f2
:020000040000fa
:0402bc004c040000ee
:020000040000fa
:0402c0004c040000ea
:020000040000fa
:0402c4004c040000e6
:020000040000fa
:0402c8004c040000e2
:020000040000fa
:0402cc004c040000de
:020000040000fa
:0402d0004c040000da
:020000040000fa
:0402d4004c040000d6
:020000040000fa
:0402d8004c040000d2
:020000040000fa
:0402dc004c040000ce
:020000040000fa
:0402e0004c040000ca
:020000040000fa
:0402e4004c040000c6
:020000040000fa
:0402e8004c040000c2
:020000040000fa
:0402ec004c040000be
:020000040000fa
:0402f0004c040000ba
:020000040000fa
:0402f4004c040000b6
:020000040000fa
:0402f8004c040000b2
:020000040000fa
:0402fc004c040000ae
:020000040000fa
:040300004c040000a9
:020000040000fa
:040304004c040000a5
:020000040000fa
:040308004c040000a1
:020000040000fa
:04030c004c0400009d
:020000040000fa
:040310004c04000099
:020000040000fa
:040314004c04000095
:020000040000fa
:040318004c04000091
:020000040000fa
:04031c004c0400008d
:020000040000fa
:040320004c04000089
:020000040000fa
:100400002f0221000eff2c000e01880000002000aa
:100410000000e000020032000001200020028800fd
:10042000140007001e0107000000e00003003a006e
:10043000a0942000010020000200370000002000ee
:1004400001002000810f70004220ae000f00070065
:10045000000020000000e0004220ae00000002008a
:100460000000000036080200000000000040da0032
:100470000000fe00200020000000e000020032002a
:10048000100020009001880000000600a1028800f2
:10049000800478000000eb001f003700e284440075
:1004a00054a0b4009905ba00e284440054a0b400fa
:1004b0009906ba00e284440054a0b4000006eb00a0
:1004c000476fde00fd07b200ae018800636ce100fb
:1004d00003003a000ad801000000eb000e003700cc
:1004e000606ce10008003a00004deb000a05e800ee
:1004f000020039003420ec000af0a0008b05e9006e
:10050000f9ff3e00040037006168e100010032009d
:100510000086eb000b00070019c7ba001905ba00e6
:100520000e04e00003003a000a00e000dbff3a009e
:1005300000000600fe07b200ae0288008a047800c0
:10054000f5ff37000cd0a300e20f4d001c0039006e
:1005500089027800354dba000a05e800020039002a
:100560003420ec000af0a0008b05e9000f003200f7
:10057000254dba000a05e800020039003420ec00dd
:100580000af0a0008b05e900080032000c00e00032
:100590000600320015cdba000a05e8000200390055
:1005a0003420ec000af0a0008b05e9008984e80003
:1005b00054a0b4000b00e000e2ff3a000000060087
:1005c0009902ba00055d78008b05e900f7ff32005b
:1005d000c82ade00055d78008b05e900f3ff3200d4
:1005e0000c00e000f1ff320019ddba00eeff370029
:1005f00004082000010037000002eb006100e10068
:1006000001003200100005003200f8003400f8004c
:1006100081027800930188003200be000100e000f2
:100620000c0032000470a70000f0a0003203780034
:10063000c733de00848343004220af008703e80015
:10064000a7018800f607b2007f30e1000400320005
:10065000200020003400f9003200f90000000600fc
:100660008100e9000500e00003003a000180090074
:1006700032100300e8ff37000180090032900300c8
:10068000d561ae00e4ff370030002000f1ff3700f5
:1006900050052000b00e8800a00a2000b00e88008f
:1006a000d3e1a8000000060050052000b00e88002d
:1006b000a00a2000b00e8800d3e1a90000000600c7
:1006c0003600f800809fbe00829fbe00849fbe005f
:1006d000869fbe000000fa00c028a9000000eb00c1
:1006e000e00207000080fa004f03be004f02be0088
:1006f0004f01be004f00be003600f900004006006a
:100700003600f800809fbe00829fbe00849fbe001e
:10071000869fbe000000fa00d7020700c048a9006b
:1007200010002000cf0207000080fa004f03be0037
:100730004f02be004f01be004f00be003600f90060
:10074000004006003600f800809fbe00829fbe0079
:10075000849fbe00869fbe000000fa00c068a9000a
:1007600020002000bf0207000080fa004f03be00f7
:100770004f02be004f01be004f00be003600f90020
:10078000004006003600f800809fbe00829fbe0039
:10079000849fbe00869fbe000000fa00c088a900aa
:1007a00030002000af0207000080fa004f03be00b7
:1007b0004f02be004f01be004f00be003600f900e0
:1007c000004006003600f800809fbe00829fbe00f9
:1007d000849fbe00869fbe000000fa00c608a900e4
:1007e000700020009f0207000080fa004f03be0047
:1007f0004f02be004f01be004f00be003600f900a0
:10080000004006003600f800809fbe00829fbe00b8
:10081000849fbe00869fbe000000fa002146800033
:1008200000102000008060000000e00003003200a3
:10083000c508a900c00020008a02070021468000e8
:1008400000022000008060000000e0000300320091
:10085000c4a8a90090002000820207002046800062
:10086000700060000000e00003003200c488a900ae
:10087000a00020007b02070020468000610060008d
:100880000000e00003003200c408a900b00020000e
:1008900074020700ffff37000040da000000fe008e
:1008a0000000050003f0a200889fbe008a9fbe00e2
:1008b0008c1f7800c1000700c80033006450e100bd
:1008c0004f0032006420e1005200320003826c00cd
:1008d00007003b000905d0000306d000820f54003a
:1008e0000c065d0002003900020032008901780028
:1008f000030678008582550004003d000003fd00da
:100900008103fd008502ea008b854200840f72009e
:1009100002003b0060001000e08018006011b80089
:100920000005eb007a28e1000a0039000600780093
:10093000c75ddd00f707b200878075002d00370026
:10094000828171000a017800610560008180d10018
:100950000080d3008502e900f9ff3b000604400057
:100960008784480002003b0060041400e0841c00ff
:100970000988a300070032008a817100828171001a
:10098000610164008904d1000884d3008b05e8006c
:10099000170037000978a30013003a000b00e000ad
:1009a000130034008b05e9000804440089844c00de
:1009b0000a4474000978a3000d003a000b00e0001f
:1009c000070034008b05e9000804440089844c00ca
:1009d00001003a000b0020000978a300f7ff320065
:1009e0000001eb0002003700828171000a017800eb
:1009f0004c0007000cf0a70001f0a00080003700b9
:100a00006420e10002003a00838f6c008000330014
:100a10000801be000200be0079003700889fbe00ba
:100a20008a9fbe008c1f7800640007006b003300b3
:100a300003866c006450e1002e0032006420e10067
:100a4000330032006150e1002f0032006120e100ec
:100a50003100320085855500eb07b0000900200009
:100a600008042000050037000804440089844c0075
:100a70000a0031000603430087834b000001530046
:100a800081815b00f8ff33000203be000800a00074
:100a90000804440089844c00f6ff3900c639dd00a3
:100aa0008301730001003200130020008904d1008b
:100ab0000884d3000998a300050032000800a700ad
:100ac0000300a0008904d1000884d3008b05e8004e
:100ad0008904d1000884d3000001eb000281d20018
:100ae0001000070001f0a1000cf0a70001f0a00029
:100af000430037006420e100450032000801be00d9
:100b00000200be00f7ff37006120e1004000320024
:100b10006000b800f3ff37000000200001f8270054
:100b2000f0ff370081002000618055000b003d0080
:100b30000b00200061fe2f000100e1001d003400c9
:100b400082817100610164008904d1000884d300ae
:100b50000000e800faff3a00710020006100640024
:100b600003007000020060000900320061044400cc
:100b7000e0844c000988a500050032008b05e800e0
:100b80006808e10002003a008904d1000884d3001b
:100b9000f20f20000258e10005003d00c75ddd00b6
:100ba000f907b2008980750008007800000006008f
:100bb0000bf827008b007800000005000004be0041
:100bc0004a0007000003be000405be000200be008c
:100bd00046000700844f7500000006000200be00ba
:100be0006450e100050036006420e1000200360098
:100bf0000968a30001003a000800be000160a000df
:100c00004f0678004f05be004f04be0000000600ee
:100c1000f0ff2f00f1ff2700f9ff3700889fbe008b
:100c20008a9fbe008c1f7800e4ff0700ebff3300b3
:100c300003866c006450e100240032006420e1006f
:100c4000270032006150e100220032006120e10003
:100c5000210032008b854200eb07b1000134b8005f
:100c6000003ab8000804420089844a00013ab800fa
:100c70000030b8008880400009014a0004003300b9
:100c80000000400081804800020149008b05e90016
:100c9000c909dd008301700001003200130020004b
:100ca000c814de004814dd004709de001200b2005f
:100cb000c808de00088470009aff070001f0a10058
:100cc0000cf0a70001f0a000cdff37006120e1008b
:100cd000cfff32000801be000200be00f7ff370060
:100ce0006150e100fcff3a00c9ff3700c70ade008f
:100cf000f107b200f50fb20008003200e1cf420068
:100d0000020032000170a00024000500810f700075
:100d1000010032000408050044000500810f700046
:100d200002003a00140005008502e90000004000be
:100d300081c04800fcff3b000170a00024000500ba
:020000040000fa
:100d40000000fa00007c80000080fa00000006002d
:100d50000200fa00faff0700000f78001e0078007a
:100d6000240007000004e000020032000000280018
:100d7000710007001e0078002a0007000004e00050
:100d800002003200000024006b0007001e00780003
:100d9000320007000004e0000200320000202000c2
:100da000650007001e0078003a0007000004e0001c
:100db00002003200000820005f0007001e007800db
:100dc000420007000004e00002003200000420009e
:100dd000590007001e0078004a0007000004e000e8
:100de0000200320000012000530007000080fa00da
:100df000000006000400fa00100798000040eb0015
:100e0000004f78001e0090000000e00002003d004e
:100e100010c0b300004f78001e4078000080fa0038
:100e2000000006000400fa00100798000040eb00e4
:100e3000004f78009e0090000000240000806000b9
:100e40000000e0000200320010c0b300004f780044
:100e50001e4078000080fa00000006000400fa003e
:100e6000100798000040eb00004f78009e009000b3
:100e700000202000008060000000e000020032003e
:100e800010c0b300004f78001e4078000080fa00c8
:100e9000000006000400fa00100798000040eb0074
:100ea000004f78009e009000000820000080600045
:100eb0000000e0000200320010c0b300004f7800d4
:100ec0001e4078000080fa00000006000400fa00ce
:100ed000100798000040eb00004f78009e00900043
:100ee00000042000008060000000e00002003200ea
:100ef00010c0b300004f78001e4078000080fa0058
:100f0000000006000400fa00100798000040eb0003
:100f1000004f78001e009000700060000000e000ac
:100f20000200320010c0b300004f78001e4078006d
:100f30000080fa00000006000200fa00000f7800ae
:100f40009e80ea00007c800000806000007c8800b9
:100f50000080fa00000006000000fa00802fef0079
:100f60000080fa00000006000000fa0010002300d4
:100f7000307c880060092000407c88008c2fef00c6
:100f800010062000507c880010102000707c880023
:100f900060092000807c880010042000907c88007c
:100fa0009a2fef00b82fef00ba2fef00be2fef00ff
:100fb000002def00a42fef00a62fef00a82fef00c9
:100fc000aa2fef00ae2fef00b02fef00b22fef00ef
:100fd0003200200080072000a109200053f82000e3
:100fe0008049780081497800824978001200200009
:100ff000600420007105200043f82000804978003b
:10100000814978008249780000000000207c80003f
:10101000610060000000e000fcff3a0000000000fa
:10102000217c800000022000008060000000e000c1
:10103000fbff32000080fa00000006000000fa000a
:10104000707c8000ee800a00000000000080fb0041
:1010500000f0a7000000ea000000ea004f00de00f8
:10106000004078000080fa00000006002400fa002a
:10107000730007000040220041972400008fbe004b
:1010800000002000010a2400200798003107980082
:10109000000020000100240040079800510798003c
:1010a00000002500317c240060079800710798003b
:1010b0000000200001f82300000f9800110f980095
:1010c0006e019000fe0190000000200001f8230056
:1010d00052fe07001e01be00d0fe0700200f980040
:1010e000310f98000e0990009e0990002e0090008c
:1010f000be009000c9fe07000001be004e00900037
:10110000de00900045fe0700400f9800510f980048
:101110004e099000de0990002e089000be08900055
:10112000befe0700600f9800710f98006e099000d6
:10113000fe0990002e089000be089000d9fd07001f
:1011400000179800111798003feea9003dcea800a7
:101150003dcea900fdff37000000fa00062eef008b
:10116000222eef003e2eef005a2eef00762eef00db
:10117000f001200010708800d0ff2f00f070880070
:10118000f0ff2300d07188000080eb00b07288006f
:101190000080eb00907388000c2eef00282eef00eb
:1011a000442eef00602eef007c2eef000a2eef00a1
:1011b000262eef00422eef005e2eef007a2eef007b
:1011c000082eef00242eef00402eef005c2eef00e3
:1011d000782eef00f001200000708800c009200088
:1011e000e0708800f00c2000c071880000c027006b
:1011f000a072880000042000807388000080fa003c
:10120000000006000200fa00000f780021028000b2
:10121000200f2000008060001e0070002002880067
:101220000080fa00000006000000fa00c3e8a800f1
:1012300000000000000000000080fa00000006002e
:101240000000fa00c4ff070047ff0700190007006d
:10125000f5ff070000022000eaff07000080fa0007
:10126000000006000200fa00000f78009e007800df
:1012700001808800ffff37000000fa0020002100f5
:1012800080077800a0012100000188000080fa009a
:041290000000060054
:020000040000fa
:101294000210000020000000800000000010000088
:1012a4000200000082000000ffff000000000000b8
:020000040000fa
:0c12b4000000fa000080fa0000000600b4
:020000040000fa
:02000004000af0
:04fe0000ffff000000
:020000040000fa
:02000004000af0
:04fe2000ffffff00e1
:020000040000fa
:02000004000af0
:04fe300078ffff0058
:020000040000fa
:02000004000af0
:04fe380079ffff004f
:020000040000fa
:02000004000af0
:04fe40006003ff005c
:020000040000fa
:02000004000af0
:04fe4800ffffff00b9
:020000040000fa
:02000004000af0
:04fe5000dfffff00d1
:020000040000fa
:02000004000af0
:04fe58000000ff00a7
:020000040000fa
:02000004000af0
:04fe60000000ff009f
:020000040000fa
:02000004000af0
:04fe68000000ff0097
:020000040000fa
:02000004000af0
:04fe70000000ff008f
:020000040000fa
:02000004000af0
:04fe7800ffffff0089
:020000040000fa
:02000004000af0
:04fe8000fffcff0084
:020000040000fa
:02000004000af0
:04fe8800ffffff0079
:020000040000fa
:02000004000af0
:04feb000ffffff0051
:020000040000fa
:02000004000af0
:04fec000ffffff0041
:020000040000fa
:02000004000af0
:04fed000ffffff0031
:020000040000fa
:02000004000af0
:04fee000ffffff0021
:020000040000fa
:02000004000af0
:04fef000ffffff0011
:020000040000fa
:02000004000af0
:04fff800ffffff0008
:020000040000fa
:020000040100f9
:04300000ffffff00cf
:00000001FF
