:020000040000fa
:080000000002040000000000f2
:020000040000fa
:040008006003000091
:020000040000fa
:04000c00a20300004b
:020000040000fa
:04001000e203000007
:020000040000fa
:040014008003000065
:020000040000fa
:04001800c20300001f
:020000040000fa
:04001c004c04000090
:020000040000fa
:0400200002040000d6
:020000040000fa
:040024004c04000088
:020000040000fa
:040028004c04000084
:020000040000fa
:04002c004c04000080
:020000040000fa
:040030004c0400007c
:020000040000fa
:040034004c04000078
:020000040000fa
:040038004c04000074
:020000040000fa
:04003c004c04000070
:020000040000fa
:040040004c0400006c
:020000040000fa
:040044004c04000068
:020000040000fa
:040048004c04000064
:020000040000fa
:04004c004c04000060
:020000040000fa
:040050004c0400005c
:020000040000fa
:040054004c04000058
:020000040000fa
:040058004c04000054
:020000040000fa
:04005c004c04000050
:020000040000fa
:040060004c0400004c
:020000040000fa
:040064004c04000048
:020000040000fa
:040068004c04000044
:020000040000fa
:04006c004c04000040
:020000040000fa
:040070004c0400003c
:020000040000fa
:040074004c04000038
:020000040000fa
:040078004c04000034
:020000040000fa
:04007c004c04000030
:020000040000fa
:040080004c0400002c
:020000040000fa
:040084004c04000028
:020000040000fa
:040088004c04000024
:020000040000fa
:04008c004c04000020
:020000040000fa
:040090004c0400001c
:020000040000fa
:040094004c04000018
:020000040000fa
:040098004c04000014
:020000040000fa
:04009c004c04000010
:020000040000fa
:0400a0004c0400000c
:020000040000fa
:0400a4004c04000008
:020000040000fa
:0400a8004c04000004
:020000040000fa
:0400ac004c04000000
:020000040000fa
:0400b0004c040000fc
:020000040000fa
:0400b4004c040000f8
:020000040000fa
:0400b8004c040000f4
:020000040000fa
:0400bc004c040000f0
:020000040000fa
:0400c0004c040000ec
:020000040000fa
:0400c4004c040000e8
:020000040000fa
:0400c8004c040000e4
:020000040000fa
:0400cc004c040000e0
:020000040000fa
:0400d0004c040000dc
:020000040000fa
:0400d4004c040000d8
:020000040000fa
:0400d8004c040000d4
:020000040000fa
:0400dc004c040000d0
:020000040000fa
:0400e0004c040000cc
:020000040000fa
:0400e4004c040000c8
:020000040000fa
:0400e8004c040000c4
:020000040000fa
:0400ec004c040000c0
:020000040000fa
:0400f0004c040000bc
:020000040000fa
:0400f4004c040000b8
:020000040000fa
:0400f8004c040000b4
:020000040000fa
:0400fc004c040000b0
:020000040000fa
:040100004c040000ab
:020000040000fa
:040104004c040000a7
:020000040000fa
:040108004c040000a3
:020000040000fa
:04010c004c0400009f
:020000040000fa
:040110004c0400009b
:020000040000fa
:040114004c04000097
:020000040000fa
:040118004c04000093
:020000040000fa
:04011c004c0400008f
:020000040000fa
:040120004c0400008b
:020000040000fa
:040124004c04000087
:020000040000fa
:040128004c04000083
:020000040000fa
:04012c004c0400007f
:020000040000fa
:040130004c0400007b
:020000040000fa
:040134004c04000077
:020000040000fa
:040138004c04000073
:020000040000fa
:04013c004c0400006f
:020000040000fa
:040140004c0400006b
:020000040000fa
:040144004c04000067
:020000040000fa
:040148004c04000063
:020000040000fa
:04014c004c0400005f
:020000040000fa
:040150004c0400005b
:020000040000fa
:040154004c04000057
:020000040000fa
:040158004c04000053
:020000040000fa
:04015c004c0400004f
:020000040000fa
:040160004c0400004b
:020000040000fa
:040164004c04000047
:020000040000fa
:040168004c04000043
:020000040000fa
:04016c004c0400003f
:020000040000fa
:040170004c0400003b
:020000040000fa
:040174004c04000037
:020000040000fa
:040178004c04000033
:020000040000fa
:04017c004c0400002f
:020000040000fa
:040180004c0400002b
:020000040000fa
:040184004c04000027
:020000040000fa
:040188004c04000023
:020000040000fa
:04018c004c0400001f
:020000040000fa
:040190004c0400001b
:020000040000fa
:040194004c04000017
:020000040000fa
:040198004c04000013
:020000040000fa
:04019c004c0400000f
:020000040000fa
:0401a0004c0400000b
:020000040000fa
:0401a4004c04000007
:020000040000fa
:0401a8004c04000003
:020000040000fa
:0401ac004c040000ff
:020000040000fa
:0401b0004c040000fb
:020000040000fa
:0401b4004c040000f7
:020000040000fa
:0401b8004c040000f3
:020000040000fa
:0401bc004c040000ef
:020000040000fa
:0401c0004c040000eb
:020000040000fa
:0401c4004c040000e7
:020000040000fa
:0401c8004c040000e3
:020000040000fa
:0401cc004c040000df
:020000040000fa
:0401d0004c040000db
:020000040000fa
:0401d4004c040000d7
:020000040000fa
:0401d8004c040000d3
:020000040000fa
:0401dc004c040000cf
:020000040000fa
:0401e0004c040000cb
:020000040000fa
:0401e4004c040000c7
:020000040000fa
:0401e8004c040000c3
:020000040000fa
:0401ec004c040000bf
:020000040000fa
:0401f0004c040000bb
:020000040000fa
:0401f4004c040000b7
:020000040000fa
:0401f8004c040000b3
:020000040000fa
:0401fc004c040000af
:020000040000fa
:040200004c040000aa
:020000040000fa
:040204004c040000a6
:020000040000fa
:040208004c040000a2
:020000040000fa
:04020c004c0400009e
:020000040000fa
:040210004c0400009a
:020000040000fa
:040214004c04000096
:020000040000fa
:040218004c04000092
:020000040000fa
:04021c004c0400008e
:020000040000fa
:040220004c0400008a
:020000040000fa
:040224004c04000086
:020000040000fa
:040228004c04000082
:020000040000fa
:04022c004c0400007e
:020000040000fa
:040230004c0400007a
:020000040000fa
:040234004c04000076
:020000040000fa
:040238004c04000072
:020000040000fa
:04023c004c0400006e
:020000040000fa
:040240004c0400006a
:020000040000fa
:040244004c04000066
:020000040000fa
:040248004c04000062
:020000040000fa
:04024c004c0400005e
:020000040000fa
:040250004c0400005a
:020000040000fa
:040254004c04000056
:020000040000fa
:040258004c04000052
:020000040000fa
:04025c004c0400004e
:020000040000fa
:040260004c0400004a
:020000040000fa
:040264004c04000046
:020000040000fa
:040268004c04000042
:020000040000fa
:04026c004c0400003e
:020000040000fa
:040270004c0400003a
:020000040000fa
:040274004c04000036
:020000040000fa
:040278004c04000032
:020000040000fa
:04027c004c0400002e
:020000040000fa
:040280004c0400002a
:020000040000fa
:040284004c04000026
:020000040000fa
:040288004c04000022
:020000040000fa
:04028c004c0400001e
:020000040000fa
:040290004c0400001a
:020000040000fa
:040294004c04000016
:020000040000fa
:040298004c04000012
:020000040000fa
:04029c004c0400000e
:020000040000fa
:0402a0004c0400000a
:020000040000fa
:0402a4004c04000006
:020000040000fa
:0402a8004c04000002
:020000040000fa
:0402ac004c040000fe
:020000040000fa
:0402b0004c040000fa
:020000040000fa
:0402b4004c040000f6
:020000040000fa
:0402b8004c040000f2
:020000040000fa
:0402bc004c040000ee
:020000040000fa
:0402c0004c040000ea
:020000040000fa
:0402c4004c040000e6
:020000040000fa
:0402c8004c040000e2
:020000040000fa
:0402cc004c040000de
:020000040000fa
:0402d0004c040000da
:020000040000fa
:0402d4004c040000d6
:020000040000fa
:0402d8004c040000d2
:020000040000fa
:0402dc004c040000ce
:020000040000fa
:0402e0004c040000ca
:020000040000fa
:0402e4004c040000c6
:020000040000fa
:0402e8004c040000c2
:020000040000fa
:0402ec004c040000be
:020000040000fa
:0402f0004c040000ba
:020000040000fa
:0402f4004c040000b6
:020000040000fa
:0402f8004c040000b2
:020000040000fa
:0402fc004c040000ae
:020000040000fa
:040300004c040000a9
:020000040000fa
:040304004c040000a5
:020000040000fa
:040308004c040000a1
:020000040000fa
:04030c004c0400009d
:020000040000fa
:040310004c04000099
:020000040000fa
:040314004c04000095
:020000040000fa
:040318004c04000091
:020000040000fa
:04031c004c0400008d
:020000040000fa
:040320004c04000089
:020000040000fa
:100400002f0221000eff2c000e01880000002000aa
:100410000000e000020032000001200020028800fd
:10042000140007001e0107000000e00003003a006e
:10043000206f210001002000020037000000200092
:1004400001002000810f70004220ae000f00070065
:10045000000020000000e0004220ae00000002008a
:100460000000000008170200000000000040da0051
:100470000000fe00200020000000e000020032002a
:10048000100020009001880000000600a1028800f2
:10049000800478000000eb001f003700e284440075
:1004a00054a0b4009905ba00e284440054a0b400fa
:1004b0009906ba00e284440054a0b4000006eb00a0
:1004c000476fde00fd07b200ae018800636ce100fb
:1004d00003003a000ad801000000eb000e003700cc
:1004e000606ce10008003a00004deb000a05e800ee
:1004f000020039003420ec000af0a0008b05e9006e
:10050000f9ff3e00040037006168e100010032009d
:100510000086eb000b00070019c7ba001905ba00e6
:100520000e04e00003003a000a00e000dbff3a009e
:1005300000000600fe07b200ae0288008a047800c0
:10054000f5ff37000cd0a300e20f4d001c0039006e
:1005500089027800354dba000a05e800020039002a
:100560003420ec000af0a0008b05e9000f003200f7
:10057000254dba000a05e800020039003420ec00dd
:100580000af0a0008b05e900080032000c00e00032
:100590000600320015cdba000a05e8000200390055
:1005a0003420ec000af0a0008b05e9008984e80003
:1005b00054a0b4000b00e000e2ff3a000000060087
:1005c0009902ba00055d78008b05e900f7ff32005b
:1005d000c82ade00055d78008b05e900f3ff3200d4
:1005e0000c00e000f1ff320019ddba00eeff370029
:1005f00004082000010037000002eb006100e10068
:1006000001003200100005003200f8003400f8004c
:1006100081027800930188003200be000100e000f2
:100620000c0032000470a70000f0a0003203780034
:10063000c733de00848343004220af008703e80015
:10064000a7018800f607b2007f30e1000400320005
:10065000200020003400f9003200f90000000600fc
:100660008100e9000500e00003003a000180090074
:1006700032100300e8ff37000180090032900300c8
:10068000d561ae00e4ff370030002000f1ff3700f5
:1006900050052000b00e8800a00a2000b00e88008f
:1006a000d3e1a8000000060050052000b00e88002d
:1006b000a00a2000b00e8800d3e1a90000000600c7
:1006c0003600f800809fbe00829fbe00849fbe005f
:1006d000869fbe000000fa00c028a9000000eb00c1
:1006e000b40907000080fa004f03be004f02be00ad
:1006f0004f01be004f00be003600f900004006006a
:100700003600f800809fbe00829fbe00849fbe001e
:10071000869fbe000000fa00ab090700c048a90090
:1007200010002000a30907000080fa004f03be005c
:100730004f02be004f01be004f00be003600f90060
:10074000004006003600f800809fbe00829fbe0079
:10075000849fbe00869fbe000000fa00c068a9000a
:1007600020002000930907000080fa004f03be001c
:100770004f02be004f01be004f00be003600f90020
:10078000004006003600f800809fbe00829fbe0039
:10079000849fbe00869fbe000000fa00c088a900aa
:1007a00030002000830907000080fa004f03be00dc
:1007b0004f02be004f01be004f00be003600f900e0
:1007c000004006003600f800809fbe00829fbe00f9
:1007d000849fbe00869fbe000000fa00c608a900e4
:1007e00070002000730907000080fa004f03be006c
:1007f0004f02be004f01be004f00be003600f900a0
:10080000004006003600f800809fbe00829fbe00b8
:10081000849fbe00869fbe000000fa002146800033
:1008200000102000008060000000e00003003200a3
:10083000c508a900c00020005e090700214680000d
:1008400000022000008060000000e0000300320091
:10085000c4a8a90090002000560907002046800087
:10086000700060000000e00003003200c488a900ae
:10087000a00020004f0907002046800061006000b2
:100880000000e00003003200c408a900b00020000e
:1008900048090700ffff37000040da000000fe00b3
:0408a000000005004f
:020000040000fa
:1008a40000000000ca0000001f0000000002040055
:1008b40000000000fa0200003c0300007c0300007a
:1008c4001a0300005c030000040400009c03000001
:1008d40004040000040400000404000004040000f4
:1008e40004040000040400000404000004040000e4
:1008f40004040000040400000404000004040000d4
:1009040004040000040400000404000004040000c3
:1009140004040000040400000404000004040000b3
:1009240004040000040400000404000004040000a3
:100934000404000004040000040400000404000093
:100944000404000004040000040400000404000083
:100954000404000004040000040400000404000073
:100964000404000004040000040400000404000063
:100974000404000004040000040400000404000053
:100984000404000004040000040400000404000043
:100994000404000004040000040400000404000033
:1009a4000404000004040000040400000404000023
:1009b4000404000004040000040400000404000013
:1009c4000404000004040000040400000404000003
:1009d40004040000040400000404000004040000f3
:1009e40004040000040400000404000004040000e3
:1009f40004040000040400000404000004040000d3
:100a040004040000040400000404000004040000c2
:100a140004040000040400000404000004040000b2
:100a240004040000040400000404000004040000a2
:100a34000404000004040000040400000404000092
:100a44000404000004040000040400000404000082
:100a54000404000004040000040400000404000072
:100a64000404000004040000040400000404000062
:100a74000404000004040000040400000404000052
:100a84000404000004040000040400000404000042
:100a94000404000004040000040400000404000032
:100aa4000404000004040000040400000404000022
:100ab4000404000004040000040400000404000012
:100ac40004040000e6030000040400000404000021
:100ad40004040000040400000404000004040000f2
:100ae40004040000040400000404000004040000e2
:100af40004040000040400000404000004040000d2
:100b040004040000040400000404000004040000c1
:100b140004040000040400000404000004040000b1
:100b240004040000040400000404000004040000a1
:100b34000404000004040000040400000404000091
:100b44000404000004040000040400000404000081
:100b54000404000004040000040400000404000071
:100b64000404000004040000040400000404000061
:100b74000404000004040000040400000404000051
:100b84000404000004040000040400000404000041
:100b94000404000004040000040400000404000031
:100ba4000404000004040000040400000404000021
:100bb4000404000004040000040400000404000011
:100bc4000404000004040000040400000000fe000b
:100bd4000000fe0000020000000200001f000000f0
:100be4002f0221000eff24000e01880000000000e7
:100bf400000020000000e00002003200000120009c
:100c04002002880014000700f90007000000e0003b
:100c140003003a0020f62000010020000200370003
:100c24000000200001002000810f7000010032004c
:100c34000f000700000020000000e0000200320066
:100c44000000020000000000e008020000000000b4
:100c54000040da000000fe00200020000000e00058
:100c640002003200100020009001880000000600fd
:100c7400a1028800800478000000eb001f00370008
:100c8400e284440054a0b4009905ba00e28444000c
:100c940054a0b4009906ba00e284440054a0b400fd
:100ca4000006eb00476fde00fd07b200ae018800ce
:100cb400636ce10003003a000ad801000000eb0075
:100cc4000e003700606ce10008003a00004deb00b4
:100cd4000a05e800020039003420ec000af0a00004
:100ce4008b05e900f9ff3e00040037006168e1006c
:100cf400010032000086eb000b00070019c7ba00a0
:100d04001905ba000e04e00003003a000a00e000ee
:100d1400dbff3a0000000600fe07b200ae028800c6
:100d24008a047800f5ff37000cd0a300e20f4d00d1
:100d34001c00390089027800354dba000a05e80024
:100d4400020039003420ec000af0a0008b05e90011
:100d54000f003200254dba000a05e80002003900f0
:100d64003420ec000af0a0008b05e90008003200f2
:100d74000c00e0000600320015cdba000a05e800b8
:100d8400020039003420ec000af0a0008b05e900d1
:100d94008984e80054a0b4000b00e000e2ff3a00ac
:100da400000006009902ba00055d78008b05e90091
:100db400f7ff3200c82ade00055d78008b05e900e4
:100dc400f3ff32000c00e000f1ff320019ddba003d
:100dd400eeff37003600f800809fbe00829fbe0001
:100de400849fbe00869fbe000000fa00c028a900b0
:100df4000000eb001f0607000080fa004f03be004e
:100e04004f02be004f01be004f00be003600f90085
:100e1400004006003600f800809fbe00829fbe009e
:100e2400849fbe00869fbe000000fa0016060700dd
:100e3400c048a900100020000e0607000080fa0038
:100e44004f03be004f02be004f01be004f00be0064
:100e54003600f900004006003600f800809fbe000e
:100e6400829fbe00849fbe00869fbe000000fa00e1
:100e7400c068a90020002000fe0507000080fa00d9
:100e84004f03be004f02be004f01be004f00be0024
:100e94003600f900004006003600f800809fbe00ce
:100ea400829fbe00849fbe00869fbe000000fa00a1
:100eb400c088a90030002000ee0507000080fa0079
:100ec4004f03be004f02be004f01be004f00be00e4
:100ed4003600f900004006003600f800809fbe008e
:100ee400829fbe00849fbe00869fbe000000fa0061
:100ef400c608a90070002000de0507000080fa0083
:100f04004f03be004f02be004f01be004f00be00a3
:100f14003600f900004006003600f800809fbe004d
:100f2400829fbe00849fbe00869fbe000000fa0020
:100f34002146800000102000008060000000e000d6
:100f440003003200c508a900c0002000c90507003d
:100f54002146800000022000008060000000e000c4
:100f640003003200c4a8a90090002000c1050700b6
:100f740020468000700060000000e00003003200a2
:100f8400c488a900a0002000ba05070020468000fc
:100f9400610060000000e00003003200c408a90002
:100fa400b0002000b3050700ffff37003600f8004b
:100fb400809fbe00829fbe00849fbe00869fbe00ad
:100fc4000000fa00420507000f88a9000080fa001b
:100fd4004f03be004f02be004f01be004f00be00d3
:100fe4003600f900004006000040da000000fe0070
:100ff400000005000001be00210007000470a700e6
:1010040003f0a1006509b100160032000d0035009f
:101014006828e10006003500f0ff2f00f1ff2700eb
:101024000300e00013003b0001002800000005005d
:1010340000004000818048008502e900fcff3a007e
:1010440008003700f88f420002003c008000eb00eb
:10105400000005008100d1000080d3008502e80073
:10106400fcff3a000300e00002003b0060001000b7
:10107400e0801800000006006011b8005900370035
:10108400c70ade00f107b200f50fb2000800320013
:10109400e1cf4200020032000170a00024000500ec
:1010a400810f7000010032000408050044000500af
:1010b400810f700002003a00140005008502e90067
:1010c4000000400081c04800fcff3b000170a0000c
:1010d40024000500889fbe008a9fbe008c1f7800f4
:1010e400950007009c00330003866c006450e10007
:1010f400240032006420e100270032006150e10046
:10110400220032006120e100210032008b85420080
:10111400eb07b1000134b800003ab80008044200fb
:1011240089844a00013ab8000030b8008880400041
:1011340009014a0004003300000040008180480097
:10114400020149008b05e900c909dd008301700033
:101154000100320013002000c814de004814dd0032
:101164004709de001200b200c808de0008847000df
:101174004b00070001f0a1000cf0a70001f0a00053
:101184007e0037006120e100800032000801be00cb
:101194000200be00f7ff37006150e100fcff3a0097
:1011a4007a0037006022b800060220000000d00058
:1011b4008180d2000482d2008582d2000000a00087
:1011c4000202520083825a000300310002024200ec
:1011d40083824a000000a1000603e900f3ff3a00fd
:1011e40000000600889fbe008a9fbe000082700037
:1011f4000402710004827100260032000004be0063
:101204000200be006011b8006b09200095022000a6
:101214000182cf000a0039000541b1000082cf00ed
:10122400070039000541b1000982cf0004003900ec
:101234000541b1000882cf00010039000541b10029
:1012440005425200120032000a003b008281710004
:10125400610164008100d1000080d3008984d3003f
:101264000884d3008b05e8000442e800f7ff3a0045
:10127400070037000804440089844c00000048003b
:10128400818048008b05e9000442e900f9ff3a0037
:10129400030007004f05be004f04be000000060017
:1012a40081002000618055000b003d000b002000f0
:1012b40061fe2f000100e1001d00340082817100f5
:1012c400610164008904d1000884d3000000e800af
:1012d400faff3a007100200061006400030070000e
:1012e400020060000900320061044400e0844c0004
:1012f4000988a500050032008b05e8006808e100b4
:1013040002003a008904d1000884d300f20f2000bf
:101314000258e10005003d00c75ddd00f907b20099
:101324008980750008007800000006000bf827008b
:101334008b007800000005000004be0050ff070089
:101344000003be000405be000200be004cff0700ff
:10135400844f7500000006000200be006450e100e6
:10136400050036006420e100020036000968a3008d
:1013740001003a000800be000160a0004f0678009a
:101384004f05be004f04be0000000600f0ff2f0012
:10139400f1ff2700f9ff37000600fa002007980044
:1013a4002e0090000000400080007800c0c02000a3
:1013b400008f40004158800000e02f0080806000d2
:1013c4002e0090000100700040588800090ba8000e
:1013d4002e009000ef0f50000b003e002e009000f6
:1013e40000060000000200001f00000011002000a1
:1013f4000008dd00100798000000000081598000fb
:101404001e009000008060000000e000fbff32003e
:101414000b0037002e0090007000500011002000d7
:101424000008dd00100798000000000091598000ba
:101434001e009000008060000000e000fbff32000e
:101444001e007800100078000080fa0000000600fa
:101454000a00fa0030079800410798006000b800bd
:10146400008fbe000000eb00200798000800370042
:101474003e009000cbff07008000eb001e0f4000f1
:101484005e9748002e0090000000e80020079800b6
:10149400ae0090004e009000808f5000f4ff3900a1
:1014a4002e0090000000e0000c0032002e0090009e
:1014b4000000d1008000eb003e024000ae824800f4
:1014c4002e0090008000eb000001be000400be006e
:1014d40037ff070000007800010037000000eb0030
:1014e4000080fa00000006000400fa00000f7800f3
:1014f400214798001e007800e10f500003003200dd
:10150400ef0f50000e00320010003700382ea800f4
:101514002e409000634060000080fb006300600088
:101524004200dd007258800031ff2f00810061000d
:10153400010070007058880010c0b3000400370028
:10154400002ea80010c0b300010037000040eb00db
:101554000080fa00000006000600fa00000f780080
:101564002147980032479800434798001e007800ae
:101574000000e0002f003a00002bef0000062000de
:1015840010588800042bef002000200030588800f9
:10159400082bef00000024005058880000f02000c1
:1015a4001060880001eba8002e4090000004e000c9
:1015b400080032000a0ba800000ca800000000007c
:1015c4000160800000102000008060000000e00046
:1015d400fbff32003e4090000004e00008003200af
:1015e4000a2ba800002ca800000000000160800065
:1015f40000202000008060000000e000fbff3200bb
:101604004e4090000004e000080032000aeba800fd
:1016140000eca80000000000016080000000280029
:10162400008060000000e000fbff320010c0b30047
:10163400010037000040eb000080fa0000000600c3
:101644000400fa00100798001e009000e40f5000f8
:10165400090036001e0090006500500011002000b3
:101664000008dd00000f7800604180001e0070005b
:1016740060418800080037001e0090006b004000a5
:10168400110020000008dd00000f780050418000a8
:101694001e007000504188001e009000ef0f5000a3
:1016a40008003e001e009000110020000008dd002c
:1016b400000f7800005980001e0070000059880057
:1016c400080037001e009000700050001100200038
:1016d4000008dd00000f7800105980001e00700023
:1016e400105988000080fa00000006000e00fa007d
:1016f40050079800414f9800524f98005e009000a8
:101704000000d100000040008000780000b82000f4
:101714000080400030079800c086200040079800f1
:1017240080ff2f00000f78000000eb0010079800e6
:101734000000eb00200798005e0090000000e0002d
:10174400060032005e009000e40f500003003e00eb
:101754001000200020079800230037005e0090004e
:10176400e40f5000060036005e009000e80f5000c1
:1017740003003e0020002000200798001a003700d4
:101784005e009000e80f5000060036005e009000f6
:10179400ec0f500003003e003000200020079800aa
:1017a400110037005e009000ec0f50000600360078
:1017b4005e009000f00f500003003e004000200047
:1017c40020079800080037005e009000f00f5000da
:1017d400050036005e009000f40f500002003e0049
:1017e40050002000200798005e0090006300600015
:1017f400e10f500005003a0080ff2f00000f780031
:101804000000eb00100798001a0037005e009000fb
:1018140063006000e20f500005003a00f0f82f006a
:10182400000f7800400020001007980011003700d6
:101834005e00900063006000e30f500005003a0072
:10184400f08f2f00000f7800800020001007980010
:10185400080037005e009000630060000000e000b4
:1018640004003a00f0ff2800000f7800c0002000b8
:10187400100798002e0090000000400080007800bf
:10188400c086200000804000400798004e00900071
:10189400100078009e0060004e009000010878005f
:1018a4004e009000900078004e4890000081fb00ac
:1018b4001e0090000010dd00810070004e009000ba
:1018c400010878005e00900061006000004078002c
:1018d4000004e0000f0032003e0090009000780009
:1018e400f00f2000808060003e0090000108780026
:1018f4003e009000900078005e4890000080fb005d
:101904004800dd00810070003e009000010878006e
:101914000d0037003e0090009000780000f02f008a
:10192400808060003e009000010878003e00900036
:10193400900078005e4890000080fb0081007000f9
:101944003e009000010878000080fa0000000600c4
:101954000a00fa002007980032079800430798000d
:101964002e00900068004000c200de00b047210055
:101974000008b8000100d100000f78001e007800b4
:101984008000eb00bffd07003e019000ce019000f7
:10199400d3fd07009afd07000000780010079800a7
:1019a4001e0090000080fa00000006001600fa00f5
:1019b400f402070010002000400798004e00900039
:1019c400e10f500013003200e10f500003003c000f
:1019d4000000e0000600320029003700e20f50004a
:1019e40015003200e30f50001c00320024003700c1
:1019f4000000eb00000f78000000eb0010079800d7
:101a04000000eb00300798000000eb00200798006e
:101a14001b00370010002000000f78000000eb00ce
:101a24001007980020002000300798000000eb0009
:101a340020079800120037000000eb00000f780028
:101a440010002000100798001000200030079800b4
:101a54002000200020079800090037001000200013
:101a6400000f7800100020001007980020002000cc
:101a74003007980020002000200798000000000094
:101a840080c32900500798000005200060079800d3
:101a94006e0090008000eb007afd07000001be009c
:101aa4005e009000aaff0700600798001000200065
:101ab4007007980010002000000f9800760ea9000f
:101ac400762ea9000e089000c400dd001e007800e8
:101ad4004300dd00808040001e0090004200dd00d5
:101ae400808040007e0090004700dd0000804000c0
:101af400100f9800ee0090005e0090001e09900008
:101b0400400007003e0090000000e00002003a00a0
:101b14003fcea800040037003e009000e10f5000c3
:101b240001003a003fcea9002e0090000000e00022
:101b340001003a003feea90013c0b30012c0b30085
:101b44008040eb000000eb0083fe070011c0b300ef
:101b54001000200064fe070013c0b30012c0b300dd
:101b64008040eb000000eb007bfe070011c0b300d7
:101b7400100020005cfe07001000200009fe070092
:101b8400200f9800ae08900000402000808f500085
:101b940003003c00760ea900762ea9001000370041
:101ba400ae08900000802000808f500003003c00ad
:101bb400760ea900762ea80009003700ae08900022
:101bc40000c02000808f500003003c00760ea80067
:101bd400762ea90002003700760ea800762ea80003
:101be40000202100a107200097020700000a00003e
:101bf400000200001f000000760ea900762ea90046
:101c040000202100a107200092020700d5ff370021
:101c14000600fa00000f78001107980022079800c8
:101c2400cc23ef0030002000001888000223ef00ce
:101c34000423ef000623ef000823ef000001200037
:101c4400501888000c23ef000e23ef001023ef0040
:101c54001223ef001423ef001623ef001823ef00e4
:101c64001a23ef001c23ef001e23ef002023ef00b4
:101c74002223ef002423ef002623ef002823ef0084
:101c8400ce23ef00d023ef00d223ef002e009000ec
:101c9400a01e8800d623ef00d823ef00da23ef003c
:101ca400dc23ef00de23ef00e023ef00e223ef006c
:101cb400e423ef00e623ef00e823ef00ea23ef003c
:101cc400ec23ef00ee23ef00f223ef001e00900060
:101cd400801f88001e007800a01f8800f623ef00f4
:101ce400f823ef00fa23ef00fc23ef00fe23ef00bc
:101cf40000000000df0107000004a2000004e0006f
:101d0400fcff3a0080082800601e88000080fa006a
:101d1400000006000000fa000080fa00000006003f
:101d24000000fa00414080000004200000806000b0
:101d34000000e00002003200f6ff070008c8a90016
:101d44000080fa00000006000000fa000080fa009b
:101d5400000006000000fa00a140800000202000de
:101d6400008060000000e00002003200f6ff07007f
:101d74001528a9000080fa00000006000000fa00ff
:101d84000080fa00000006000000fa00a140800074
:101d940000402000008060000000e00002003200eb
:101da400f6ff07001548a9000080fa0000000600ad
:101db4000000fa000080fa00000006000000fa00ab
:101dc400a140800000802000008060000000e0004e
:101dd40002003200f6ff07001568a9000080fa002f
:101de400000006000000fa000080fa00000006006f
:101df4000000fa00a1408000000021000080600083
:101e04000000e00002003200f6ff07001588a90078
:101e14000080fa00000006000000fa000080fa00ca
:101e2400000006000000fa00a1408000000022002b
:101e3400008060000000e00002003200f6ff0700ae
:101e440015a8a9000080fa00000006000000fa00ae
:101e54000080fa00000006000000fa00a1408000a3
:101e640000002400008060000000e0000200320056
:101e7400f6ff070015c8a9000080fa00000006005c
:101e84000000fa00007c80000080fa0000000600d8
:101e94000200fa00faff0700000f78001e00780025
:101ea400240007000004e0000200320000002800c3
:101eb400710007001e0078002a0007000004e000fb
:101ec40002003200000024006b0007001e007800ae
:101ed400320007000004e00002003200002020006d
:101ee400650007001e0078003a0007000004e000c7
:101ef40002003200000820005f0007001e00780086
:101f0400420007000004e000020032000004200048
:101f1400590007001e0078004a0007000004e00092
:101f24000200320000012000530007000080fa0084
:101f3400000006000400fa00100798000040eb00bf
:101f4400004f78001e0090000000e00002003d00f9
:101f540010c0b300004f78001e4078000080fa00e3
:101f6400000006000400fa00100798000040eb008f
:101f7400004f78009e009000000024000080600064
:101f84000000e0000200320010c0b300004f7800ef
:101f94001e4078000080fa00000006000400fa00e9
:101fa400100798000040eb00004f78009e0090005e
:101fb40000202000008060000000e00002003200e9
:101fc40010c0b300004f78001e4078000080fa0073
:101fd400000006000400fa00100798000040eb001f
:101fe400004f78009e0090000008200000806000f0
:101ff4000000e0000200320010c0b300004f78007f
:102004001e4078000080fa00000006000400fa0078
:10201400100798000040eb00004f78009e009000ed
:1020240000042000008060000000e0000200320094
:1020340010c0b300004f78001e4078000080fa0002
:10204400000006000400fa00100798000040eb00ae
:10205400004f78001e009000700060000000e00057
:102064000200320010c0b300004f78001e40780018
:102074000080fa00000006000200fa00000f780059
:102084009e80ea00007c800000806000007c880064
:102094000080fa00000006000000fa00802fef0024
:1020a4000080fa00000006000000fa00d221ef00d0
:1020b4000080fa00000006000000fa00d321a80006
:1020c4000080fa00000006000000fa00a00e800064
:1020d40088800a00000000000080fb0000f0a700d8
:1020e4000000ea000000ea004f00de000040780033
:1020f4000080fa00000006000000fa00d321a900c5
:102104000080fa00000006000000fa00a00e800023
:1021140099800a00000000000080fb0000f0a70086
:102124000000ea000000ea004f00de0000407800f2
:102134000080fa00000006000000fa00d301a800a5
:102144000080fa00000006000000fa00d301a90094
:102154000080fa00000006000200fa0030002000af
:10216400000f7800a10e80000000280000806000ad
:102174000000e0000300320040002000000f78005f
:1021840016003700a00e8000dc800a00000000006a
:102194000080fb00e10f500007003200e20f500006
:1021a400080032000000e00009003a000000eb00e3
:1021b400000f78000900370020002000000f78008d
:1021c4000600370010002000000f780003003700dd
:1021d40030002000000f7800000000001e0078008e
:1021e4000080fa00000006000600fa0010079800bc
:1021f400210798000000eb00000f78000f00370063
:10220400d10f800000102000008060000000e0007a
:102214000e003a00f10f80001e00900001087800c3
:102224001e0090000080e800100798002e00900027
:102234000000e900200798001e0fe8002e0090001f
:102244000000e000eeff3a0001003700000000004b
:102254001e0078000080fa00000006000600fa0064
:1022640010079800210798000000eb00000f780089
:102274000e003700d00f8000620060000000e00014
:102284000e003a001e00900010007800e00f880055
:102294001e0090000080e800100798002e009000b7
:1022a4000000e900200798001e0fe8002e009000af
:1022b4000000e000efff3a000100370000000000da
:1022c4001e0078000080fa00000006000000fa00fa
:1022d400062eef00222eef003e2eef005a2eef00c6
:1022e400762eef00f0012000107088000080eb00d3
:1022f400f0708800f0ff2300d07188000080eb00ac
:10230400b0728800c0ff2f00907388000c2eef007d
:10231400282eef00442eef00602eef007c2eef00fd
:102324000a2eef00262eef00422eef005e2eef0065
:102334007a2eef00082eef00242eef00402eef003f
:102344005c2eef00782eef00f00120000070880072
:10235400d0392000e0708800f00c2000c0718800a3
:1023640000c02700a0728800000420008073880049
:102374000000eb0051052000b1468800a10a2000ae
:10238400b146880000688800f16c8000f00f2c00d2
:10239400808060000030220001007000f06c880032
:1023a400f16c800000fc2f0080806000200220007f
:1023b40001007000f06c88000080200051052000ae
:1023c400b1468800a10a2000b14688000068880050
:1023d4000080fa00000006000000fa00100023004c
:1023e400307c880060092000407c880010042000b4
:1023f400507c880010102800000e0000ba00000075
:102404001f000000707c8800d0072000807c8800ba
:1024140010022000907c8800b82fef00ba2fef0044
:10242400be2fef00002def00a42fef00a62fef002a
:10243400aa2fef00ae2fef00b02fef00b22fef0066
:102444007200200080072000a109200053f820001a
:102454008049780081497800824978000001eb00c6
:10246400600420007105200043f8200080497800b2
:1024740081497800824978000080fa000000060053
:102484000000fa00707c8000ee800a00000000006a
:102494000080fb0000f0a7000000ea000000ea0052
:1024a4004f00de00004078000080fa0000000600c3
:1024b4000000fa00c1e0a8000080fa000000060055
:1024c4000000fa000088200000068800c220ef0007
:1024d4001000200020068800c820ef00ca20ef006a
:1024e4000f88a9002f88a800f1ff07000080fa00d8
:1024f400000006000000fa000080fa000000060058
:102504000000fa000080fa00000006000000fa0053
:10251400b0408000620060000000e0000200320071
:10252400f7ff07001628a9000080fa000000060043
:102534000000fa000006800066800a000000000027
:102544000080fb0000f0a7000000ea000000ea00a1
:102554004f00de00004078000080fa000000060012
:102564000200fa00000f780021028000200f2000f2
:10257400008060001e007000200288000080fa00c5
:10258400000006000000fa00c3e8a80000000000f4
:10259400000000000080fa00000006000600fa00b7
:1025a40080c32900000f780000af200010079800b6
:1025b4000000eb002007980047ff070089ff070091
:1025c4000b000700bbfe0700bdff07002e019000b3
:1025d4009e0090001e00780090fd0700e9ff0700b0
:1025e40000022000deff07000080fa000000060061
:1025f4000000fa00f143800080ff2f00008060009b
:102604000000a000f0438800b1438000f08f2f0049
:10261400008060000080a000b0438800b1438000c7
:10262400f0ff28000080600000c0a000b0438800d4
:1026340061438000f0ff28000080600000c0a0001b
:102644006043880071438000f0f82f000080600030
:102654000040a000704388000080fa0000000600db
:10266400f03fb1000180b10006003500ee0309001f
:1026740000000000403fb1000180b100fbff3d00bd
:102684001000b000203fb0000200350000800900b7
:1026940000000000000006000200fa00000f7800ad
:1026a4009e00780001808800ffff37000000fa00d8
:1026b4002000210080077800a0012100000188008b
:1026c4000080fa0000000600021000002000000054
:1026d40080000000001000000200000082000000e2
:1026e400ffff0000000000000000fe0000000000ea
:0426f40000000000e2
:020000040000fa
:1026f8000000fa00d221ef0000082800d00f88005f
:1027080007000700020007000080fa00000006002a
:102718000000fa00dcf707000080fa00000006005d
:102728000000fa0020452800012020000001be001a
:102738008000eb0010002000adf707000080fa00d1
:10274800000006000000fa00d321a8000080fa006b
:10275800000006000000fa00a00e800088800a0031
:10276800000000000080fb0000f0a7000000ea0065
:102778000000ea004f00de00004078000080fa0008
:10278800000006000000fa00d321a9000080fa002a
:10279800000006000000fa00a00e800099800a00e0
:1027a800000000000080fb0000f0a7000000ea0025
:1027b8000000ea004f00de00004078000080fa00c8
:1027c800000006000000fa00d301a8000080fa000b
:1027d800000006000000fa00d301a9000080fa00fa
:1027e800000006000200fa00a10e8000000024008c
:1027f800008060000000e000030032000000eb00f1
:10280800000f78000200370010002000000f780049
:102818001e0078000080fa00000006000200fa009e
:10282800000f78001e0078000000e00003003a0066
:10283800d5c1a90000000000010037000000000019
:102848000080fa00000006000200fa0040002000a4
:10285800000f7800a10e80000000240000806000b6
:102868000000e0000300320050002000000f780054
:1028780016003700a00e8000dc800a00000000006f
:102888000080fb00e10f500007003200e20f50000b
:10289800080032000000e00009003a000000eb00e8
:1028a800000f78000900370030002000000f780082
:1028b8000600370020002000000f780003003700d2
:1028c80040002000000f7800000000001e00780083
:1028d8000080fa00000006000600fa0010079800c1
:1028e800210798000000eb00000f78000e00370069
:1028f800d00f8000610060000000e0000e003a0088
:10290800e10f80001e009000010878001e00900072
:102918000080e800100798002e0090000000e900f1
:10292800200798001e0fe8002e0090000000e0002d
:10293800efff3a0001003700000000001e00780099
:102948000080fa00000006000600fa001007980050
:10295800210798000000eb00000f78000f003700f7
:10296800d10f800000202000008060000000e000ff
:102978000e003a001e00900010007800f00f88004a
:102988001e0090000080e800100798002e009000bc
:102998000000e900200798001e0fe8002e009000b4
:1029a8000000e000eeff3a000100370000000000e0
:1029b8001e0078000080fa00000006000000fa00ff
:1029c800007c80000080fa00000006000200fa0087
:1029d800faff0700000f78001e00780024000700a7
:1029e8000004e00002003200000028007100070027
:1029f8001e0078002a0007000004e00002003200f0
:102a0800000024006b0007001e0078003200070059
:102a18000004e000020032000020200065000700ea
:102a28001e0078003a0007000004e00002003200af
:102a3800000820005f0007001e0078004200070021
:102a48000004e000020032000004200059000700e2
:102a58001e0078004a0007000004e000020032006f
:102a680000012000530007000080fa000000060063
:102a78000400fa00100798000040eb00004f7800af
:102a88001e0090000000e00002003d0010c0b300ee
:102a9800004f78001e4078000080fa000000060011
:102aa8000400fa00100798000040eb00004f78007f
:102ab8009e00900000002400008060000000e000fc
:102ac8000200320010c0b300004f78001e407800aa
:102ad8000080fa00000006000400fa0010079800c1
:102ae8000040eb00004f78009e009000002020007e
:102af800008060000000e0000200320010c0b30057
:102b0800004f78001e4078000080fa0000000600a0
:102b18000400fa00100798000040eb00004f78000e
:102b28009e00900000082000008060000000e00087
:102b38000200320010c0b300004f78001e40780039
:102b48000080fa00000006000400fa001007980050
:102b58000040eb00004f78009e0090000004200029
:102b6800008060000000e0000200320010c0b300e6
:102b7800004f78001e4078000080fa000000060030
:102b88000400fa00100798000040eb00004f78009e
:102b98001e009000700060000000e000020032009b
:102ba80010c0b300004f78001e4078000080fa0083
:102bb800000006000200fa00000f78009e80ea007c
:102bc800007c800000806000007c88000080fa00a3
:102bd800000006000000fa00802fef000080fa00d5
:102be800000006000000fa0010002300307c880076
:102bf80060092000407c88008c2fef001004200022
:102c0800507c880010102800707c8800d0072000b5
:102c1800807c880010022000907c88009a2fef00aa
:102c2800b82fef00ba2fef00be2fef00002def00f6
:102c3800a42fef00a62fef00a82fef00aa2fef0078
:102c4800ae2fef00b02fef00b22fef007200200080
:102c580080072000a109200053f82000804978004f
:102c680081497800824978000001eb006004200067
:102c78007105200043f820008049780081497800d8
:102c8800824978000080fa00000006000000fa007f
:102c9800707c8000ee800a00000000000080fb00cd
:102ca80000f0a7000000ea000000ea004f00de0084
:102cb800004078000080fa00000006000000fa00da
:102cc800062eef00222eef003e2eef005a2eef00c8
:102cd800762eef00022eef0000302000f070880002
:102ce8003a2eef00562eef00722eef000c2eef005a
:102cf800282eef00442eef00602eef007c2eef0010
:102d08000a2eef00262eef00422eef005e2eef0077
:102d18007a2eef00082eef00242eef00402eef0051
:102d28005c2eef00782eef00002eef001c2eef0037
:102d3800382eef00542eef00000420008073880026
:102d48000080fa00000006000200fa00000f780078
:102d580021028000200f2000008060001e0070000b
:102d6800200288000080fa00000006000000fa0037
:102d7800c3e8a80000000000000000000080fa007e
:102d8800000006000000fa00ccff070095ff0700ce
:102d98001a00070056fe0700f4ff07000002200093
:102da800e9ff07000080fa00000006000200fa00b0
:102db800000f78009e00780001808800ffff370030
:102dc8000000fa002000210080077800a0012100ff
:0c2dd800000188000080fa0000000600e6
:020000040000fa
:102de400021000002000000080000000001000001d
:102df4000200000082000000ffff0000000000004d
:020000040000fa
:102e04000000fa000080fa00000006000000fa004a
:082e1400ddff0700ffff37009e
:020000040000fa
:02000004000af0
:04fe0000ffff000000
:020000040000fa
:02000004000af0
:04fe2000ffffff00e1
:020000040000fa
:02000004000af0
:04fe30007fffff0051
:020000040000fa
:02000004000af0
:04fe3800bbffff000d
:020000040000fa
:02000004000af0
:04fe40006003ff005c
:020000040000fa
:02000004000af0
:04fe4800ffffff00b9
:020000040000fa
:02000004000af0
:04fe5000dfffff00d1
:020000040000fa
:02000004000af0
:04fe58000000ff00a7
:020000040000fa
:02000004000af0
:04fe60000000ff009f
:020000040000fa
:02000004000af0
:04fe68000000ff0097
:020000040000fa
:02000004000af0
:04fe70000000ff008f
:020000040000fa
:02000004000af0
:04fe7800ffffff0089
:020000040000fa
:02000004000af0
:04fe8000fffcff0084
:020000040000fa
:02000004000af0
:04fe8800ffffff0079
:020000040000fa
:02000004000af0
:04fe9000ffffff0071
:020000040000fa
:02000004000af0
:04fe9800ffffff0069
:020000040000fa
:02000004000af0
:04fea000ffffff0061
:020000040000fa
:02000004000af0
:04fea800ffffff0059
:020000040000fa
:02000004000af0
:04feb000e0ffff0070
:020000040000fa
:02000004000af0
:04fec0000003ff003c
:020000040000fa
:02000004000af0
:04fed0000000ff002f
:020000040000fa
:02000004000af0
:04fee0000000ff001f
:020000040000fa
:02000004000af0
:04fef0000000ff000f
:020000040000fa
:02000004000af0
:04ff0000ffffff0000
:020000040000fa
:02000004000af0
:04ff0800bbffff003c
:020000040000fa
:02000004000af0
:04ff1000f453ff00a7
:020000040000fa
:02000004000af0
:04ff1800ffffff00e8
:020000040000fa
:02000004000af0
:04ff2000ffffff00e0
:020000040000fa
:02000004000af0
:04ff2800ffffff00d8
:020000040000fa
:02000004000af0
:04ff3000ffffff00d0
:020000040000fa
:02000004000af0
:04ff38000000ff00c6
:020000040000fa
:02000004000af0
:04ff40000000ff00be
:020000040000fa
:02000004000af0
:04ff48000000ff00b6
:020000040000fa
:02000004000af0
:04ff50000000ff00ae
:020000040000fa
:02000004000af0
:04ff5800ffffff00a8
:020000040000fa
:02000004000af0
:04fff800ffffff0008
:020000040000fa
:020000040100f9
:04300000ffffff00cf
:00000001FF
