:020000040000fa
:080000000002040000000000f2
:020000040000fa
:040008000a030000e7
:020000040000fa
:04000c004c030000a1
:020000040000fa
:040010008c0300005d
:020000040000fa
:040014002a030000bb
:020000040000fa
:040018006c03000075
:020000040000fa
:04001c00aa04000032
:020000040000fa
:04002000ac0300002d
:020000040000fa
:04002400aa0400002a
:020000040000fa
:04002800aa04000026
:020000040000fa
:04002c00aa04000022
:020000040000fa
:04003000aa0400001e
:020000040000fa
:04003400aa0400001a
:020000040000fa
:04003800aa04000016
:020000040000fa
:04003c00aa04000012
:020000040000fa
:04004000aa0400000e
:020000040000fa
:04004400aa0400000a
:020000040000fa
:04004800aa04000006
:020000040000fa
:04004c00aa04000002
:020000040000fa
:04005000aa040000fe
:020000040000fa
:04005400aa040000fa
:020000040000fa
:04005800aa040000f6
:020000040000fa
:04005c00aa040000f2
:020000040000fa
:04006000aa040000ee
:020000040000fa
:04006400aa040000ea
:020000040000fa
:04006800aa040000e6
:020000040000fa
:04006c00aa040000e2
:020000040000fa
:04007000aa040000de
:020000040000fa
:04007400aa040000da
:020000040000fa
:04007800aa040000d6
:020000040000fa
:04007c00aa040000d2
:020000040000fa
:04008000aa040000ce
:020000040000fa
:04008400aa040000ca
:020000040000fa
:04008800aa040000c6
:020000040000fa
:04008c00aa040000c2
:020000040000fa
:04009000aa040000be
:020000040000fa
:04009400aa040000ba
:020000040000fa
:04009800aa040000b6
:020000040000fa
:04009c00aa040000b2
:020000040000fa
:0400a000aa040000ae
:020000040000fa
:0400a400aa040000aa
:020000040000fa
:0400a800aa040000a6
:020000040000fa
:0400ac00aa040000a2
:020000040000fa
:0400b000aa0400009e
:020000040000fa
:0400b400aa0400009a
:020000040000fa
:0400b800aa04000096
:020000040000fa
:0400bc00aa04000092
:020000040000fa
:0400c000aa0400008e
:020000040000fa
:0400c400aa0400008a
:020000040000fa
:0400c800aa04000086
:020000040000fa
:0400cc00aa04000082
:020000040000fa
:0400d000aa0400007e
:020000040000fa
:0400d400aa0400007a
:020000040000fa
:0400d800aa04000076
:020000040000fa
:0400dc00aa04000072
:020000040000fa
:0400e000aa0400006e
:020000040000fa
:0400e400aa0400006a
:020000040000fa
:0400e800aa04000066
:020000040000fa
:0400ec00aa04000062
:020000040000fa
:0400f000aa0400005e
:020000040000fa
:0400f400aa0400005a
:020000040000fa
:0400f800aa04000056
:020000040000fa
:0400fc00aa04000052
:020000040000fa
:04010000aa0400004d
:020000040000fa
:04010400aa04000049
:020000040000fa
:04010800aa04000045
:020000040000fa
:04010c00aa04000041
:020000040000fa
:04011000aa0400003d
:020000040000fa
:04011400aa04000039
:020000040000fa
:04011800aa04000035
:020000040000fa
:04011c00aa04000031
:020000040000fa
:04012000aa0400002d
:020000040000fa
:04012400aa04000029
:020000040000fa
:04012800aa04000025
:020000040000fa
:04012c00aa04000021
:020000040000fa
:04013000aa0400001d
:020000040000fa
:04013400aa04000019
:020000040000fa
:04013800aa04000015
:020000040000fa
:04013c00aa04000011
:020000040000fa
:04014000aa0400000d
:020000040000fa
:04014400aa04000009
:020000040000fa
:04014800aa04000005
:020000040000fa
:04014c00aa04000001
:020000040000fa
:04015000aa040000fd
:020000040000fa
:04015400aa040000f9
:020000040000fa
:04015800aa040000f5
:020000040000fa
:04015c00aa040000f1
:020000040000fa
:04016000aa040000ed
:020000040000fa
:04016400aa040000e9
:020000040000fa
:04016800aa040000e5
:020000040000fa
:04016c00aa040000e1
:020000040000fa
:04017000aa040000dd
:020000040000fa
:04017400aa040000d9
:020000040000fa
:04017800aa040000d5
:020000040000fa
:04017c00aa040000d1
:020000040000fa
:04018000aa040000cd
:020000040000fa
:04018400aa040000c9
:020000040000fa
:04018800aa040000c5
:020000040000fa
:04018c00aa040000c1
:020000040000fa
:04019000aa040000bd
:020000040000fa
:04019400aa040000b9
:020000040000fa
:04019800aa040000b5
:020000040000fa
:04019c00f603000066
:020000040000fa
:0401a000aa040000ad
:020000040000fa
:0401a400aa040000a9
:020000040000fa
:0401a800aa040000a5
:020000040000fa
:0401ac00aa040000a1
:020000040000fa
:0401b000aa0400009d
:020000040000fa
:0401b400aa04000099
:020000040000fa
:0401b800aa04000095
:020000040000fa
:0401bc00aa04000091
:020000040000fa
:0401c000aa0400008d
:020000040000fa
:0401c400aa04000089
:020000040000fa
:0401c800aa04000085
:020000040000fa
:0401cc00aa04000081
:020000040000fa
:0401d000aa0400007d
:020000040000fa
:0401d400aa04000079
:020000040000fa
:0401d800aa04000075
:020000040000fa
:0401dc00aa04000071
:020000040000fa
:0401e00032040000e5
:020000040000fa
:0401e4006e040000a5
:020000040000fa
:0401e800aa04000065
:020000040000fa
:0401ec00aa04000061
:020000040000fa
:0401f000aa0400005d
:020000040000fa
:0401f400aa04000059
:020000040000fa
:0401f800aa04000055
:020000040000fa
:0401fc00aa04000051
:020000040000fa
:04020000aa0400004c
:020000040000fa
:04020400aa04000048
:020000040000fa
:04020800aa04000044
:020000040000fa
:04020c00aa04000040
:020000040000fa
:04021000aa0400003c
:020000040000fa
:04021400aa04000038
:020000040000fa
:04021800aa04000034
:020000040000fa
:04021c00aa04000030
:020000040000fa
:04022000aa0400002c
:020000040000fa
:04022400aa04000028
:020000040000fa
:04022800aa04000024
:020000040000fa
:04022c00aa04000020
:020000040000fa
:04023000aa0400001c
:020000040000fa
:04023400aa04000018
:020000040000fa
:04023800aa04000014
:020000040000fa
:04023c00aa04000010
:020000040000fa
:04024000aa0400000c
:020000040000fa
:04024400aa04000008
:020000040000fa
:04024800aa04000004
:020000040000fa
:04024c00aa04000000
:020000040000fa
:04025000aa040000fc
:020000040000fa
:04025400aa040000f8
:020000040000fa
:04025800aa040000f4
:020000040000fa
:04025c00aa040000f0
:020000040000fa
:04026000aa040000ec
:020000040000fa
:04026400aa040000e8
:020000040000fa
:04026800aa040000e4
:020000040000fa
:04026c00aa040000e0
:020000040000fa
:04027000aa040000dc
:020000040000fa
:04027400aa040000d8
:020000040000fa
:04027800aa040000d4
:020000040000fa
:04027c00aa040000d0
:020000040000fa
:04028000aa040000cc
:020000040000fa
:04028400aa040000c8
:020000040000fa
:04028800aa040000c4
:020000040000fa
:04028c00aa040000c0
:020000040000fa
:04029000aa040000bc
:020000040000fa
:04029400aa040000b8
:020000040000fa
:04029800aa040000b4
:020000040000fa
:04029c00aa040000b0
:020000040000fa
:0402a000aa040000ac
:020000040000fa
:0402a400aa040000a8
:020000040000fa
:0402a800aa040000a4
:020000040000fa
:0402ac00aa040000a0
:020000040000fa
:0402b000aa0400009c
:020000040000fa
:0402b400aa04000098
:020000040000fa
:0402b800aa04000094
:020000040000fa
:0402bc00aa04000090
:020000040000fa
:0402c000aa0400008c
:020000040000fa
:0402c400aa04000088
:020000040000fa
:0402c800aa04000084
:020000040000fa
:0402cc00aa04000080
:020000040000fa
:0402d000aa0400007c
:020000040000fa
:0402d400aa04000078
:020000040000fa
:0402d800aa04000074
:020000040000fa
:0402dc00aa04000070
:020000040000fa
:0402e000aa0400006c
:020000040000fa
:0402e400aa04000068
:020000040000fa
:0402e800aa04000064
:020000040000fa
:0402ec00aa04000060
:020000040000fa
:0402f000aa0400005c
:020000040000fa
:0402f400aa04000058
:020000040000fa
:0402f800aa04000054
:020000040000fa
:0402fc00aa04000050
:020000040000fa
:04030000aa0400004b
:020000040000fa
:04030400aa04000047
:020000040000fa
:04030800aa04000043
:020000040000fa
:04030c00aa0400003f
:020000040000fa
:04031000aa0400003b
:020000040000fa
:04031400aa04000037
:020000040000fa
:04031800aa04000033
:020000040000fa
:04031c00aa0400002f
:020000040000fa
:10040000af0221000eff24000e0188000000000052
:10041000000020000000e000020032000001200087
:1004200020028800140007004c0107000000e000d3
:1004300003003a0020d7200001002000020037000e
:100440000000200001002000810f70000100320038
:100450000f000700000020000000e0000200320052
:100460000000020000000000180b02000000000065
:100470000040da000000fe00200020000000e00044
:1004800002003200100020009001880000000600e9
:10049000a1028800800478000000eb001f003700f4
:1004a000e284440054a0b4009905ba00e2844400f8
:1004b00054a0b4009906ba00e284440054a0b400e9
:1004c0000006eb00476fde00fd07b200ae018800ba
:1004d000636ce10003003a000ad801000000eb0061
:1004e0000e003700606ce10008003a00004deb00a0
:1004f0000a05e800020039003420ec000af0a000f0
:100500008b05e900f9ff3e00040037006168e10057
:10051000010032000086eb000b00070019c7ba008b
:100520001905ba000e04e00003003a000a00e000da
:10053000dbff3a0000000600fe07b200ae028800b2
:100540008a047800f5ff37000cd0a300e20f4d00bd
:100550001c00390089027800354dba000a05e80010
:10056000020039003420ec000af0a0008b05e900fd
:100570000f003200254dba000a05e80002003900dc
:100580003420ec000af0a0008b05e90008003200de
:100590000c00e0000600320015cdba000a05e800a4
:1005a000020039003420ec000af0a0008b05e900bd
:1005b0008984e80054a0b4000b00e000e2ff3a0098
:1005c000000006009902ba00055d78008b05e9007d
:1005d000f7ff3200c82ade00055d78008b05e900d0
:1005e000f3ff32000c00e000f1ff320019ddba0029
:1005f000eeff3700000000000000000000000000d7
:1006000000000000000000000000000000000000ea
:10061000000000003600f800809fbe00829fbe00f0
:10062000849fbe00869fbe000000fa00c028a9007b
:100630000000eb001f0507000080fa004f03be001a
:100640004f02be004f01be004f00be003600f90051
:10065000004006003600f800809fbe00829fbe006a
:10066000849fbe00869fbe000000fa0016050700aa
:10067000c048a900100020000e0507000080fa0005
:100680004f03be004f02be004f01be004f00be0030
:100690003600f900004006003600f800809fbe00da
:1006a000829fbe00849fbe00869fbe000000fa00ad
:1006b000c068a90020002000fe0407000080fa00a6
:1006c0004f03be004f02be004f01be004f00be00f0
:1006d0003600f900004006003600f800809fbe009a
:1006e000829fbe00849fbe00869fbe000000fa006d
:1006f000c088a90030002000ee0407000080fa0046
:100700004f03be004f02be004f01be004f00be00af
:100710003600f900004006003600f800809fbe0059
:10072000829fbe00849fbe00869fbe000000fa002c
:10073000c608a90070002000de0407000080fa004f
:100740004f03be004f02be004f01be004f00be006f
:100750003600f900004006003600f800809fbe0019
:10076000829fbe00849fbe00869fbe000000fa00ec
:100770002146800000102000008060000000e000a2
:1007800003003200c508a900c0002000c90407000a
:100790002146800000022000008060000000e00090
:1007a00003003200c4a8a90090002000c104070083
:1007b00020468000700060000000e000030032006e
:1007c000c488a900a0002000ba04070020468000c9
:1007d000610060000000e00003003200c408a900ce
:1007e000b0002000b3040700ffff37003600f80018
:1007f000809fbe00829fbe00849fbe00869fbe0079
:100800003200f8003400f80010002000a001880039
:100810001000200000d0fe000200fa00816080007d
:10082000010f7800108080000000e000030032001b
:10083000118080001e007800010001000ba8a900b3
:100840000080fa003400f9003200f9004f03be00c6
:100850004f02be004f01be004f00be003600f9003f
:10086000004006003600f800809fbe00829fbe0058
:10087000849fbe00869fbe003200f8003400f8005e
:1008800010002000a00188001000200000d0fe0011
:100890000200fa0091618000010f78002080800042
:1008a0000000e00003003200218080001e0078007c
:1008b000010001000dc8a9000080fa003400f90011
:1008c0003200f9004f03be004f02be004f01be00d0
:1008d0004f00be003600f900004006003600f80068
:1008e000809fbe00829fbe00849fbe00869fbe0088
:1008f0003200f8003400f80010002000a001880049
:100900001000200000d0fe000200fa00a16180006b
:10091000010f7800308080000000e000030032000a
:10092000318080001e007800010001000de8a90060
:100930000080fa003400f9003200f9004f03be00d5
:100940004f02be004f01be004f00be003600f9004e
:10095000004006000040da000000fe000000050034
:020000040000fa
:100960000000fa00002bef0000062000105888005d
:10097000042bef00062bef00082bef000a2bef00f3
:100980000c2bef000e2bef00102bef00122bef00c3
:10099000142bef0040002000005988008001200047
:1009a00010598800382bef00402bef00482bef0048
:1009b000502bef003a2bef00422bef004a2bef00b9
:1009c000522bef003c2bef00442bef004c2bef00a1
:1009d000542bef003e2bef00462bef004e2bef0089
:1009e000562bef0000402000505b880000402000a4
:1009f000705b880000402000905b88000040200071
:100a0000b05b8800a02bef00a42bef00a82bef0019
:100a1000ac2bef00d02bef00d22bef00d42bef004c
:100a2000d82bef0000302000b05e8800003020009e
:100a3000d05e8800f02bef00f22bef00022cef00cd
:100a4000c05a200047000700a05d20005d0007009d
:100a5000e05e200065000700206020006d000700b8
:100a60000ba8a9002ba8a8000dc8a9002dc8a80094
:100a70000de8a9002de8a8001160800000f020001a
:100a8000010070001060880001eba800270007003b
:100a9000d0012000005c880010002000105c88005d
:100aa000842bef00862bef00882bef008a2bef00c2
:100ab0008c2bef008e2bef00902bef00001020000e
:100ac000905c880010002000a05c88000080fa0084
:100ad000000006000000fa00000ca8000000000062
:100ae0000160800000102000008060000000e00035
:100af000fbff32000a0ba8000080fa00000006008d
:100b00000000fa00002ca800000000000160800036
:100b100000202000008060000000e000fbff3200a9
:100b20000a2ba8000080fa00000006000000fa006e
:100b300000eca80000000000016080000000280018
:100b4000008060000000e000fbff32000aeba8001c
:100b50000080fa00000006000000fa000080fa00a1
:100b6000000006000200fa00000f78001e00780066
:100b7000008088000080fa00000006000000fa00f3
:100b80005140800000402000008060000000e00034
:100b900006003200008080000000e0000200320009
:100ba00000808000000001000b48a9000080fa00ce
:100bb000000006000200fa00000f78000080fa0032
:100bc000000006000200fa00000f78001e00780006
:100bd000108088000080fa00000006000200fa0081
:100be000000f78000080fa00000006000200fa0002
:100bf000000f78001e007800208088000080fa0036
:100c0000000006000200fa00000f78000080fa00e1
:100c1000000006000200fa00000f78001e007800b5
:100c2000308088000080fa00000006000600fa000c
:100c3000000f78001107980022079800cc23ef00de
:100c400030002000001888000223ef000423ef008a
:100c50000623ef000823ef00000120005018880051
:100c60000c23ef000e23ef001023ef001223ef0000
:100c70001423ef001623ef001823ef001a23ef00d0
:100c80001c23ef001e23ef002023ef002223ef00a0
:100c90002423ef002623ef002823ef00ce23ef00cc
:100ca000d023ef00d223ef002e009000a01e88007a
:100cb000d623ef00d823ef00da23ef00dc23ef0088
:100cc000de23ef00e023ef00e223ef00e423ef0058
:100cd000e623ef00e823ef00ea23ef00ec23ef0028
:100ce000ee23ef00f223ef001e009000801f88002b
:100cf0001e007800a01f8800f623ef00f823ef0005
:100d0000fa23ef00fc23ef00fe23ef0000000000b9
:100d1000f20207000004a2000004e000fcff3a0019
:100d200080082800601e88000080fa00000006008d
:100d30000000fa000080fa00000006000000fa003f
:100d40004140800000042000008060000000e000be
:100d500002003200f6ff070008c8a9000080fa0070
:100d6000000006000000fa000080fa000000060003
:100d70000000fa00a14080000020200000806000f8
:100d80000000e00002003200f6ff07001528a9006d
:100d90000080fa00000006000000fa000080fa005f
:100da000000006000000fa00a14080000040200082
:100db000008060000000e00002003200f6ff070043
:100dc0001548a9000080fa00000006000000fa00a3
:100dd0000080fa00000006000000fa00a140800038
:100de00000802000008060000000e000020032006f
:100df000f6ff07001568a9000080fa000000060051
:100e00000000fa000080fa00000006000000fa006e
:100e1000a140800000002100008060000000e00090
:100e200002003200f6ff07001588a9000080fa00d2
:100e3000000006000000fa000080fa000000060032
:100e40000000fa00a1408000000022000080600045
:100e50000000e00002003200f6ff070015a8a9001c
:100e60000080fa00000006000000fa000080fa008e
:100e7000000006000000fa00a140800000002400ed
:100e8000008060000000e00002003200f6ff070072
:100e900015c8a9000080fa00000006000000fa0052
:100ea0002100070000082000006488005005200091
:100eb00020648800a0082000306488008a2cef009d
:100ec0000030280040648800922cef00902cef0046
:100ed000942cef008c2cef008e2cef000e000700fe
:100ee0000080fa00000006000000fa004064800064
:100ef00077800a00000000000080fb0000f0a700df
:100f00000000ea000000ea004f00de000040780028
:100f10000080fa00000006000000fa0081eca80042
:100f20000080fa00000006000000fa0081eca90031
:100f30000080fa00000006000200fa00000f7800ae
:100f40001e00780000407800674060000080fb00d1
:100f5000670060004300dd004264800071fc2f00e8
:100f60008100610001007000406488000080fa0088
:100f7000000006000200fa00000f78009e007800d2
:100f8000716488000080fa00000006000200fa0088
:100f9000000f78009e007800616488000080fa00ed
:100fa000000006000000fa00892ca8000080fa006a
:100fb000000006000000fa00892ca9000080fa0059
:100fc000000006000200fa00000f78001e00780002
:100fd000004078006f4060000080fb006f00600000
:100fe0008264800001ff2f00810061000100700019
:100ff000806488000080fa00000006000200fa0009
:10100000000f78001e007800004078006f406000fc
:101010000080fb006f0060004800dd0082648000fb
:10102000f10f2f00810061000100700080648800d2
:101030000080fa00000006000200fa00000f7800ad
:101040001e007800004078006f4060000080fb00c8
:101050006f0060004400dd0082648000f1f02f002a
:101060008100610001007000806488000080fa0047
:10107000000006000200fa00000f78001e00780051
:10108000004078006f4060000080fb004c00dd00f5
:1010900082648000f1ff2000810061000100700087
:1010a000806488000080fa00000006000000fa005a
:1010b0000080fa00000006000000fa0041408000b5
:1010c00000002400008060000000e0000200320008
:1010d000f6ff070009c8a9000080fa00000006001a
:1010e0000000fa00007c80000080fa00000006008a
:1010f0000200fa00faff0700000f78001e007800d7
:10110000240007000004e000020032000000280074
:10111000710007001e0078002a0007000004e000ac
:1011200002003200000024006b0007001e0078005f
:10113000320007000004e00002003200002020001e
:10114000650007001e0078003a0007000004e00078
:1011500002003200000820005f0007001e00780037
:10116000420007000004e0000200320000042000fa
:10117000590007001e0078004a0007000004e00044
:101180000200320000012000530007000080fa0036
:10119000000006000400fa00100798000040eb0071
:1011a000004f78001e0090000000e00002003d00ab
:1011b00010c0b300004f78001e4078000080fa0095
:1011c000000006000400fa00100798000040eb0041
:1011d000004f78009e009000000024000080600016
:1011e0000000e0000200320010c0b300004f7800a1
:1011f0001e4078000080fa00000006000400fa009b
:10120000100798000040eb00004f78009e0090000f
:1012100000202000008060000000e000020032009a
:1012200010c0b300004f78001e4078000080fa0024
:10123000000006000400fa00100798000040eb00d0
:10124000004f78009e0090000008200000806000a1
:101250000000e0000200320010c0b300004f780030
:101260001e4078000080fa00000006000400fa002a
:10127000100798000040eb00004f78009e0090009f
:1012800000042000008060000000e0000200320046
:1012900010c0b300004f78001e4078000080fa00b4
:1012a000000006000400fa00100798000040eb0060
:1012b000004f78001e009000700060000000e00009
:1012c0000200320010c0b300004f78001e407800ca
:1012d0000080fa00000006000200fa00000f78000b
:1012e0009e80ea00007c800000806000007c880016
:1012f0000080fa00000006000000fa00802fef00d6
:101300000080fa00000006000000fa00d221ef0081
:101310000080fa00000006000000fa00d321a800b7
:101320000080fa00000006000000fa00a00e800015
:1013300088800a00000000000080fb0000f0a70089
:101340000000ea000000ea004f00de0000407800e4
:101350000080fa00000006000000fa00d321a90076
:101360000080fa00000006000000fa00a00e8000d5
:1013700099800a00000000000080fb0000f0a70038
:101380000000ea000000ea004f00de0000407800a4
:101390000080fa00000006000000fa00d301a80057
:1013a0000080fa00000006000000fa00d301a90046
:1013b0000080fa00000006000200fa003000200061
:1013c000000f7800a10e800000002800008060005f
:1013d0000000e0000300320040002000000f780011
:1013e00016003700a00e8000dc800a00000000001c
:1013f0000080fb00e10f500007003200e20f5000b8
:10140000080032000000e00009003a000000eb0094
:10141000000f78000900370020002000000f78003e
:101420000600370010002000000f7800030037008e
:1014300030002000000f7800000000001e0078003f
:101440000080fa00000006000600fa00100798006d
:10145000210798000000eb00000f78000f00370014
:10146000d10f800000102000008060000000e0002c
:101470000e003a00f10f80001e0090000108780075
:101480001e0090000080e800100798002e009000d9
:101490000000e900200798001e0fe8002e009000d1
:1014a0000000e000eeff3a000100370000000000fd
:1014b0001e0078000080fa00000006000600fa0016
:1014c00010079800210798000000eb00000f78003b
:1014d0000e003700d00f8000620060000000e000c6
:1014e0000e003a001e00900010007800e00f880007
:1014f0001e0090000080e800100798002e00900069
:101500000000e900200798001e0fe8002e00900060
:101510000000e000efff3a0001003700000000008b
:101520001e0078000080fa00000006000400fa00a7
:10153000100798001e009000e10f500008003200d4
:10154000e10f500003003900e20f500007003200a5
:101550000900370081608000010f78000600370025
:1015600091618000010f780003003700a1618000c5
:10157000010f7800000000001e0078000080fa00d3
:10158000000006000400fa00100798001e009000fa
:10159000e10f50000f003200e10f5000030039004e
:1015a000e20f5000150032001e0037008059800005
:1015b00022800a00000000000080fb0000f0a7006d
:1015c0000000ea000000ea004f00de00004f780053
:1015d000140037009059800033800a00000000009a
:1015e0000080fb0000f0a7000000ea000000ea0015
:1015f0004f00de00004f78000a003700905980004d
:1016000044800a00000000000080fb0000f0a700fa
:101610000000ea000000ea004f00de00004f780002
:10162000000000001e4078000080fa000000060064
:101630001200fa00f60007000000eb001007980007
:101640000000eb00200798001000200030079800f1
:1016500080c329004007980040bf20005007980031
:10166000100020006007980010002000700798000c
:10167000760ea900762ea9007e009000c400dd0041
:101680002e0090004300dd00808040003e0090006e
:101690004200dd00808040006e0090004700dd00c9
:1016a00000804000000f98000e099000de009000be
:1016b0004e0090005dfd07001e009000b1ff070086
:1016c0000004e000030032001e00900097ff0700b6
:1016d000000f7800004020009e007800808f5000ae
:1016e00003003c00760ea800762ea800f2ff37001b
:1016f000008020009e007800808f500003003c0096
:10170000760ea900762ea800ebff370000c020005f
:101710009e007800808f500003003c00760ea800e9
:10172000762ea900e4ff3700760ea900762ea900d8
:10173000e1ff37000000fa00062eef00222eef0036
:101740003e2eef005a2eef00762eef00f001200023
:1017500010708800b0ff2f00f0708800f0ff2300a9
:10176000d07188000080eb00b0728800c0ff2f00ad
:10177000907388000c2eef00282eef00442eef000f
:10178000602eef007c2eef000a2eef00262eef00d9
:10179000422eef005e2eef007a2eef00082eef00b3
:1017a000242eef00402eef005c2eef00782eef008d
:1017b000f001200000708800d0392000e07088001f
:1017c000f00c2000c071880000c02700a0728800c3
:1017d00000042000807388000000eb005105200009
:1017e000b1468800a10a2000b14688000068880040
:1017f000f16c800000fc2f0080806000200220003f
:1018000001007000f06c8800f16c8000f00f2c007b
:10181000808060000030220001007000f06c8800c1
:101820000080200051052000b1468800a10a200058
:10183000b1468800006888000080fa0000000600b9
:101840000000fa0010002300307c880060092000ae
:10185000407c880010042000507c88001010280074
:10186000707c8800d0072000807c88001002200057
:10187000907c8800b82fef00ba2fef00be2fef004a
:10188000002def00a42fef00a62fef00aa2fef00ee
:10189000ae2fef00b02fef00b22fef00720020004c
:1018a00080072000a109200053f82000804978001b
:1018b00081497800824978000001eb006004200033
:1018c0007105200043f820008049780081497800a4
:1018d000824978000080fa00000006000000fa004b
:1018e000707c8000ee800a00000000000080fb0099
:1018f00000f0a7000000ea000000ea004f00de0050
:10190000004078000080fa00000006000000fa00a5
:10191000c1e0a8000080fa00000006000000fa0004
:10192000c020ef00c220ef00c420ef00c820ef006d
:10193000ca20ef00f5ff07000080fa000000060053
:101940000000fa000080fa00000006000000fa0023
:101950000080fa00000006000000fa0071408000dc
:1019600000002100008060000000e0000200320062
:10197000f3ff07000f88a9000080fa0000000600ae
:101980000000fa00b0408000620060000000e0004b
:1019900002003200edff07001628a9000080fa00bf
:1019a000000006000000fa000006800066800a00c1
:1019b000000000000080fb0000f0a7000000ea002b
:1019c0000000ea004f00de00004078000080fa00ce
:1019d000000006000200fa00000f780021028000db
:1019e000200f2000008060001e0070002002880090
:1019f0000080fa00000006000000fa00c3e8a8001a
:101a000000000000000000000080fa000000060056
:101a10000600fa0080c32900000f780000af200004
:101a2000100798000000eb002007980041ff070016
:101a300083ff07000d00070033fe0700b7ff070014
:101a4000c7fb070015fd07002e0190009e009000c7
:101a50001e00780075fc0700e7ff07000002200069
:101a6000dcff07000080fa00000006000000fa001a
:101a7000b1438000f08f2f00008060000080a00044
:101a8000b0438800b1438000f0ff28000080600070
:101a900000c0a000b043880071438000f0f82f0020
:101aa000008060000040a000704388000080fa00c1
:101ab000000006000200fa00000f78009e00780087
:101ac00041808800ffff37000000fa00a0002100dd
:101ad0008007780020022100000188000080fa00c1
:041ae00000000600fc
:020000040000fa
:101ae4000a10000020000000800000000810000020
:101af4000200000082000000ffff00000010000050
:0c1b04000800000080000000000000004d
:00000001FF
