:020000040000fa
:080000000002040000000000f2
:020000040000fa
:040008007c03000075
:020000040000fa
:04000c00be0300002f
:020000040000fa
:04001000fe030000eb
:020000040000fa
:040014009c03000049
:020000040000fa
:04001800de03000003
:020000040000fa
:04001c009405000047
:020000040000fa
:040020001e040000ba
:020000040000fa
:04002400940500003f
:020000040000fa
:04002800940500003b
:020000040000fa
:04002c009405000037
:020000040000fa
:040030009405000033
:020000040000fa
:04003400940500002f
:020000040000fa
:04003800940500002b
:020000040000fa
:04003c009405000027
:020000040000fa
:040040009405000023
:020000040000fa
:04004400940500001f
:020000040000fa
:04004800940500001b
:020000040000fa
:04004c009405000017
:020000040000fa
:040050009405000013
:020000040000fa
:04005400940500000f
:020000040000fa
:04005800940500000b
:020000040000fa
:04005c009405000007
:020000040000fa
:040060009405000003
:020000040000fa
:0400640094050000ff
:020000040000fa
:0400680094050000fb
:020000040000fa
:04006c0094050000f7
:020000040000fa
:0400700094050000f3
:020000040000fa
:0400740094050000ef
:020000040000fa
:0400780094050000eb
:020000040000fa
:04007c0094050000e7
:020000040000fa
:0400800094050000e3
:020000040000fa
:0400840094050000df
:020000040000fa
:0400880094050000db
:020000040000fa
:04008c0094050000d7
:020000040000fa
:0400900094050000d3
:020000040000fa
:0400940094050000cf
:020000040000fa
:0400980094050000cb
:020000040000fa
:04009c0094050000c7
:020000040000fa
:0400a00094050000c3
:020000040000fa
:0400a40094050000bf
:020000040000fa
:0400a80094050000bb
:020000040000fa
:0400ac0094050000b7
:020000040000fa
:0400b00094050000b3
:020000040000fa
:0400b40094050000af
:020000040000fa
:0400b80094050000ab
:020000040000fa
:0400bc0094050000a7
:020000040000fa
:0400c00094050000a3
:020000040000fa
:0400c400940500009f
:020000040000fa
:0400c800940500009b
:020000040000fa
:0400cc009405000097
:020000040000fa
:0400d0009405000093
:020000040000fa
:0400d400940500008f
:020000040000fa
:0400d800940500008b
:020000040000fa
:0400dc009405000087
:020000040000fa
:0400e0009405000083
:020000040000fa
:0400e400940500007f
:020000040000fa
:0400e800940500007b
:020000040000fa
:0400ec009405000077
:020000040000fa
:0400f0009405000073
:020000040000fa
:0400f400940500006f
:020000040000fa
:0400f800940500006b
:020000040000fa
:0400fc009405000067
:020000040000fa
:040100009405000062
:020000040000fa
:04010400940500005e
:020000040000fa
:04010800940500005a
:020000040000fa
:04010c009405000056
:020000040000fa
:040110009405000052
:020000040000fa
:04011400940500004e
:020000040000fa
:04011800940500004a
:020000040000fa
:04011c009405000046
:020000040000fa
:040120009405000042
:020000040000fa
:04012400940500003e
:020000040000fa
:04012800940500003a
:020000040000fa
:04012c009405000036
:020000040000fa
:040130009405000032
:020000040000fa
:04013400940500002e
:020000040000fa
:04013800940500002a
:020000040000fa
:04013c009405000026
:020000040000fa
:040140009405000022
:020000040000fa
:04014400940500001e
:020000040000fa
:04014800940500001a
:020000040000fa
:04014c009405000016
:020000040000fa
:040150009405000012
:020000040000fa
:04015400940500000e
:020000040000fa
:04015800940500000a
:020000040000fa
:04015c009405000006
:020000040000fa
:040160009405000002
:020000040000fa
:0401640094050000fe
:020000040000fa
:0401680094050000fa
:020000040000fa
:04016c0094050000f6
:020000040000fa
:0401700094050000f2
:020000040000fa
:0401740094050000ee
:020000040000fa
:0401780094050000ea
:020000040000fa
:04017c0094050000e6
:020000040000fa
:0401800094050000e2
:020000040000fa
:0401840094050000de
:020000040000fa
:0401880094050000da
:020000040000fa
:04018c0094050000d6
:020000040000fa
:0401900094050000d2
:020000040000fa
:0401940094050000ce
:020000040000fa
:0401980094050000ca
:020000040000fa
:04019c0094050000c6
:020000040000fa
:0401a00094050000c2
:020000040000fa
:0401a40094050000be
:020000040000fa
:0401a80094050000ba
:020000040000fa
:0401ac0094050000b6
:020000040000fa
:0401b00094050000b2
:020000040000fa
:0401b40094050000ae
:020000040000fa
:0401b80094050000aa
:020000040000fa
:0401bc0094050000a6
:020000040000fa
:0401c00094050000a2
:020000040000fa
:0401c400940500009e
:020000040000fa
:0401c800940500009a
:020000040000fa
:0401cc009405000096
:020000040000fa
:0401d0009405000092
:020000040000fa
:0401d40068040000bb
:020000040000fa
:0401d800a40400007b
:020000040000fa
:0401dc00e00400003b
:020000040000fa
:0401e0001c050000fa
:020000040000fa
:0401e40058050000ba
:020000040000fa
:0401e800940500007a
:020000040000fa
:0401ec009405000076
:020000040000fa
:0401f0009405000072
:020000040000fa
:0401f400940500006e
:020000040000fa
:0401f800940500006a
:020000040000fa
:0401fc009405000066
:020000040000fa
:040200009405000061
:020000040000fa
:04020400940500005d
:020000040000fa
:040208009405000059
:020000040000fa
:04020c009405000055
:020000040000fa
:040210009405000051
:020000040000fa
:04021400940500004d
:020000040000fa
:040218009405000049
:020000040000fa
:04021c009405000045
:020000040000fa
:040220009405000041
:020000040000fa
:04022400940500003d
:020000040000fa
:040228009405000039
:020000040000fa
:04022c009405000035
:020000040000fa
:040230009405000031
:020000040000fa
:04023400940500002d
:020000040000fa
:040238009405000029
:020000040000fa
:04023c009405000025
:020000040000fa
:040240009405000021
:020000040000fa
:04024400940500001d
:020000040000fa
:040248009405000019
:020000040000fa
:04024c009405000015
:020000040000fa
:040250009405000011
:020000040000fa
:04025400940500000d
:020000040000fa
:040258009405000009
:020000040000fa
:04025c009405000005
:020000040000fa
:040260009405000001
:020000040000fa
:0402640094050000fd
:020000040000fa
:0402680094050000f9
:020000040000fa
:04026c0094050000f5
:020000040000fa
:0402700094050000f1
:020000040000fa
:0402740094050000ed
:020000040000fa
:0402780094050000e9
:020000040000fa
:04027c0094050000e5
:020000040000fa
:0402800094050000e1
:020000040000fa
:0402840094050000dd
:020000040000fa
:0402880094050000d9
:020000040000fa
:04028c0094050000d5
:020000040000fa
:0402900094050000d1
:020000040000fa
:0402940094050000cd
:020000040000fa
:0402980094050000c9
:020000040000fa
:04029c0094050000c5
:020000040000fa
:0402a00094050000c1
:020000040000fa
:0402a40094050000bd
:020000040000fa
:0402a80094050000b9
:020000040000fa
:0402ac0094050000b5
:020000040000fa
:0402b00094050000b1
:020000040000fa
:0402b40094050000ad
:020000040000fa
:0402b80094050000a9
:020000040000fa
:0402bc0094050000a5
:020000040000fa
:0402c00094050000a1
:020000040000fa
:0402c400940500009d
:020000040000fa
:0402c8009405000099
:020000040000fa
:0402cc009405000095
:020000040000fa
:0402d0009405000091
:020000040000fa
:0402d400940500008d
:020000040000fa
:0402d8009405000089
:020000040000fa
:0402dc009405000085
:020000040000fa
:0402e0009405000081
:020000040000fa
:0402e400940500007d
:020000040000fa
:0402e8009405000079
:020000040000fa
:0402ec009405000075
:020000040000fa
:0402f0009405000071
:020000040000fa
:0402f400940500006d
:020000040000fa
:0402f8009405000069
:020000040000fa
:0402fc009405000065
:020000040000fa
:040300009405000060
:020000040000fa
:04030400940500005c
:020000040000fa
:040308009405000058
:020000040000fa
:04030c009405000054
:020000040000fa
:040310009405000050
:020000040000fa
:04031400940500004c
:020000040000fa
:040318009405000048
:020000040000fa
:04031c009405000044
:020000040000fa
:040320009405000040
:020000040000fa
:100400000f0321000eff27000e01880000002000ce
:100410000000e000020032000001200020028800fd
:1004200014000700c20107000000e00003003a00ca
:10043000c0f9200001002000020037000000200069
:1004400001002000810f70004220ae000f00070065
:10045000000020000000e0004220ae00000002008a
:1004600000000000800c0200000000000040da00e4
:100470000000fe00200020000000e000020032002a
:10048000100020009001880000000600a1028800f2
:10049000800478000000eb001f003700e284440075
:1004a00054a0b4009905ba00e284440054a0b400fa
:1004b0009906ba00e284440054a0b4000006eb00a0
:1004c000476fde00fd07b200ae018800636ce100fb
:1004d00003003a000ad801000000eb000e003700cc
:1004e000606ce10008003a00004deb000a05e800ee
:1004f000020039003420ec000af0a0008b05e9006e
:10050000f9ff3e00040037006168e100010032009d
:100510000086eb000b00070019c7ba001905ba00e6
:100520000e04e00003003a000a00e000dbff3a009e
:1005300000000600fe07b200ae0288008a047800c0
:10054000f5ff37000cd0a300e20f4d001c0039006e
:1005500089027800354dba000a05e800020039002a
:100560003420ec000af0a0008b05e9000f003200f7
:10057000254dba000a05e800020039003420ec00dd
:100580000af0a0008b05e900080032000c00e00032
:100590000600320015cdba000a05e8000200390055
:1005a0003420ec000af0a0008b05e9008984e80003
:1005b00054a0b4000b00e000e2ff3a000000060087
:1005c0009902ba00055d78008b05e900f7ff32005b
:1005d000c82ade00055d78008b05e900f3ff3200d4
:1005e0000c00e000f1ff320019ddba00eeff370029
:1005f00004082000010037000002eb006100e10068
:1006000001003200100005003200f8003400f8004c
:1006100081027800930188003200be000100e000f2
:100620000c0032000470a70000f0a0003203780034
:10063000c733de00848343004220af008703e80015
:10064000a7018800f607b2007f30e1000400320005
:10065000200020003400f9003200f90000000600fc
:100660008100e9000500e00003003a000180090074
:1006700032100300e8ff37000180090032900300c8
:10068000d561ae00e4ff370030002000f1ff3700f5
:1006900050052000b00e8800a00a2000b00e88008f
:1006a000d3e1a8000000060050052000b00e88002d
:1006b000a00a2000b00e8800d3e1a90000000600c7
:1006c000b80a040000000000e60a04000000000070
:1006d000180b0400000000002c0b040000000000b8
:1006e000400b040000000000540b04000000000058
:1006f000680b0400000000003600f800809fbe0078
:10070000829fbe00849fbe00869fbe000000fa004c
:10071000c028a9000000eb00fb0507000080fa00dc
:100720004f03be004f02be004f01be004f00be008f
:100730003600f900004006003600f800809fbe0039
:10074000829fbe00849fbe00869fbe000000fa000c
:10075000f2050700c048a90010002000ea050700c4
:100760000080fa004f03be004f02be004f01be00e2
:100770004f00be003600f900004006003600f800c9
:10078000809fbe00829fbe00849fbe00869fbe00e9
:100790000000fa00c068a90020002000da05070068
:1007a0000080fa004f03be004f02be004f01be00a2
:1007b0004f00be003600f900004006003600f80089
:1007c000809fbe00829fbe00849fbe00869fbe00a9
:1007d0000000fa00c088a90030002000ca05070008
:1007e0000080fa004f03be004f02be004f01be0062
:1007f0004f00be003600f900004006003600f80049
:10080000809fbe00829fbe00849fbe00869fbe0068
:100810000000fa00c608a90070002000ba05070011
:100820000080fa004f03be004f02be004f01be0021
:100830004f00be003600f900004006003600f80008
:10084000809fbe00829fbe00849fbe00869fbe0028
:100850000000fa00214680000010200000806000a7
:100860000000e00003003200c508a900c00020001d
:10087000a5050700214680000002200000806000de
:100880000000e00003003200c4a8a900900020008e
:100890009d05070020468000700060000000e00019
:1008a00003003200c488a900a000200096050700bc
:1008b00020468000610060000000e000030032007c
:1008c000c408a900b00020008f050700ffff370013
:1008d0003600f800809fbe00829fbe00849fbe004d
:1008e000869fbe003200f8003400f800100020009f
:1008f000a00188001000200000d0fe000200fa00d5
:1009000061618000010f7800208080000000e0001d
:1009100003003200218080001e00780001000100e9
:100920000d68a9000080fa003400f9003200f900d7
:100930004f03be004f02be004f01be004f00be007d
:100940003600f900004006003600f800809fbe0027
:10095000829fbe00849fbe00869fbe003200f800ca
:100960003400f80010002000a001880010002000d2
:1009700000d0fe000200fa0071618000010f7800d3
:10098000308080000000e0000300320031808000f1
:100990001e007800010001000d88a9000080fa0007
:1009a0003400f9003200f9004f03be004f02be00d0
:1009b0004f01be004f00be003600f90000400600a7
:1009c0003600f800809fbe00829fbe00849fbe005c
:1009d000869fbe003200f8003400f80010002000ae
:1009e000a00188001000200000d0fe000200fa00e4
:1009f00081618000010f7800408080000000e000ed
:100a000003003200418080001e00780001000100d8
:100a10000da8a9000080fa003400f9003200f900a6
:100a20004f03be004f02be004f01be004f00be008c
:100a30003600f900004006003600f800809fbe0036
:100a4000829fbe00849fbe00869fbe003200f800d9
:100a50003400f80010002000a001880010002000e1
:100a600000d0fe000200fa0091618000010f7800c2
:100a7000508080000000e0000300320051808000c0
:100a80001e007800010001000dc8a9000080fa00d6
:100a90003400f9003200f9004f03be004f02be00df
:100aa0004f01be004f00be003600f90000400600b6
:100ab0003600f800809fbe00829fbe00849fbe006b
:100ac000869fbe003200f8003400f80010002000bd
:100ad000a00188001000200000d0fe000200fa00f3
:100ae000a1618000010f7800608080000000e000bc
:100af00003003200618080001e00780001000100c8
:100b00000de8a9000080fa003400f9003200f90075
:100b10004f03be004f02be004f01be004f00be009b
:100b20003600f900004006000040da000000fe0038
:100b300000000500889fbe008a9fbe00300442006e
:100b4000b0844a0030054b0090854b006000b10036
:100b50000898be000a90be000440e10005c8e1000c
:100b600006d0e10007d8e100020031006800400033
:100b70001008e8004f05be004f04be00000006004c
:100b8000889fbe008a9fbe003004be002005be00c4
:100b90000418540005985c0006185d0007985d0075
:100ba000110020000440e10005c8e10006d0e1008a
:100bb00007d8e100010039008000eb001088100028
:100bc0004f05be004f04be00000006001200fa00f0
:100bd000889fbe008a9fbe008c9fbe00e0b79f002a
:100be000f1b79f0082bf9f0093bf9f000605be0024
:100bf0000404be000000eb00d0b79f00c0b79f0008
:100c0000b0b79f00a0b79f0090b79f000006780084
:100c10005fb19700cfb09700820141003fb09700cd
:100c20000200e00004003d00370007007e8057000e
:100c3000c0ff070003003700330007007e80570025
:100c4000cfff0700dfb697000d00e0000c00350075
:100c50006fb29700ffb297000fbb97009fbb970042
:100c600010002000010020006011b8000002720096
:100c70008182720002037300838373001b000700ec
:100c80000c06e80001042000810f5600e0ff3a0046
:100c90000d00e00004003d000802be000a03be0093
:100ca0007e805700a3ff07005fa897000000e000c8
:100cb00005003a001fb29700afb297003fb397000c
:100cc000cfb39700090007006fb09700ffb09700ff
:100cd0000fb997009fb997004f06be004f05be00a1
:100ce0004f04be000080fa0000000600010007006b
:100cf00000000600a4b79f00b5b79f00c6b79f00cd
:100d0000d7b79f00000006004f09de008281710006
:100d1000b3b79f004f01de008180400082807000e9
:100d2000a1b79f008fb097004f09de000000400080
:100d30000200700090b79f007fa897004f01de006f
:100d4000818040008280700081b79f000d00070005
:100d50004f3ade000000400004007000f0af9f003a
:100d6000080007000402420085824a0006034b0087
:100d700087834b00dfff07000802be000a03be00a6
:100d8000000006002fb29700bfb297004fb3970044
:100d9000dfb3970000000600881f780018002000cd
:100da000881f780089ff07008f87e9004f047800cb
:100db00000000600801feb0084ff07008f87e9001a
:100dc00000000600889fbe008a9fbe00e00f500012
:100dd000e08f5800e00f5900e08f59000c003d00f3
:100de0006044b8006055b8000000540081805c0089
:100df00002015d0083815d001800200015000700de
:100e000008003d00180007000004eb000500370053
:100e10000004eb000f00070002003d001200070075
:100e200018002000dcff07000800e0000600320088
:100e30006022b8006033b8000000520081805a0080
:100e400002015b0083815b004f05be004f04be00c2
:100e500000000600e00f5200e08f5a00e00f5b0038
:100e6000e08f5b00000006006044b8006055b800e9
:100e70000402540085825c0006035d0087835d00e8
:100e800000000600889fbe008a9fbe008c1f78006d
:100e9000e00f5000e08f5800e00f5900e08f59003c
:100ea0000d003d006044b8006055b80000005400db
:100eb00081805c0002015d0083815d001c002000d8
:100ec0000820e10009a8e1000ab0e1000bb8e10048
:100ed0000d003d00080037000006eb00e00f520057
:100ee000e08f5a00e00f5b00e08f5b0006003d00e2
:100ef0006044b8006055b8000402540085825c006c
:100f000006035d0087835d00aaff07000c00e00078
:100f1000060032006022b8006033b80000005200c2
:100f200081805a0002015b0083815b004f067800dc
:100f30004f05be004f04be0000000600889fbe00a3
:100f40008a9fbe008c1f78000006eb00e00f500067
:100f5000e08f5800e00f5900e08f590007003d0076
:100f60006044b8006055b8000000540081805c0007
:100f700002015d0083815d001c002000e00f520033
:100f8000e08f5a00e00f5b00e08f5b0007003d0040
:100f90006044b8006055b8000402540085825c00cb
:100fa00006035d0087835d000c00a2000c000700b3
:100fb0000c00e000060032006022b8006033b80088
:100fc0000000520081805a0002015b0083815b00b7
:100fd0004f0678004f05be004f04be00000006001b
:100fe000889fbe008a9fbe008c9fbe000404b8008c
:100ff0000506b8008904460060854e000606b80064
:101000000a054600e0854e000706b8008b0546003d
:10101000040eb800890446000a854e00e0854d00a4
:10102000050eb8000a0546008b854e00060eb80076
:101030008b0546000416b8000a0546008b854e0055
:101040000516b8008b054600041eb8008b05460047
:101050000800be000a01be004f06be004f05be00dc
:081060004f04be000000060071
:020000040000fa
:101068000000fa0030002000001888000223ef007a
:101078000423ef000623ef000823ef0000012000ff
:10108800501888000c23ef000e23ef001023ef0008
:101098001223ef001423ef001623ef001823ef00ac
:1010a8001a23ef001c23ef001e23ef002023ef007c
:1010b8002223ef002423ef002623ef002823ef004c
:1010c800ce23ef00d023ef00d223ef00c000200092
:1010d800a01e8800d623ef00d823ef00da23ef0004
:1010e800dc23ef00de23ef00e023ef00e223ef0034
:1010f800e423ef00e623ef00e823ef00ea23ef0004
:10110800ec23ef00ee23ef0040042000801f88004e
:10111800f223ef0080c32900a01f8800f623ef0008
:10112800f823ef00fa23ef00fc23ef00fe23ef0083
:1011380000000000220307000004a2000004e000f1
:10114800fcff3a0080082800601e88000080fa0032
:10115800000006000200fa00000f7800cc23ef0020
:1011680030002000001888000223ef000423ef005d
:101178000623ef000823ef00000120005018880024
:101188000c23ef000e23ef001023ef001223ef00d3
:101198001423ef001623ef001823ef001a23ef00a3
:1011a8001c23ef001e23ef002023ef002223ef0073
:1011b8002423ef002623ef002823ef00ce23ef009f
:1011c800d023ef00d223ef00c0002000a01e88002b
:1011d800d623ef00d823ef00da23ef00dc23ef005b
:1011e800de23ef00e023ef00e223ef00e423ef002b
:1011f800e623ef00e823ef00ea23ef00ec23ef00fb
:10120800ee23ef00803e2000801f8800f223ef00cd
:101218001e007800a01f8800f623ef00f823ef00d7
:10122800fa23ef00fc23ef00fe23ef00000000008c
:10123800e30207000004a2000004e000fcff3a00fb
:1012480080002800601e88000080fa000000060068
:101258000000fa000080fa00000006000000fa0012
:101268004140800000042000008060000000e00091
:1012780002003200f6ff070008c8a9000080fa0043
:10128800000006000000fa000080fa0000000600d6
:101298000000fa00a14080000020200000806000cb
:1012a8000000e00002003200f6ff07001528a90040
:1012b8000080fa00000006000000fa000080fa0032
:1012c800000006000000fa00a14080000040200055
:1012d800008060000000e00002003200f6ff070016
:1012e8001548a9000080fa00000006000000fa0076
:1012f8000080fa00000006000000fa00a14080000b
:1013080000802000008060000000e0000200320041
:10131800f6ff07001568a9000080fa000000060023
:101328000000fa000080fa00000006000000fa0041
:10133800a140800000002100008060000000e00063
:1013480002003200f6ff07001588a9000080fa00a5
:10135800000006000000fa000080fa000000060005
:101368000000fa00a1408000000022000080600018
:101378000000e00002003200f6ff070015a8a900ef
:101388000080fa00000006000000fa000080fa0061
:10139800000006000000fa00a140800000002400c0
:1013a800008060000000e00002003200f6ff070045
:1013b80015c8a9000080fa00000006000000fa0025
:1013c800002bef000006200010588800042bef00c7
:1013d8002000200030588800082bef00000024006f
:1013e80050588800102bef00122bef00142bef0041
:1013f800202bef00f001200010598800382bef0057
:10140800402bef00482bef00502bef003a2bef005a
:10141800422bef004a2bef00522bef003c2bef0042
:10142800442bef004c2bef00542bef003e2bef002a
:10143800462bef004e2bef00562bef00004020000c
:10144800505b880000402000705b8800004020004e
:10145800905b880000402000b05b8800a02bef0064
:10146800a42bef00a82bef00ac2bef00d02bef0044
:10147800d22bef00f02bef00f22bef00022cef0045
:1014880080ab20003b00070060ae20005100070041
:1014980080b1200068000700c0b22000700007007b
:1014a80000b420007800070040b520008000070045
:1014b80080b62000880007000d68a9002d68a800e4
:1014c8000d88a9002d88a8000da8a9002da8a8009e
:1014d8000dc8a9002dc8a8000de8a9002de8a8008e
:1014e8001160800000f0200001007000106088008a
:1014f80001eba80011000700c0012000005c880073
:10150800822bef00842bef00862bef00882bef0057
:101518008a2bef008c2bef008e2bef001010200091
:10152800805c880010102000905c8800100020006b
:10153800a05c88000080fa00000006000000fa00a5
:1015480000eca800000000000160800000002800f6
:10155800008060000000e000fbff32000aeba800fa
:101568000080fa00000006000000fa000080fa007f
:10157800000006000200fa00000f78001e00780044
:10158800008088000080fa00000006000000fa00d1
:101598005140800000402000008060000000e00012
:1015a80006003200008080000000e00002003200e7
:1015b80000808000000001000b48a9000080fa00ac
:1015c800000006000200fa00000f78000080fa0010
:1015d800000006000200fa00000f78001e007800e4
:1015e800108088000080fa00000006000200fa005f
:1015f80080598000610060000000e00008003200af
:1016080061608000010f7800108080000000e00019
:1016180003003200118080001e00780001000100e4
:101628000080fa00000006000200fa00000f7800af
:101638000080fa00000006000200fa00000f78009f
:101648001e007800208088000080fa000000060054
:101658000200fa00000f78000080fa00000006007f
:101668000200fa00000f78001e0078003080880021
:101678000080fa00000006000200fa00000f78005f
:101688000080fa00000006000200fa00000f78004f
:101698001e007800408088000080fa0000000600e4
:1016a8000200fa00000f78000080fa00000006002f
:1016b8000200fa00000f78001e00780050808800b1
:1016c8000080fa00000006000200fa00000f78000f
:1016d8000080fa00000006000200fa00000f7800ff
:1016e8001e007800608088000080fa000000060074
:1016f8000000fa0001eba8000080fa0000000600d4
:101708000200fa00000f78000080fa0000000600ce
:101718000400fa00100798001e009000e20f500025
:1017280014003200e20f500005003e000000e00007
:101738000a003200e10f50000b0032001900370098
:10174800e40f500011003200e40f50000c00390083
:10175800e50f500010003200120037006160800071
:10176800010f78000f00370061618000010f7800d9
:101778000c00370071618000010f78000900370004
:1017880081618000010f78000600370091618000b8
:10179800010f780003003700a1618000010f780075
:1017a800000000001e0078000080fa00000006001b
:1017b8000400fa00100798001e009000e20f500085
:1017c80022003200e20f500005003e000000e00059
:1017d8000a003200e10f50001200320043003700c7
:1017e800e40f50002d003200e40f500021003900b2
:1017f800e50f5000330032003c003700805980006c
:1018080000800a00000000000080fb0000f0a70034
:101818000000ea000000ea004f00de00004f7800f8
:10182800320037009059800000800a000000000054
:101838000080fb0000f0a7000000ea000000ea00ba
:101848004f00de00004f78002800370090598000d4
:1018580011800a00000000000080fb0000f0a700d3
:101868000000ea000000ea004f00de00004f7800a8
:101878001e0037009059800022800a0000000000f6
:101888000080fb0000f0a7000000ea000000ea006a
:101898004f00de00004f7800140037009059800098
:1018a80033800a00000000000080fb0000f0a70061
:1018b8000000ea000000ea004f00de00004f780058
:1018c8000a0037009059800044800a000000000098
:1018d8000080fb0000f0a7000000ea000000ea001a
:1018e8004f00de00004f7800000000001e40780026
:1018f8000080fa00000006000200fa0067010700f5
:101908007bff07000000eb007dff07000000eb00f5
:10191800a7ff07000004e000030032000000eb000e
:101928007bff0700000f7800760ea8001e007800e5
:10193800cf80de006109b90004202100a50720003e
:101948006033b8007bfd07000203be000002be0042
:1019580000002100e1f525006011b80000004200f8
:1019680081804a0002014b0083814b00843e2000a5
:10197800050020006033b80005fd07000000be0028
:1019880051010700760ea9001e007800cf80de0006
:101998006109b90004202100a50720006033b800c0
:1019a80064fd07000203be000002be000000210023
:1019b800e1f525006011b8000000420081804a006e
:1019c80002014b0083814b00843e2000050020006b
:1019d8006033b800eefc07000000be003a010700c3
:1019e800caff37000000fa00007c80000080fa007f
:1019f800000006000200fa00faff0700000f780056
:101a08001e007800240007000004e00002003200f5
:101a180000002800710007001e0078002a00070057
:101a28000004e00002003200000024006b00070000
:101a38001e007800320007000004e00002003200b7
:101a480000202000650007001e0078003a0007000b
:101a58000004e00002003200000820005f000700d8
:101a68001e007800420007000004e0000200320077
:101a780000042000590007001e0078004a000700f3
:101a88000004e000020032000001200053000700bb
:101a98000080fa00000006000400fa001007980011
:101aa8000040eb00004f78001e0090000000e000ae
:101ab80002003d0010c0b300004f78001e407800bf
:101ac8000080fa00000006000400fa0010079800e1
:101ad8000040eb00004f78009e00900000002400ba
:101ae800008060000000e0000200320010c0b30077
:101af800004f78001e4078000080fa0000000600c1
:101b08000400fa00100798000040eb00004f78002e
:101b18009e00900000202000008060000000e0008f
:101b28000200320010c0b300004f78001e40780059
:101b38000080fa00000006000400fa001007980070
:101b48000040eb00004f78009e0090000008200045
:101b5800008060000000e0000200320010c0b30006
:101b6800004f78001e4078000080fa000000060050
:101b78000400fa00100798000040eb00004f7800be
:101b88009e00900000042000008060000000e0003b
:101b98000200320010c0b300004f78001e407800e9
:101ba8000080fa00000006000400fa001007980000
:101bb8000040eb00004f78001e00900070006000ad
:101bc8000000e0000200320010c0b300004f7800af
:101bd8001e4078000080fa00000006000200fa00ab
:101be800000f78009e80ea00007c80000080600082
:101bf800007c88000080fa00000006000000fa005f
:101c0800802fef000080fa00000006000000fa00b4
:101c1800062eef00222eef003e2eef005a2eef0088
:101c2800762eef00f001200010708800d0ff2f0002
:101c3800f0708800f0ff2000d07188000080eb0071
:101c4800b0728800c0ff2f00907388000c2eef0040
:101c5800282eef00442eef00602eef007c2eef00c0
:101c68000a2eef00262eef00422eef005e2eef0028
:101c78007a2eef00082eef00242eef00402eef0002
:101c88005c2eef00782eef00f00120000070880035
:101c9800d0092000e0708800f00c2000c071880096
:101ca80000c02700a072880000042000807388000c
:101cb8000000eb0051052000b1468800a10a200071
:101cc800b146880000688800f16c8000f00f2c0095
:101cd800808060000030220001007000f06c8800f5
:101ce800f16c800000fc2f00808060002002200042
:101cf80001007000f06c8800008020005105200071
:101d0800b1468800a10a2000b14688000068880012
:101d18000080fa00000006000000fa00100023000e
:101d2800307c880060092000407c88008c2fef0000
:101d380010042000507c880010102800707c880057
:101d4800d0072000807c880010022000907c88004a
:101d58009a2fef00b82fef00ba2fef00be2fef0039
:101d6800002def00a42fef00a62fef00a82fef0003
:101d7800aa2fef00ae2fef00b02fef00b22fef0029
:101d88007200200080072000a109200053f82000dd
:101d98008049780081497800824978000001eb0089
:101da800600420007105200043f820008049780075
:101db80081497800824978000080fa000000060016
:101dc8000000fa00707c8000ee800a00000000002d
:101dd8000080fb0000f0a7000000ea000000ea0015
:101de8004f00de00004078000080fa000000060086
:101df8000000fa00b1438000f08f2f0000806000df
:101e08000080a000b0438800b1438000f0f82f00a4
:101e1800008060000040a000b0438800b14380000b
:101e280080ff2f00008060000000a000b043880001
:101e3800a1438000f0ff28000080600000c0a000df
:101e4800a0438800b1438000f0ff280000806000b4
:101e580000c0a000b04388000080fa00000006001f
:101e68000200fa00000f780021028000200f2000f5
:101e7800008060001e007000200288000080fa00c8
:101e8800000006000000fa00c3e8a80000000000f7
:101e9800000000000080fa00000006000000fa00c0
:101ea8005aff0700d2ff07009bff070043fd07000a
:101eb8006bfc0700f3ff070000022000e8ff0700a3
:081ec8000080fa000000060092
:020000040000fa
:101ed000f03fb1000180b10006003500ee030900bb
:101ee00000000000403fb1000180b100fbff3d0059
:101ef0001000b000203fb000020035000080090053
:081f00000000000000000600d3
:020000040000fa
:101f08000200fa00000f78009e00780071808800b7
:101f1800ffff37000000fa00000121008007780069
:101f280080022100000188000080fa0000000600fd
:020000040000fa
:101f38001010000020000000800000000e100000bb
:101f48000200000082000000ffff000000100000f7
:0c1f58000e0000008000000000000000ef
:020000040000fa
:02000004000af0
:04fe0000ffff000000
:020000040000fa
:02000004000af0
:04fe2000ffffff00e1
:020000040000fa
:02000004000af0
:04fe30007fffff0051
:020000040000fa
:02000004000af0
:04fe3800bfffff0009
:020000040000fa
:02000004000af0
:04fe40006003ff005c
:020000040000fa
:02000004000af0
:04fe4800ffffff00b9
:020000040000fa
:02000004000af0
:04fe5000dfffff00d1
:020000040000fa
:02000004000af0
:04fe58000000ff00a7
:020000040000fa
:02000004000af0
:04fe60000000ff009f
:020000040000fa
:02000004000af0
:04fe68000000ff0097
:020000040000fa
:02000004000af0
:04fe70000000ff008f
:020000040000fa
:02000004000af0
:04fe7800ffffff0089
:020000040000fa
:02000004000af0
:04fe8000fffcff0084
:020000040000fa
:02000004000af0
:04fe8800ffffff0079
:020000040000fa
:02000004000af0
:04feb000ffffff0051
:020000040000fa
:02000004000af0
:04fec000ffffff0041
:020000040000fa
:02000004000af0
:04fed000ffffff0031
:020000040000fa
:02000004000af0
:04fee000ffffff0021
:020000040000fa
:02000004000af0
:04fef000ffffff0011
:020000040000fa
:02000004000af0
:04fff800ffffff0008
:020000040000fa
:020000040100f9
:04300000ffffff00cf
:00000001FF
