:020000040000fa
:080000000002040000000000f2
:020000040000fa
:040008006003000091
:020000040000fa
:04000c00a20300004b
:020000040000fa
:04001000e203000007
:020000040000fa
:040014008003000065
:020000040000fa
:04001800c20300001f
:020000040000fa
:04001c004c04000090
:020000040000fa
:0400200002040000d6
:020000040000fa
:040024004c04000088
:020000040000fa
:040028004c04000084
:020000040000fa
:04002c004c04000080
:020000040000fa
:040030004c0400007c
:020000040000fa
:040034004c04000078
:020000040000fa
:040038004c04000074
:020000040000fa
:04003c004c04000070
:020000040000fa
:040040004c0400006c
:020000040000fa
:040044004c04000068
:020000040000fa
:040048004c04000064
:020000040000fa
:04004c004c04000060
:020000040000fa
:040050004c0400005c
:020000040000fa
:040054004c04000058
:020000040000fa
:040058004c04000054
:020000040000fa
:04005c004c04000050
:020000040000fa
:040060004c0400004c
:020000040000fa
:040064004c04000048
:020000040000fa
:040068004c04000044
:020000040000fa
:04006c004c04000040
:020000040000fa
:040070004c0400003c
:020000040000fa
:040074004c04000038
:020000040000fa
:040078004c04000034
:020000040000fa
:04007c004c04000030
:020000040000fa
:040080004c0400002c
:020000040000fa
:040084004c04000028
:020000040000fa
:040088004c04000024
:020000040000fa
:04008c004c04000020
:020000040000fa
:040090004c0400001c
:020000040000fa
:040094004c04000018
:020000040000fa
:040098004c04000014
:020000040000fa
:04009c004c04000010
:020000040000fa
:0400a0004c0400000c
:020000040000fa
:0400a4004c04000008
:020000040000fa
:0400a8004c04000004
:020000040000fa
:0400ac004c04000000
:020000040000fa
:0400b0004c040000fc
:020000040000fa
:0400b4004c040000f8
:020000040000fa
:0400b8004c040000f4
:020000040000fa
:0400bc004c040000f0
:020000040000fa
:0400c0004c040000ec
:020000040000fa
:0400c4004c040000e8
:020000040000fa
:0400c8004c040000e4
:020000040000fa
:0400cc004c040000e0
:020000040000fa
:0400d0004c040000dc
:020000040000fa
:0400d4004c040000d8
:020000040000fa
:0400d8004c040000d4
:020000040000fa
:0400dc004c040000d0
:020000040000fa
:0400e0004c040000cc
:020000040000fa
:0400e4004c040000c8
:020000040000fa
:0400e8004c040000c4
:020000040000fa
:0400ec004c040000c0
:020000040000fa
:0400f0004c040000bc
:020000040000fa
:0400f4004c040000b8
:020000040000fa
:0400f8004c040000b4
:020000040000fa
:0400fc004c040000b0
:020000040000fa
:040100004c040000ab
:020000040000fa
:040104004c040000a7
:020000040000fa
:040108004c040000a3
:020000040000fa
:04010c004c0400009f
:020000040000fa
:040110004c0400009b
:020000040000fa
:040114004c04000097
:020000040000fa
:040118004c04000093
:020000040000fa
:04011c004c0400008f
:020000040000fa
:040120004c0400008b
:020000040000fa
:040124004c04000087
:020000040000fa
:040128004c04000083
:020000040000fa
:04012c004c0400007f
:020000040000fa
:040130004c0400007b
:020000040000fa
:040134004c04000077
:020000040000fa
:040138004c04000073
:020000040000fa
:04013c004c0400006f
:020000040000fa
:040140004c0400006b
:020000040000fa
:040144004c04000067
:020000040000fa
:040148004c04000063
:020000040000fa
:04014c004c0400005f
:020000040000fa
:040150004c0400005b
:020000040000fa
:040154004c04000057
:020000040000fa
:040158004c04000053
:020000040000fa
:04015c004c0400004f
:020000040000fa
:040160004c0400004b
:020000040000fa
:040164004c04000047
:020000040000fa
:040168004c04000043
:020000040000fa
:04016c004c0400003f
:020000040000fa
:040170004c0400003b
:020000040000fa
:040174004c04000037
:020000040000fa
:040178004c04000033
:020000040000fa
:04017c004c0400002f
:020000040000fa
:040180004c0400002b
:020000040000fa
:040184004c04000027
:020000040000fa
:040188004c04000023
:020000040000fa
:04018c004c0400001f
:020000040000fa
:040190004c0400001b
:020000040000fa
:040194004c04000017
:020000040000fa
:040198004c04000013
:020000040000fa
:04019c004c0400000f
:020000040000fa
:0401a0004c0400000b
:020000040000fa
:0401a4004c04000007
:020000040000fa
:0401a8004c04000003
:020000040000fa
:0401ac004c040000ff
:020000040000fa
:0401b0004c040000fb
:020000040000fa
:0401b4004c040000f7
:020000040000fa
:0401b8004c040000f3
:020000040000fa
:0401bc004c040000ef
:020000040000fa
:0401c0004c040000eb
:020000040000fa
:0401c4004c040000e7
:020000040000fa
:0401c8004c040000e3
:020000040000fa
:0401cc004c040000df
:020000040000fa
:0401d0004c040000db
:020000040000fa
:0401d4004c040000d7
:020000040000fa
:0401d8004c040000d3
:020000040000fa
:0401dc004c040000cf
:020000040000fa
:0401e0004c040000cb
:020000040000fa
:0401e4004c040000c7
:020000040000fa
:0401e8004c040000c3
:020000040000fa
:0401ec004c040000bf
:020000040000fa
:0401f0004c040000bb
:020000040000fa
:0401f4004c040000b7
:020000040000fa
:0401f8004c040000b3
:020000040000fa
:0401fc004c040000af
:020000040000fa
:040200004c040000aa
:020000040000fa
:040204004c040000a6
:020000040000fa
:040208004c040000a2
:020000040000fa
:04020c004c0400009e
:020000040000fa
:040210004c0400009a
:020000040000fa
:040214004c04000096
:020000040000fa
:040218004c04000092
:020000040000fa
:04021c004c0400008e
:020000040000fa
:040220004c0400008a
:020000040000fa
:040224004c04000086
:020000040000fa
:040228004c04000082
:020000040000fa
:04022c004c0400007e
:020000040000fa
:040230004c0400007a
:020000040000fa
:040234004c04000076
:020000040000fa
:040238004c04000072
:020000040000fa
:04023c004c0400006e
:020000040000fa
:040240004c0400006a
:020000040000fa
:040244004c04000066
:020000040000fa
:040248004c04000062
:020000040000fa
:04024c004c0400005e
:020000040000fa
:040250004c0400005a
:020000040000fa
:040254004c04000056
:020000040000fa
:040258004c04000052
:020000040000fa
:04025c004c0400004e
:020000040000fa
:040260004c0400004a
:020000040000fa
:040264004c04000046
:020000040000fa
:040268004c04000042
:020000040000fa
:04026c004c0400003e
:020000040000fa
:040270004c0400003a
:020000040000fa
:040274004c04000036
:020000040000fa
:040278004c04000032
:020000040000fa
:04027c004c0400002e
:020000040000fa
:040280004c0400002a
:020000040000fa
:040284004c04000026
:020000040000fa
:040288004c04000022
:020000040000fa
:04028c004c0400001e
:020000040000fa
:040290004c0400001a
:020000040000fa
:040294004c04000016
:020000040000fa
:040298004c04000012
:020000040000fa
:04029c004c0400000e
:020000040000fa
:0402a0004c0400000a
:020000040000fa
:0402a4004c04000006
:020000040000fa
:0402a8004c04000002
:020000040000fa
:0402ac004c040000fe
:020000040000fa
:0402b0004c040000fa
:020000040000fa
:0402b4004c040000f6
:020000040000fa
:0402b8004c040000f2
:020000040000fa
:0402bc004c040000ee
:020000040000fa
:0402c0004c040000ea
:020000040000fa
:0402c4004c040000e6
:020000040000fa
:0402c8004c040000e2
:020000040000fa
:0402cc004c040000de
:020000040000fa
:0402d0004c040000da
:020000040000fa
:0402d4004c040000d6
:020000040000fa
:0402d8004c040000d2
:020000040000fa
:0402dc004c040000ce
:020000040000fa
:0402e0004c040000ca
:020000040000fa
:0402e4004c040000c6
:020000040000fa
:0402e8004c040000c2
:020000040000fa
:0402ec004c040000be
:020000040000fa
:0402f0004c040000ba
:020000040000fa
:0402f4004c040000b6
:020000040000fa
:0402f8004c040000b2
:020000040000fa
:0402fc004c040000ae
:020000040000fa
:040300004c040000a9
:020000040000fa
:040304004c040000a5
:020000040000fa
:040308004c040000a1
:020000040000fa
:04030c004c0400009d
:020000040000fa
:040310004c04000099
:020000040000fa
:040314004c04000095
:020000040000fa
:040318004c04000091
:020000040000fa
:04031c004c0400008d
:020000040000fa
:040320004c04000089
:020000040000fa
:100400004f0221000eff2c000e018800000020008a
:100410000000e000020032000001200020028800fd
:10042000140007001e0107000000e00003003a006e
:10043000c0882000010020000200370000002000da
:1004400001002000810f70004220ae000f00070065
:10045000000020000000e0004220ae00000002008a
:100460000000000038080200000000000040da0030
:100470000000fe00200020000000e000020032002a
:10048000100020009001880000000600a1028800f2
:10049000800478000000eb001f003700e284440075
:1004a00054a0b4009905ba00e284440054a0b400fa
:1004b0009906ba00e284440054a0b4000006eb00a0
:1004c000476fde00fd07b200ae018800636ce100fb
:1004d00003003a000ad801000000eb000e003700cc
:1004e000606ce10008003a00004deb000a05e800ee
:1004f000020039003420ec000af0a0008b05e9006e
:10050000f9ff3e00040037006168e100010032009d
:100510000086eb000b00070019c7ba001905ba00e6
:100520000e04e00003003a000a00e000dbff3a009e
:1005300000000600fe07b200ae0288008a047800c0
:10054000f5ff37000cd0a300e20f4d001c0039006e
:1005500089027800354dba000a05e800020039002a
:100560003420ec000af0a0008b05e9000f003200f7
:10057000254dba000a05e800020039003420ec00dd
:100580000af0a0008b05e900080032000c00e00032
:100590000600320015cdba000a05e8000200390055
:1005a0003420ec000af0a0008b05e9008984e80003
:1005b00054a0b4000b00e000e2ff3a000000060087
:1005c0009902ba00055d78008b05e900f7ff32005b
:1005d000c82ade00055d78008b05e900f3ff3200d4
:1005e0000c00e000f1ff320019ddba00eeff370029
:1005f00004082000010037000002eb006100e10068
:1006000001003200100005003200f8003400f8004c
:1006100081027800930188003200be000100e000f2
:100620000c0032000470a70000f0a0003203780034
:10063000c733de00848343004220af008703e80015
:10064000a7018800f607b2007f30e1000400320005
:10065000200020003400f9003200f90000000600fc
:100660008100e9000500e00003003a000180090074
:1006700032100300e8ff37000180090032900300c8
:10068000d561ae00e4ff370030002000f1ff3700f5
:1006900050052000b00e8800a00a2000b00e88008f
:1006a000d3e1a8000000060050052000b00e88002d
:1006b000a00a2000b00e8800d3e1a90000000600c7
:1006c0003600f800809fbe00829fbe00849fbe005f
:1006d000869fbe000000fa00c028a9000000eb00c1
:1006e000810207000080fa004f03be004f02be00e7
:1006f0004f01be004f00be003600f900004006006a
:100700003600f800809fbe00829fbe00849fbe001e
:10071000869fbe000000fa0078020700c048a900ca
:1007200010002000700207000080fa004f03be0096
:100730004f02be004f01be004f00be003600f90060
:10074000004006003600f800809fbe00829fbe0079
:10075000849fbe00869fbe000000fa00c068a9000a
:1007600020002000600207000080fa004f03be0056
:100770004f02be004f01be004f00be003600f90020
:10078000004006003600f800809fbe00829fbe0039
:10079000849fbe00869fbe000000fa00c088a900aa
:1007a00030002000500207000080fa004f03be0016
:1007b0004f02be004f01be004f00be003600f900e0
:1007c000004006003600f800809fbe00829fbe00f9
:1007d000849fbe00869fbe000000fa00c608a900e4
:1007e00070002000400207000080fa004f03be00a6
:1007f0004f02be004f01be004f00be003600f900a0
:10080000004006003600f800809fbe00829fbe00b8
:10081000849fbe00869fbe000000fa002146800033
:1008200000102000008060000000e00003003200a3
:10083000c508a900c00020002b0207002146800047
:1008400000022000008060000000e0000300320091
:10085000c4a8a900900020002302070020468000c1
:10086000700060000000e00003003200c488a900ae
:10087000a00020001c0207002046800061006000ec
:100880000000e00003003200c408a900b00020000e
:1008900015020700ffff37000040da000000fe00ed
:0408a000000005004f
:020000040000fa
:1008a4000000fa0030002000001888000223ef0046
:1008b4000423ef000623ef000823ef0000012000cb
:1008c400501888000c23ef000e23ef001023ef00d4
:1008d4001223ef001423ef001623ef001823ef0078
:1008e4001a23ef001c23ef001e23ef002023ef0048
:1008f4002223ef002423ef002623ef002823ef0018
:10090400ce23ef00d023ef00d223ef00c00020005d
:10091400a01e8800d623ef00d823ef00da23ef00cf
:10092400dc23ef00de23ef00e023ef00e223ef00ff
:10093400e423ef00e623ef00e823ef00ea23ef00cf
:10094400ec23ef00ee23ef00803e2000801f8800a0
:10095400f223ef0070382100a01f8800f623ef0077
:10096400f823ef00fa23ef00fc23ef00fe23ef004f
:1009740000000000980107000004a2000004e00049
:10098400fcff3a0080002800601e88000080fa0006
:10099400000006000200fa00000f7800cc23ef00ec
:1009a40030002000001888000223ef000423ef0029
:1009b4000623ef000823ef000001200050188800f0
:1009c4000c23ef000e23ef001023ef001223ef009f
:1009d4001423ef001623ef001823ef001a23ef006f
:1009e4001c23ef001e23ef002023ef002223ef003f
:1009f4002423ef002623ef002823ef00ce23ef006b
:100a0400d023ef00d223ef00c0002000a01e8800f6
:100a1400d623ef00d823ef00da23ef00dc23ef0026
:100a2400de23ef00e023ef00e223ef00e423ef00f6
:100a3400e623ef00e823ef00ea23ef00ec23ef00c6
:100a4400ee23ef00803e2000801f8800f223ef0099
:100a54001e007800a01f8800f623ef00f823ef00a3
:100a6400fa23ef00fc23ef00fe23ef000000000058
:100a7400590107000004a2000004e000fcff3a0052
:100a840080002800601e88000080fa000000060034
:100a94000000fa000080fa00000006000000fa00de
:100aa4004140800000042000008060000000e0005d
:100ab40002003200f6ff070008c8a9000080fa000f
:100ac400000006000000fa000080fa0000000600a2
:100ad4000000fa00a1408000002020000080600097
:100ae4000000e00002003200f6ff07001528a9000c
:100af4000080fa00000006000000fa000080fa00fe
:100b0400000006000000fa00a14080000040200020
:100b1400008060000000e00002003200f6ff0700e1
:100b24001548a9000080fa00000006000000fa0041
:100b34000080fa00000006000000fa00a1408000d6
:100b440000802000008060000000e000020032000d
:100b5400f6ff07001568a9000080fa0000000600ef
:100b64000000fa000080fa00000006000000fa000d
:100b7400a140800000002100008060000000e0002f
:100b840002003200f6ff07001588a9000080fa0071
:100b9400000006000000fa000080fa0000000600d1
:100ba4000000fa00a14080000000220000806000e4
:100bb4000000e00002003200f6ff070015a8a900bb
:100bc4000080fa00000006000000fa000080fa002d
:100bd400000006000000fa00a1408000000024008c
:100be400008060000000e00002003200f6ff070011
:100bf40015c8a9000080fa00000006000000fa00f1
:100c0400007c80000080fa00000006000200fa0068
:100c1400faff0700000f78001e0078002400070088
:100c24000004e00002003200000028007100070008
:100c34001e0078002a0007000004e00002003200d1
:100c4400000024006b0007001e007800320007003b
:100c54000004e000020032000020200065000700cc
:100c64001e0078003a0007000004e0000200320091
:100c7400000820005f0007001e0078004200070003
:100c84000004e000020032000004200059000700c4
:100c94001e0078004a0007000004e0000200320051
:100ca40000012000530007000080fa000000060045
:100cb4000400fa00100798000040eb00004f780091
:100cc4001e0090000000e00002003d0010c0b300d0
:100cd400004f78001e4078000080fa0000000600f3
:100ce4000400fa00100798000040eb00004f780061
:100cf4009e00900000002400008060000000e000de
:100d04000200320010c0b300004f78001e4078008b
:100d14000080fa00000006000400fa0010079800a2
:100d24000040eb00004f78009e009000002020005f
:100d3400008060000000e0000200320010c0b30038
:100d4400004f78001e4078000080fa000000060082
:100d54000400fa00100798000040eb00004f7800f0
:100d64009e00900000082000008060000000e00069
:100d74000200320010c0b300004f78001e4078001b
:100d84000080fa00000006000400fa001007980032
:100d94000040eb00004f78009e009000000420000b
:100da400008060000000e0000200320010c0b300c8
:100db400004f78001e4078000080fa000000060012
:100dc4000400fa00100798000040eb00004f780080
:100dd4001e009000700060000000e000020032007d
:100de40010c0b300004f78001e4078000080fa0065
:100df400000006000200fa00000f78009e80ea005e
:100e0400007c800000806000007c88000080fa0084
:100e1400000006000000fa00802fef000080fa00b6
:100e2400000006000000fa00062eef00222eef005c
:100e34003e2eef005a2eef00762eef00f001200038
:100e440010708800d0ff2f00f0708800f0ff2000a1
:100e5400d07188000080eb00b0728800c0ff2f00c2
:100e6400907388000c2eef00282eef00442eef0024
:100e7400602eef007c2eef000a2eef00262eef00ee
:100e8400422eef005e2eef007a2eef00082eef00c8
:100e9400242eef00402eef005c2eef00782eef00a2
:100ea400f001200000708800d0092000e070880064
:100eb400f00c2000c071880000c02700a0728800d8
:100ec40000042000807388000000eb00510520001e
:100ed400b1468800a10a2000b14688000068880055
:100ee400f16c8000f00f2c00808060000030220044
:100ef40001007000f06c8800f16c800000fc2f0091
:100f0400808060002002200001007000f06c8800e6
:100f14000080200051052000b1468800a10a20006d
:100f2400b1468800006888000080fa0000000600ce
:100f34000000fa0010002300307c880060092000c3
:100f4400407c88008c2fef0010042000507c880027
:100f540010102800707c8800d0072000807c880056
:100f640010022000907c88009a2fef00b82fef0029
:100f7400ba2fef00be2fef00002def00a42fef00db
:100f8400a62fef00a82fef00aa2fef00ae2fef003f
:100f9400b02fef00b22fef00720020008007200076
:100fa400a109200053f82000804978008149780085
:100fb400824978000001eb006004200071052000e4
:100fc40043f82000804978008149780082497800fc
:100fd4000080fa00000006000000fa00707c800027
:100fe400ee800a00000000000080fb0000f0a70073
:100ff4000000ea000000ea004f00de000040780034
:101004000080fa00000006000200fa00000f7800d9
:1010140021028000200f2000008060001e0070006c
:10102400200288000080fa00000006000000fa0098
:10103400c3e8a80000000000000000000080fa00df
:10104400000006000000fa0076ff07003d000700dc
:10105400b7ff070012fe0700f4ff0700000220009c
:10106400e9ff07000080fa00000006000000fa0013
:10107400f4ff0700760ea80000a0260081012000de
:101084000a000700760ea90000a0260081012000b6
:1010940006000700108080003efe070010808000dc
:0c10a4004006b10010808800f2ff370009
:020000040000fa
:1010b000f03fb1000180b10006003500ee030900e9
:1010c00000000000403fb1000180b100fbff3d0087
:1010d0001000b000203fb000020035000080090081
:0810e000000000000000060002
:020000040000fa
:1010e8000200fa00000f78009e0078000180880056
:1010f800ffff37000000fa00400021008007780059
:10110800c0012100000188000080fa0000000600ec
:020000040000fa
:101118000410000020000000800000000010000003
:101128000200000082000000ffff00000210000023
:101138000200000082000000a00f00000000000074
:020000040000fa
:0c1148000000fa000080fa000000060021
:020000040000fa
:02000004000af0
:04fe0000ffff000000
:020000040000fa
:02000004000af0
:04fe2000ffffff00e1
:020000040000fa
:02000004000af0
:04fe30007fffff0051
:020000040000fa
:02000004000af0
:04fe3800bfffff0009
:020000040000fa
:02000004000af0
:04fe40006003ff005c
:020000040000fa
:02000004000af0
:04fe4800ffffff00b9
:020000040000fa
:02000004000af0
:04fe5000dfffff00d1
:020000040000fa
:02000004000af0
:04fe58000000ff00a7
:020000040000fa
:02000004000af0
:04fe60000000ff009f
:020000040000fa
:02000004000af0
:04fe68000000ff0097
:020000040000fa
:02000004000af0
:04fe70000000ff008f
:020000040000fa
:02000004000af0
:04fe7800ffffff0089
:020000040000fa
:02000004000af0
:04fe8000fffcff0084
:020000040000fa
:02000004000af0
:04fe8800ffffff0079
:020000040000fa
:02000004000af0
:04feb000ffffff0051
:020000040000fa
:02000004000af0
:04fec000ffffff0041
:020000040000fa
:02000004000af0
:04fed000ffffff0031
:020000040000fa
:02000004000af0
:04fee000ffffff0021
:020000040000fa
:02000004000af0
:04fef000ffffff0011
:020000040000fa
:02000004000af0
:04fff800ffffff0008
:020000040000fa
:020000040100f9
:04300000ffffff00cf
:00000001FF
