:020000040000fa
:080000000002040000000000f2
:020000040000fa
:040008006003000091
:020000040000fa
:04000c00a20300004b
:020000040000fa
:04001000e203000007
:020000040000fa
:040014008003000065
:020000040000fa
:04001800c20300001f
:020000040000fa
:04001c004c04000090
:020000040000fa
:0400200002040000d6
:020000040000fa
:040024004c04000088
:020000040000fa
:040028004c04000084
:020000040000fa
:04002c004c04000080
:020000040000fa
:040030004c0400007c
:020000040000fa
:040034004c04000078
:020000040000fa
:040038004c04000074
:020000040000fa
:04003c004c04000070
:020000040000fa
:040040004c0400006c
:020000040000fa
:040044004c04000068
:020000040000fa
:040048004c04000064
:020000040000fa
:04004c004c04000060
:020000040000fa
:040050004c0400005c
:020000040000fa
:040054004c04000058
:020000040000fa
:040058004c04000054
:020000040000fa
:04005c004c04000050
:020000040000fa
:040060004c0400004c
:020000040000fa
:040064004c04000048
:020000040000fa
:040068004c04000044
:020000040000fa
:04006c004c04000040
:020000040000fa
:040070004c0400003c
:020000040000fa
:040074004c04000038
:020000040000fa
:040078004c04000034
:020000040000fa
:04007c004c04000030
:020000040000fa
:040080004c0400002c
:020000040000fa
:040084004c04000028
:020000040000fa
:040088004c04000024
:020000040000fa
:04008c004c04000020
:020000040000fa
:040090004c0400001c
:020000040000fa
:040094004c04000018
:020000040000fa
:040098004c04000014
:020000040000fa
:04009c004c04000010
:020000040000fa
:0400a0004c0400000c
:020000040000fa
:0400a4004c04000008
:020000040000fa
:0400a8004c04000004
:020000040000fa
:0400ac004c04000000
:020000040000fa
:0400b0004c040000fc
:020000040000fa
:0400b4004c040000f8
:020000040000fa
:0400b8004c040000f4
:020000040000fa
:0400bc004c040000f0
:020000040000fa
:0400c0004c040000ec
:020000040000fa
:0400c4004c040000e8
:020000040000fa
:0400c8004c040000e4
:020000040000fa
:0400cc004c040000e0
:020000040000fa
:0400d0004c040000dc
:020000040000fa
:0400d4004c040000d8
:020000040000fa
:0400d8004c040000d4
:020000040000fa
:0400dc004c040000d0
:020000040000fa
:0400e0004c040000cc
:020000040000fa
:0400e4004c040000c8
:020000040000fa
:0400e8004c040000c4
:020000040000fa
:0400ec004c040000c0
:020000040000fa
:0400f0004c040000bc
:020000040000fa
:0400f4004c040000b8
:020000040000fa
:0400f8004c040000b4
:020000040000fa
:0400fc004c040000b0
:020000040000fa
:040100004c040000ab
:020000040000fa
:040104004c040000a7
:020000040000fa
:040108004c040000a3
:020000040000fa
:04010c004c0400009f
:020000040000fa
:040110004c0400009b
:020000040000fa
:040114004c04000097
:020000040000fa
:040118004c04000093
:020000040000fa
:04011c004c0400008f
:020000040000fa
:040120004c0400008b
:020000040000fa
:040124004c04000087
:020000040000fa
:040128004c04000083
:020000040000fa
:04012c004c0400007f
:020000040000fa
:040130004c0400007b
:020000040000fa
:040134004c04000077
:020000040000fa
:040138004c04000073
:020000040000fa
:04013c004c0400006f
:020000040000fa
:040140004c0400006b
:020000040000fa
:040144004c04000067
:020000040000fa
:040148004c04000063
:020000040000fa
:04014c004c0400005f
:020000040000fa
:040150004c0400005b
:020000040000fa
:040154004c04000057
:020000040000fa
:040158004c04000053
:020000040000fa
:04015c004c0400004f
:020000040000fa
:040160004c0400004b
:020000040000fa
:040164004c04000047
:020000040000fa
:040168004c04000043
:020000040000fa
:04016c004c0400003f
:020000040000fa
:040170004c0400003b
:020000040000fa
:040174004c04000037
:020000040000fa
:040178004c04000033
:020000040000fa
:04017c004c0400002f
:020000040000fa
:040180004c0400002b
:020000040000fa
:040184004c04000027
:020000040000fa
:040188004c04000023
:020000040000fa
:04018c004c0400001f
:020000040000fa
:040190004c0400001b
:020000040000fa
:040194004c04000017
:020000040000fa
:040198004c04000013
:020000040000fa
:04019c004c0400000f
:020000040000fa
:0401a0004c0400000b
:020000040000fa
:0401a4004c04000007
:020000040000fa
:0401a8004c04000003
:020000040000fa
:0401ac004c040000ff
:020000040000fa
:0401b0004c040000fb
:020000040000fa
:0401b4004c040000f7
:020000040000fa
:0401b8004c040000f3
:020000040000fa
:0401bc004c040000ef
:020000040000fa
:0401c0004c040000eb
:020000040000fa
:0401c4004c040000e7
:020000040000fa
:0401c8004c040000e3
:020000040000fa
:0401cc004c040000df
:020000040000fa
:0401d0004c040000db
:020000040000fa
:0401d4004c040000d7
:020000040000fa
:0401d8004c040000d3
:020000040000fa
:0401dc004c040000cf
:020000040000fa
:0401e0004c040000cb
:020000040000fa
:0401e4004c040000c7
:020000040000fa
:0401e8004c040000c3
:020000040000fa
:0401ec004c040000bf
:020000040000fa
:0401f0004c040000bb
:020000040000fa
:0401f4004c040000b7
:020000040000fa
:0401f8004c040000b3
:020000040000fa
:0401fc004c040000af
:020000040000fa
:040200004c040000aa
:020000040000fa
:040204004c040000a6
:020000040000fa
:040208004c040000a2
:020000040000fa
:04020c004c0400009e
:020000040000fa
:040210004c0400009a
:020000040000fa
:040214004c04000096
:020000040000fa
:040218004c04000092
:020000040000fa
:04021c004c0400008e
:020000040000fa
:040220004c0400008a
:020000040000fa
:040224004c04000086
:020000040000fa
:040228004c04000082
:020000040000fa
:04022c004c0400007e
:020000040000fa
:040230004c0400007a
:020000040000fa
:040234004c04000076
:020000040000fa
:040238004c04000072
:020000040000fa
:04023c004c0400006e
:020000040000fa
:040240004c0400006a
:020000040000fa
:040244004c04000066
:020000040000fa
:040248004c04000062
:020000040000fa
:04024c004c0400005e
:020000040000fa
:040250004c0400005a
:020000040000fa
:040254004c04000056
:020000040000fa
:040258004c04000052
:020000040000fa
:04025c004c0400004e
:020000040000fa
:040260004c0400004a
:020000040000fa
:040264004c04000046
:020000040000fa
:040268004c04000042
:020000040000fa
:04026c004c0400003e
:020000040000fa
:040270004c0400003a
:020000040000fa
:040274004c04000036
:020000040000fa
:040278004c04000032
:020000040000fa
:04027c004c0400002e
:020000040000fa
:040280004c0400002a
:020000040000fa
:040284004c04000026
:020000040000fa
:040288004c04000022
:020000040000fa
:04028c004c0400001e
:020000040000fa
:040290004c0400001a
:020000040000fa
:040294004c04000016
:020000040000fa
:040298004c04000012
:020000040000fa
:04029c004c0400000e
:020000040000fa
:0402a0004c0400000a
:020000040000fa
:0402a4004c04000006
:020000040000fa
:0402a8004c04000002
:020000040000fa
:0402ac004c040000fe
:020000040000fa
:0402b0004c040000fa
:020000040000fa
:0402b4004c040000f6
:020000040000fa
:0402b8004c040000f2
:020000040000fa
:0402bc004c040000ee
:020000040000fa
:0402c0004c040000ea
:020000040000fa
:0402c4004c040000e6
:020000040000fa
:0402c8004c040000e2
:020000040000fa
:0402cc004c040000de
:020000040000fa
:0402d0004c040000da
:020000040000fa
:0402d4004c040000d6
:020000040000fa
:0402d8004c040000d2
:020000040000fa
:0402dc004c040000ce
:020000040000fa
:0402e0004c040000ca
:020000040000fa
:0402e4004c040000c6
:020000040000fa
:0402e8004c040000c2
:020000040000fa
:0402ec004c040000be
:020000040000fa
:0402f0004c040000ba
:020000040000fa
:0402f4004c040000b6
:020000040000fa
:0402f8004c040000b2
:020000040000fa
:0402fc004c040000ae
:020000040000fa
:040300004c040000a9
:020000040000fa
:040304004c040000a5
:020000040000fa
:040308004c040000a1
:020000040000fa
:04030c004c0400009d
:020000040000fa
:040310004c04000099
:020000040000fa
:040314004c04000095
:020000040000fa
:040318004c04000091
:020000040000fa
:04031c004c0400008d
:020000040000fa
:040320004c04000089
:020000040000fa
:100400002f0221000eff2c000e01880000002000aa
:100410000000e000020032000001200020028800fd
:10042000140007001e0107000000e00003003a006e
:10043000a0eb200001002000020037000000200097
:1004400001002000810f70004220ae000f00070065
:10045000000020000000e0004220ae00000002008a
:1004600000000000ca0e0200000000000040da0098
:100470000000fe00200020000000e000020032002a
:10048000100020009001880000000600a1028800f2
:10049000800478000000eb001f003700e284440075
:1004a00054a0b4009905ba00e284440054a0b400fa
:1004b0009906ba00e284440054a0b4000006eb00a0
:1004c000476fde00fd07b200ae018800636ce100fb
:1004d00003003a000ad801000000eb000e003700cc
:1004e000606ce10008003a00004deb000a05e800ee
:1004f000020039003420ec000af0a0008b05e9006e
:10050000f9ff3e00040037006168e100010032009d
:100510000086eb000b00070019c7ba001905ba00e6
:100520000e04e00003003a000a00e000dbff3a009e
:1005300000000600fe07b200ae0288008a047800c0
:10054000f5ff37000cd0a300e20f4d001c0039006e
:1005500089027800354dba000a05e800020039002a
:100560003420ec000af0a0008b05e9000f003200f7
:10057000254dba000a05e800020039003420ec00dd
:100580000af0a0008b05e900080032000c00e00032
:100590000600320015cdba000a05e8000200390055
:1005a0003420ec000af0a0008b05e9008984e80003
:1005b00054a0b4000b00e000e2ff3a000000060087
:1005c0009902ba00055d78008b05e900f7ff32005b
:1005d000c82ade00055d78008b05e900f3ff3200d4
:1005e0000c00e000f1ff320019ddba00eeff370029
:1005f00004082000010037000002eb006100e10068
:1006000001003200100005003200f8003400f8004c
:1006100081027800930188003200be000100e000f2
:100620000c0032000470a70000f0a0003203780034
:10063000c733de00848343004220af008703e80015
:10064000a7018800f607b2007f30e1000400320005
:10065000200020003400f9003200f90000000600fc
:100660008100e9000500e00003003a000180090074
:1006700032100300e8ff37000180090032900300c8
:10068000d561ae00e4ff370030002000f1ff3700f5
:1006900050052000b00e8800a00a2000b00e88008f
:1006a000d3e1a8000000060050052000b00e88002d
:1006b000a00a2000b00e8800d3e1a90000000600c7
:1006c0003600f800809fbe00829fbe00849fbe005f
:1006d000869fbe000000fa00c028a9000000eb00c1
:1006e000980507000080fa004f03be004f02be00cd
:1006f0004f01be004f00be003600f900004006006a
:100700003600f800809fbe00829fbe00849fbe001e
:10071000869fbe000000fa008f050700c048a900b0
:1007200010002000870507000080fa004f03be007c
:100730004f02be004f01be004f00be003600f90060
:10074000004006003600f800809fbe00829fbe0079
:10075000849fbe00869fbe000000fa00c068a9000a
:1007600020002000770507000080fa004f03be003c
:100770004f02be004f01be004f00be003600f90020
:10078000004006003600f800809fbe00829fbe0039
:10079000849fbe00869fbe000000fa00c088a900aa
:1007a00030002000670507000080fa004f03be00fc
:1007b0004f02be004f01be004f00be003600f900e0
:1007c000004006003600f800809fbe00829fbe00f9
:1007d000849fbe00869fbe000000fa00c608a900e4
:1007e00070002000570507000080fa004f03be008c
:1007f0004f02be004f01be004f00be003600f900a0
:10080000004006003600f800809fbe00829fbe00b8
:10081000849fbe00869fbe000000fa002146800033
:1008200000102000008060000000e00003003200a3
:10083000c508a900c000200042050700214680002d
:1008400000022000008060000000e0000300320091
:10085000c4a8a900900020003a05070020468000a7
:10086000700060000000e00003003200c488a900ae
:10087000a0002000330507002046800061006000d2
:100880000000e00003003200c408a900b00020000e
:100890002c050700ffff37000040da000000fe00d3
:0408a000000005004f
:020000040000fa
:1008a40000000000ca0000001f0000000002040055
:1008b40000000000fa0200003c0300007c0300007a
:1008c4001a0300005c030000e60300009c03000020
:1008d400e6030000e6030000e6030000e603000070
:1008e400e6030000e6030000e6030000e603000060
:1008f400e6030000e6030000e6030000e603000050
:10090400e6030000e6030000e6030000e60300003f
:100bc400e6030000e6030000e60300000000fe0068
:100bd4000000fe0000020000000200001f000000f0
:100be4002f0221000eff24000e01880000000000e7
:100bf400000020000000e00002003200000120009c
:100c04002002880014000700ea0007000000e0004a
:100c140003003a0080712000010020000200370028
:100c24000000200001002000810f7000010032004c
:100c34000f000700000020000000e0000200320066
:100c4400000002000000000028070200000000006d
:100c54000040da000000fe00200020000000e00058
:100c640002003200100020009001880000000600fd
:100c7400a1028800800478000000eb001f00370008
:100c8400e284440054a0b4009905ba00e28444000c
:100c940054a0b4009906ba00e284440054a0b400fd
:100ca4000006eb00476fde00fd07b200ae018800ce
:100cb400636ce10003003a000ad801000000eb0075
:100cc4000e003700606ce10008003a00004deb00b4
:100cd4000a05e800020039003420ec000af0a00004
:100ce4008b05e900f9ff3e00040037006168e1006c
:100cf400010032000086eb000b00070019c7ba00a0
:100d04001905ba000e04e00003003a000a00e000ee
:100d1400dbff3a0000000600fe07b200ae028800c6
:100d24008a047800f5ff37000cd0a300e20f4d00d1
:100d34001c00390089027800354dba000a05e80024
:100d4400020039003420ec000af0a0008b05e90011
:100d54000f003200254dba000a05e80002003900f0
:100d64003420ec000af0a0008b05e90008003200f2
:100d74000c00e0000600320015cdba000a05e800b8
:100d8400020039003420ec000af0a0008b05e900d1
:100d94008984e80054a0b4000b00e000e2ff3a00ac
:100da400000006009902ba00055d78008b05e90091
:100db400f7ff3200c82ade00055d78008b05e900e4
:100dc400f3ff32000c00e000f1ff320019ddba003d
:100dd400eeff37003600f800809fbe00829fbe0001
:100de400849fbe00869fbe000000fa00c028a900b0
:100df4000000eb00fa0107000080fa004f03be0078
:100e04004f02be004f01be004f00be003600f90085
:100e1400004006003600f800809fbe00829fbe009e
:100e2400849fbe00869fbe000000fa00f101070007
:100e3400c048a90010002000e90107000080fa0062
:100e44004f03be004f02be004f01be004f00be0064
:100e54003600f900004006003600f800809fbe000e
:100e6400829fbe00849fbe00869fbe000000fa00e1
:100e7400c068a90020002000d90107000080fa0002
:100e84004f03be004f02be004f01be004f00be0024
:100e94003600f900004006003600f800809fbe00ce
:100ea400829fbe00849fbe00869fbe000000fa00a1
:100eb400c088a90030002000c90107000080fa00a2
:100ec4004f03be004f02be004f01be004f00be00e4
:100ed4003600f900004006003600f800809fbe008e
:100ee400829fbe00849fbe00869fbe000000fa0061
:100ef400c608a90070002000b90107000080fa00ac
:100f04004f03be004f02be004f01be004f00be00a3
:100f14003600f900004006003600f800809fbe004d
:100f2400829fbe00849fbe00869fbe000000fa0020
:100f34002146800000102000008060000000e000d6
:100f440003003200c508a900c0002000a401070066
:100f54002146800000022000008060000000e000c4
:100f640003003200c4a8a900900020009c010700df
:100f740020468000700060000000e00003003200a2
:100f8400c488a900a0002000950107002046800025
:100f9400610060000000e00003003200c408a90002
:100fa400b00020008e010700ffff37000040da0088
:100fb4000000fe00000005000000fa00007c800034
:100fc4000080fa00000006000200fa00faff0700a1
:100fd400000f78001e007800240007000004e000e1
:100fe4000200320000002800710007001e00780093
:100ff4002a0007000004e000020032000000240080
:101004006b0007001e007800320007000004e000b7
:101014000200320000202000650007001e00780056
:101024003a0007000004e00002003200000820003b
:101034005f0007001e007800420007000004e00083
:101044000200320000042000590007001e0078004e
:101054004a0007000004e000020032000001200002
:10106400530007000080fa00000006000400fa00a4
:10107400100798000040eb00004f78001e0090001d
:101084000000e00002003d0010c0b300004f7800f3
:101094001e4078000080fa00000006000400fa00f8
:1010a400100798000040eb00004f78009e0090006d
:1010b40000002400008060000000e0000200320014
:1010c40010c0b300004f78001e4078000080fa0082
:1010d400000006000400fa00100798000040eb002e
:1010e400004f78009e0090000020200000806000e7
:1010f4000000e0000200320010c0b300004f78008e
:101104001e4078000080fa00000006000400fa0087
:10111400100798000040eb00004f78009e009000fc
:1011240000082000008060000000e000020032009f
:1011340010c0b300004f78001e4078000080fa0011
:10114400000006000400fa00100798000040eb00bd
:10115400004f78009e009000000420000080600092
:101164000000e0000200320010c0b300004f78001d
:101174001e4078000080fa00000006000400fa0017
:10118400100798000040eb00004f78001e0090000c
:10119400700060000000e0000200320010c0b300e4
:1011a400004f78001e4078000080fa00000006001e
:1011b4000200fa00000f78009e80ea00007c8000a4
:1011c40000806000007c88000080fa0000000600b7
:1011d4000000fa00802fef000080fa0000000600f3
:1011e4000000fa00d221ef000080fa00000006009f
:1011f4000000fa00d321a8000080fa0000000600d5
:101204000000fa00a00e800088800a0000000000a0
:101214000080fb0000f0a7000000ea000000ea00e4
:101224004f00de00004078000080fa000000060055
:101234000000fa00d321a9000080fa000000060093
:101244000000fa00a00e800099800a00000000004f
:101254000080fb0000f0a7000000ea000000ea00a4
:101264004f00de00004078000080fa000000060015
:101274000000fa00d301a8000080fa000000060074
:101284000000fa00d301a9000080fa000000060063
:101294000200fa0030002000000f7800a10e800048
:1012a40000002800008060000000e000030032001d
:1012b40040002000000f780016003700a00e8000c8
:1012c400dc800a00000000000080fb00e10f5000f9
:1012d40007003200e20f5000080032000000e00076
:1012e40009003a000000eb00000f78000900370005
:1012f40020002000000f78000600370010002000b6
:10130400000f78000300370030002000000f780041
:10131400000000001e0078000080fa0000000600b3
:101324000600fa0010079800210798000000eb005f
:10133400000f78000f003700d10f8000001020004c
:10134400008060000000e0000e003a00f10f800011
:101354001e009000010878001e0090000080e80044
:10136400100798002e0090000000e9002007980064
:101374001e0fe8002e0090000000e000eeff3a008f
:1013840001003700000000001e0078000080fa0011
:10139400000006000600fa001007980021079800d4
:1013a4000000eb00000f78000e003700d00f800023
:1013b400620060000000e0000e003a001e00900091
:1013c40010007800e00f88001e0090000080e80004
:1013d400100798002e0090000000e90020079800f4
:1013e400000600009c0000001f0000001e0fe80023
:1013f4002e0090000000e000efff3a0001003700eb
:10140400000000001e0078000080fa0000000600c2
:101414000000fa0010002300307c880060092000de
:10142400407c880010042000507c880010102000ac
:10143400707c880060092000807c880010042000f3
:10144400907c8800b82fef00ba2fef00be2fef007a
:10145400002def00a42fef00a62fef00aa2fef001e
:10146400ae2fef00b02fef00b22fef00620020008c
:1014740080072000a109200053f82000804978004b
:1014840081497800824978000001eb006004200063
:101494007105200043f820008049780081497800d4
:1014a400824978000080fa00000006000000fa007b
:1014b400707c8000ee800a00000000000080fb00c9
:1014c40000f0a7000000ea000000ea004f00de0080
:1014d400004078000080fa00000006000000fa00d6
:1014e400062eef00222eef003e2eef005a2eef00c4
:1014f400762eef00f0012000107088000080eb00d1
:10150400f07088000080eb00d07188000080eb0050
:10151400b0728800c0ff2f00907388000c2eef007b
:10152400282eef00442eef00602eef007c2eef00fb
:101534000a2eef00262eef00422eef005e2eef0063
:101544007a2eef00082eef00242eef00402eef003d
:101554005c2eef00782eef00f00120000070880070
:10156400f0392000e0708800f00c2000c071880081
:1015740000c02700a0728800000420008073880047
:101584000080fa00000006000200fa00000f780054
:1015940021028000200f2000008060001e007000e7
:1015a400200288000080fa00000006000000fa0013
:1015b400c3e8a80000000000000000000080fa005a
:1015c400000006000000fa00c4ff070090ff0700b7
:1015d4001e00070005ff0700f4ff070000022000bb
:1015e400e9ff07000080fa00000006000200fa008c
:1015f400000f78009e00780001808800ffff37000c
:101604000000fa002000210080077800a0012100da
:10161400000188000080fa000000060002100000ab
:101624002000000080000000001000000200000004
:1016340082000000ffff0000000000000000fa002c
:10164400e0ff0700760ea800feff37000000fa0056
:101654000080fa00000006000000fe000000000008
:041664000000000082
:020000040000fa
:101668000000fa00d221ef0000082800d00f8800ff
:1016780007000700020007000080fa0000000600cb
:101688000000fa0000fc07000080fa0000000600d5
:101698000000fa0020452800012020000001be00bb
:1016a8008000eb0010002000d1fb07000080fa004a
:1016b800000006000000fa00d321a8000080fa000c
:1016c800000006000000fa00a00e800088800a00d2
:1016d800000000000080fb0000f0a7000000ea0006
:1016e8000000ea004f00de00004078000080fa00a9
:1016f800000006000000fa00d321a9000080fa00cb
:10170800000006000000fa00a00e800099800a0080
:10171800000000000080fb0000f0a7000000ea00c5
:101728000000ea004f00de00004078000080fa0068
:10173800000006000000fa00d301a8000080fa00ab
:10174800000006000000fa00d301a9000080fa009a
:10175800000006000200fa00a10e8000000024002c
:10176800008060000000e000030032000000eb0091
:10177800000f78000200370010002000000f7800ea
:101788001e0078000080fa00000006000200fa003f
:10179800000f78001e0078000000e00003003a0007
:1017a800d5c1a900000000000100370000000000ba
:1017b8000080fa00000006000200fa004000200045
:1017c800000f7800a10e8000000024000080600057
:1017d8000000e0000300320050002000000f7800f5
:1017e80016003700a00e8000dc800a000000000010
:1017f8000080fb00e10f500007003200e20f5000ac
:10180800080032000000e00009003a000000eb0088
:10181800000f78000900370030002000000f780022
:101828000600370020002000000f78000300370072
:1018380040002000000f7800000000001e00780023
:101848000080fa00000006000600fa001007980061
:10185800210798000000eb00000f78000e00370009
:10186800d00f8000610060000000e0000e003a0028
:10187800e10f80001e009000010878001e00900013
:101888000080e800100798002e0090000000e90092
:10189800200798001e0fe8002e0090000000e000ce
:1018a800efff3a0001003700000000001e0078003a
:1018b8000080fa00000006000600fa0010079800f1
:1018c800210798000000eb00000f78000f00370098
:1018d800d10f800000202000008060000000e000a0
:1018e8000e003a001e00900010007800f00f8800eb
:1018f8001e0090000080e800100798002e0090005d
:101908000000e900200798001e0fe8002e00900054
:101918000000e000eeff3a00010037000000000080
:101928001e0078000080fa00000006000000fa009f
:10193800007c80000080fa00000006000200fa0027
:10194800faff0700000f78001e0078002400070047
:101958000004e000020032000000280071000700c7
:101968001e0078002a0007000004e0000200320090
:10197800000024006b0007001e00780032000700fa
:101988000004e0000200320000202000650007008b
:101998001e0078003a0007000004e0000200320050
:1019a800000820005f0007001e00780042000700c2
:1019b8000004e00002003200000420005900070083
:1019c8001e0078004a0007000004e0000200320010
:1019d80000012000530007000080fa000000060004
:1019e8000400fa00100798000040eb00004f780050
:1019f8001e0090000000e00002003d0010c0b3008f
:101a0800004f78001e4078000080fa0000000600b1
:101a18000400fa00100798000040eb00004f78001f
:101a28009e00900000002400008060000000e0009c
:101a38000200320010c0b300004f78001e4078004a
:101a48000080fa00000006000400fa001007980061
:101a58000040eb00004f78009e009000002020001e
:101a6800008060000000e0000200320010c0b300f7
:101a7800004f78001e4078000080fa000000060041
:101a88000400fa00100798000040eb00004f7800af
:101a98009e00900000082000008060000000e00028
:101aa8000200320010c0b300004f78001e407800da
:101ab8000080fa00000006000400fa0010079800f1
:101ac8000040eb00004f78009e00900000042000ca
:101ad800008060000000e0000200320010c0b30087
:101ae800004f78001e4078000080fa0000000600d1
:101af8000400fa00100798000040eb00004f78003f
:101b08001e009000700060000000e000020032003b
:101b180010c0b300004f78001e4078000080fa0023
:101b2800000006000200fa00000f78009e80ea001c
:101b3800007c800000806000007c88000080fa0043
:101b4800000006000000fa00802fef000080fa0075
:101b5800000006000000fa0010002300307c880016
:101b680060092000407c88008c2fef0010042000c2
:101b7800507c880010102000707c880060092000cc
:101b8800807c880010042000907c88009a2fef0049
:101b9800b82fef00ba2fef00be2fef00002def0097
:101ba800a42fef00a62fef00a82fef00aa2fef0019
:101bb800ae2fef00b02fef00b22fef007200200021
:101bc80080072000a109200053f8200080497800f0
:101bd80081497800824978000001eb006004200008
:101be8007105200043f82000804978008149780079
:101bf800824978000080fa00000006000000fa0020
:101c0800707c8000ee800a00000000000080fb006d
:101c180000f0a7000000ea000000ea004f00de0024
:101c2800004078000080fa00000006000000fa007a
:101c3800062eef00222eef003e2eef005a2eef0068
:101c4800762eef00f001200010708800d0ff2f00e2
:101c5800f07088000080eb00d07188000080eb00f5
:101c6800b0728800c0ff2f00907388000c2eef0020
:101c7800282eef00442eef00602eef007c2eef00a0
:101c88000a2eef00262eef00422eef005e2eef0008
:101c98007a2eef00082eef00242eef00402eef00e2
:101ca8005c2eef00782eef00f00120000070880015
:101cb800f0092000e0708800f00c2000c071880056
:101cc80000c02700a07288000004200080738800ec
:101cd8000080fa00000006000200fa00000f7800f9
:101ce80021028000200f2000008060001e0070008c
:101cf800200288000080fa00000006000000fa00b8
:101d0800c3e8a80000000000000000000080fa00fe
:101d1800000006000000fa00c4ff07001e000700cc
:101d28008cff07004efe0700f4ff070000022000aa
:101d3800e9ff07000080fa00000006000200fa0030
:101d4800000f78009e00780001808800ffff3700b0
:101d58000000fa002000210080077800a00121007f
:0c1d6800000188000080fa000000060066
:020000040000fa
:101d7400021000002000000080000000001000009d
:101d84000200000082000000ffff000000000000cd
:020000040000fa
:101d94000000fa00e0ff0700ffff37000000fa0030
:081da4000080fa0000000600b7
:020000040000fa
:02000004000af0
:04fe0000ffff000000
:020000040000fa
:02000004000af0
:04fe2000ffffff00e1
:020000040000fa
:02000004000af0
:04fe30007fffff0051
:020000040000fa
:02000004000af0
:04fe3800bbffff000d
:020000040000fa
:02000004000af0
:04fe40006003ff005c
:020000040000fa
:02000004000af0
:04fe4800ffffff00b9
:020000040000fa
:02000004000af0
:04fe5000dfffff00d1
:020000040000fa
:02000004000af0
:04fe58000000ff00a7
:020000040000fa
:02000004000af0
:04fe60000000ff009f
:020000040000fa
:02000004000af0
:04fe68000000ff0097
:020000040000fa
:02000004000af0
:04fe70000000ff008f
:020000040000fa
:02000004000af0
:04fe7800ffffff0089
:020000040000fa
:02000004000af0
:04fe8000fffcff0084
:020000040000fa
:02000004000af0
:04fe8800ffffff0079
:020000040000fa
:02000004000af0
:04fe9000ffffff0071
:020000040000fa
:02000004000af0
:04fe9800ffffff0069
:020000040000fa
:02000004000af0
:04fea000ffffff0061
:020000040000fa
:02000004000af0
:04fea800ffffff0059
:020000040000fa
:02000004000af0
:04feb000ffffff0051
:020000040000fa
:02000004000af0
:04fec000ffffff0041
:020000040000fa
:02000004000af0
:04fed000ffffff0031
:020000040000fa
:02000004000af0
:04fee000ffffff0021
:020000040000fa
:02000004000af0
:04fef000fcffff0014
:020000040000fa
:02000004000af0
:04ff0000feffff0001
:020000040000fa
:02000004000af0
:04ff0800bbffff003c
:020000040000fa
:02000004000af0
:04ff1000f453ff00a7
:020000040000fa
:02000004000af0
:04ff1800ffffff00e8
:020000040000fa
:02000004000af0
:04ff2000ffffff00e0
:020000040000fa
:02000004000af0
:04ff2800ffffff00d8
:020000040000fa
:02000004000af0
:04ff3000ffffff00d0
:020000040000fa
:02000004000af0
:04ff38000000ff00c6
:020000040000fa
:02000004000af0
:04ff40000000ff00be
:020000040000fa
:02000004000af0
:04ff48000000ff00b6
:020000040000fa
:02000004000af0
:04ff50000000ff00ae
:020000040000fa
:02000004000af0
:04ff5800ffffff00a8
:020000040000fa
:02000004000af0
:04fff800ffffff0008
:020000040000fa
:020000040100f9
:04300000ffffff00cf
:00000001FF
