:020000040000fa
:080000000002040000000000f2
:020000040000fa
:04000800fe030000f3
:020000040000fa
:04000c00fe030000ef
:020000040000fa
:04001000fe030000eb
:020000040000fa
:04001400fe030000e7
:020000040000fa
:04001800fe030000e3
:020000040000fa
:04001c00fe030000df
:020000040000fa
:04002000fe030000db
:020000040000fa
:04002400fe030000d7
:020000040000fa
:04002800fe030000d3
:020000040000fa
:04002c00600300006d
:020000040000fa
:04003000fe030000cb
:020000040000fa
:04003400fe030000c7
:020000040000fa
:04003800fe030000c3
:020000040000fa
:04003c00fe030000bf
:020000040000fa
:04004000fe030000bb
:020000040000fa
:04004400fe030000b7
:020000040000fa
:04004800fe030000b3
:020000040000fa
:04004c00fe030000af
:020000040000fa
:04005000fe030000ab
:020000040000fa
:04005400fe030000a7
:020000040000fa
:04005800fe030000a3
:020000040000fa
:04005c00fe0300009f
:020000040000fa
:04006000fe0300009b
:020000040000fa
:04006400fe03000097
:020000040000fa
:04006800fe03000093
:020000040000fa
:04006c00fe0300008f
:020000040000fa
:04007000fe0300008b
:020000040000fa
:04007400fe03000087
:020000040000fa
:04007800fe03000083
:020000040000fa
:04007c00fe0300007f
:020000040000fa
:04008000fe0300007b
:020000040000fa
:04008400fe03000077
:020000040000fa
:04008800fe03000073
:020000040000fa
:04008c00fe0300006f
:020000040000fa
:04009000fe0300006b
:020000040000fa
:04009400fe03000067
:020000040000fa
:04009800fe03000063
:020000040000fa
:04009c00fe0300005f
:020000040000fa
:0400a000fe0300005b
:020000040000fa
:0400a400fe03000057
:020000040000fa
:0400a800fe03000053
:020000040000fa
:0400ac00fe0300004f
:020000040000fa
:0400b000fe0300004b
:020000040000fa
:0400b400fe03000047
:020000040000fa
:0400b800fe03000043
:020000040000fa
:0400bc00fe0300003f
:020000040000fa
:0400c000fe0300003b
:020000040000fa
:0400c400fe03000037
:020000040000fa
:0400c800fe03000033
:020000040000fa
:0400cc00fe0300002f
:020000040000fa
:0400d000fe0300002b
:020000040000fa
:0400d400fe03000027
:020000040000fa
:0400d800fe03000023
:020000040000fa
:0400dc00fe0300001f
:020000040000fa
:0400e000fe0300001b
:020000040000fa
:0400e400fe03000017
:020000040000fa
:0400e800fe03000013
:020000040000fa
:0400ec00fe0300000f
:020000040000fa
:0400f000fe0300000b
:020000040000fa
:0400f400fe03000007
:020000040000fa
:0400f800fe03000003
:020000040000fa
:0400fc00fe030000ff
:020000040000fa
:04010000fe030000fa
:020000040000fa
:04010400fe030000f6
:020000040000fa
:04010800fe030000f2
:020000040000fa
:04010c00fe030000ee
:020000040000fa
:04011000fe030000ea
:020000040000fa
:04011400fe030000e6
:020000040000fa
:04011800fe030000e2
:020000040000fa
:04011c00fe030000de
:020000040000fa
:04012000fe030000da
:020000040000fa
:04012400fe030000d6
:020000040000fa
:04012800fe030000d2
:020000040000fa
:04012c00fe030000ce
:020000040000fa
:04013000fe030000ca
:020000040000fa
:04013400fe030000c6
:020000040000fa
:04013800fe030000c2
:020000040000fa
:04013c00fe030000be
:020000040000fa
:04014000fe030000ba
:020000040000fa
:04014400fe030000b6
:020000040000fa
:04014800fe030000b2
:020000040000fa
:04014c00fe030000ae
:020000040000fa
:04015000fe030000aa
:020000040000fa
:04015400fe030000a6
:020000040000fa
:04015800fe030000a2
:020000040000fa
:04015c00fe0300009e
:020000040000fa
:04016000fe0300009a
:020000040000fa
:04016400fe03000096
:020000040000fa
:04016800fe03000092
:020000040000fa
:04016c00fe0300008e
:020000040000fa
:04017000fe0300008a
:020000040000fa
:04017400fe03000086
:020000040000fa
:04017800fe03000082
:020000040000fa
:04017c00fe0300007e
:020000040000fa
:04018000fe0300007a
:020000040000fa
:04018400fe03000076
:020000040000fa
:04018800fe03000072
:020000040000fa
:04018c00fe0300006e
:020000040000fa
:04019000fe0300006a
:020000040000fa
:04019400fe03000066
:020000040000fa
:04019800fe03000062
:020000040000fa
:04019c00fe0300005e
:020000040000fa
:0401a000fe0300005a
:020000040000fa
:0401a400fe03000056
:020000040000fa
:0401a800fe03000052
:020000040000fa
:0401ac00fe0300004e
:020000040000fa
:0401b000fe0300004a
:020000040000fa
:0401b400fe03000046
:020000040000fa
:0401b800fe03000042
:020000040000fa
:0401bc00fe0300003e
:020000040000fa
:0401c000fe0300003a
:020000040000fa
:0401c400fe03000036
:020000040000fa
:0401c800fe03000032
:020000040000fa
:0401cc00fe0300002e
:020000040000fa
:0401d000fe0300002a
:020000040000fa
:0401d400fe03000026
:020000040000fa
:0401d800fe03000022
:020000040000fa
:0401dc00fe0300001e
:020000040000fa
:0401e000fe0300001a
:020000040000fa
:0401e400fe03000016
:020000040000fa
:0401e800fe03000012
:020000040000fa
:0401ec00fe0300000e
:020000040000fa
:0401f000fe0300000a
:020000040000fa
:0401f400fe03000006
:020000040000fa
:0401f800fe03000002
:020000040000fa
:0401fc00fe030000fe
:020000040000fa
:04020000fe030000f9
:020000040000fa
:04020400fe030000f5
:020000040000fa
:04020800fe030000f1
:020000040000fa
:04020c00fe030000ed
:020000040000fa
:04021000fe030000e9
:020000040000fa
:04021400fe030000e5
:020000040000fa
:04021800fe030000e1
:020000040000fa
:04021c00fe030000dd
:020000040000fa
:04022000fe030000d9
:020000040000fa
:04022400fe030000d5
:020000040000fa
:04022800fe030000d1
:020000040000fa
:04022c00fe030000cd
:020000040000fa
:04023000fe030000c9
:020000040000fa
:04023400fe030000c5
:020000040000fa
:04023800fe030000c1
:020000040000fa
:04023c00fe030000bd
:020000040000fa
:04024000fe030000b9
:020000040000fa
:04024400fe030000b5
:020000040000fa
:04024800fe030000b1
:020000040000fa
:04024c00fe030000ad
:020000040000fa
:04025000fe030000a9
:020000040000fa
:04025400fe030000a5
:020000040000fa
:04025800fe030000a1
:020000040000fa
:04025c00fe0300009d
:020000040000fa
:04026000fe03000099
:020000040000fa
:04026400fe03000095
:020000040000fa
:04026800fe03000091
:020000040000fa
:04026c00fe0300008d
:020000040000fa
:04027000fe03000089
:020000040000fa
:04027400fe03000085
:020000040000fa
:04027800fe03000081
:020000040000fa
:04027c00fe0300007d
:020000040000fa
:04028000fe03000079
:020000040000fa
:04028400fe03000075
:020000040000fa
:04028800fe03000071
:020000040000fa
:04028c00fe0300006d
:020000040000fa
:04029000fe03000069
:020000040000fa
:04029400fe03000065
:020000040000fa
:04029800fe03000061
:020000040000fa
:04029c00fe0300005d
:020000040000fa
:0402a000fe03000059
:020000040000fa
:0402a400fe03000055
:020000040000fa
:0402a800fe03000051
:020000040000fa
:0402ac00fe0300004d
:020000040000fa
:0402b000fe03000049
:020000040000fa
:0402b400fe03000045
:020000040000fa
:0402b800fe03000041
:020000040000fa
:0402bc00fe0300003d
:020000040000fa
:0402c000fe03000039
:020000040000fa
:0402c400fe03000035
:020000040000fa
:0402c800fe03000031
:020000040000fa
:0402cc00fe0300002d
:020000040000fa
:0402d000fe03000029
:020000040000fa
:0402d400fe03000025
:020000040000fa
:0402d800fe03000021
:020000040000fa
:0402dc00fe0300001d
:020000040000fa
:0402e000fe03000019
:020000040000fa
:0402e400fe03000015
:020000040000fa
:0402e800fe03000011
:020000040000fa
:0402ec00fe0300000d
:020000040000fa
:0402f000fe03000009
:020000040000fa
:0402f400fe03000005
:020000040000fa
:0402f800fe03000001
:020000040000fa
:0402fc00fe030000fd
:020000040000fa
:04030000fe030000f8
:020000040000fa
:04030400fe030000f4
:020000040000fa
:04030800fe030000f0
:020000040000fa
:04030c00fe030000ec
:020000040000fa
:04031000fe030000e8
:020000040000fa
:04031400fe030000e4
:020000040000fa
:04031800fe030000e0
:020000040000fa
:04031c00fe030000dc
:020000040000fa
:04032000fe030000d8
:020000040000fa
:10040000ef0821000eff27000e01880000002000e9
:100410000000e000020032000001200020028800fd
:10042000140007000e0107000000e00003003a007e
:1004300020dc210001002000020037000000200025
:1004400001002000810f70004220ae000f00070065
:10045000000020000000e0004220ae00000002008a
:1004600000000000001d0200000000000040da0053
:100470000000fe00200020000000e000020032002a
:10048000100020009001880000000600a1028800f2
:10049000800478000000eb001f003700e284440075
:1004a00054a0b4009905ba00e284440054a0b400fa
:1004b0009906ba00e284440054a0b4000006eb00a0
:1004c000476fde00fd07b200ae018800636ce100fb
:1004d00003003a000ad801000000eb000e003700cc
:1004e000606ce10008003a00004deb000a05e800ee
:1004f000020039003420ec000af0a0008b05e9006e
:10050000f9ff3e00040037006168e100010032009d
:100510000086eb000b00070019c7ba001905ba00e6
:100520000e04e00003003a000a00e000dbff3a009e
:1005300000000600fe07b200ae0288008a047800c0
:10054000f5ff37000cd0a300e20f4d001c0039006e
:1005500089027800354dba000a05e800020039002a
:100560003420ec000af0a0008b05e9000f003200f7
:10057000254dba000a05e800020039003420ec00dd
:100580000af0a0008b05e900080032000c00e00032
:100590000600320015cdba000a05e8000200390055
:1005a0003420ec000af0a0008b05e9008984e80003
:1005b00054a0b4000b00e000e2ff3a000000060087
:1005c0009902ba00055d78008b05e900f7ff32005b
:1005d000c82ade00055d78008b05e900f3ff3200d4
:1005e0000c00e000f1ff320019ddba00eeff370029
:1005f00004082000010037000002eb006100e10068
:1006000001003200100005003200f8003400f8004c
:1006100081027800930188003200be000100e000f2
:100620000c0032000470a70000f0a0003203780034
:10063000c733de00848343004220af008703e80015
:10064000a7018800f607b2007f30e1000400320005
:10065000200020003400f9003200f90000000600fc
:100660008100e9000500e00003003a000180090074
:1006700032100300e8ff37000180090032900300c8
:10068000d561ae00e4ff370030002000f1ff3700f5
:1006900050052000b00e8800a00a2000b00e88008f
:1006a000d3e1a8000000060050052000b00e88002d
:1006b000a00a2000b00e8800d3e1a90000000600c7
:1006c0003600f800809fbe00829fbe00849fbe005f
:1006d000869fbe003200f8003400f80010002000b1
:1006e000a00188001000200000d0fe000200fa00e7
:1006f0000040eb00004f7800330037001e80fb0005
:10070000ea00b9008000780020002100008040004d
:10071000100078000000e0002a0032001e81fb007b
:10072000ea10b900e60040002000210000804000ef
:100730001000be0061004000e0804800ea11b900ee
:100740008201780082002100028141000089be0000
:100750001e80fb00ea00b900e600400020002100f6
:10076000008040001001be001e80fb00ea00b900be
:100770008080e80020002100008040001000be00c2
:10078000800f5100818f59000e003a001e80fb003f
:10079000ea00b900800078002000210000804000bd
:1007a00010007800000001001e80fb00ea00b90084
:1007b0008000780080002100008140006000b800c7
:1007c0000089be001e4fe8001e407800e94f50002f
:1007d000caff36000028a9000080fa003400f900a2
:1007e0003200f9004f03be004f02be004f01be00b1
:1007f0004f00be003600f900004006000040da005d
:100800000000fe000a00fa00200798003107980057
:1008100042079800be009000010f78000000eb0036
:1008200010079800070037001e007800104078007d
:100830001e0fe800ba0c07001e0090000000e80040
:10084000100798009e0090004e009000808f50008e
:10085000f5ff39001e0090000080fa00000006003d
:100860000000050003f0a200889fbe008a9fbe0022
:100870008c1f7800f7000700fe0033006450e10091
:100880004f0032006420e1005200320003826c000d
:1008900007003b000905d0000306d000820f54007a
:1008a0000c065d0002003900020032008901780068
:1008b000030678008582550004003d000003fd001a
:1008c0008103fd008502ea008b854200840f7200df
:1008d00002003b0060001000e08018006011b800ca
:1008e0000005eb007a28e1000a00390006007800d4
:1008f000c75ddd00f707b200878075002d00370067
:10090000828171000a017800610560008180d10058
:100910000080d3008502e900f9ff3b000604400097
:100920008784480002003b0060041400e0841c003f
:100930000988a300070032008a817100828171005a
:10094000610164008904d1000884d3008b05e800ac
:10095000170037000978a30013003a000b00e000ed
:10096000130034008b05e9000804440089844c001e
:100970000a4474000978a3000d003a000b00e0005f
:10098000070034008b05e9000804440089844c000a
:1009900001003a000b0020000978a300f7ff3200a5
:1009a0000001eb0002003700828171000a0178002b
:1009b0006d0007000cf0a70001f0a000b6003700a2
:1009c0006420e10002003a00838f6c00b60033001f
:1009d0000801be000200be00af003700889fbe00c5
:1009e0008a9fbe008c1f78009a000700a100330088
:1009f00003866c006450e1002e0032006420e100a8
:100a0000330032006150e1002f0032006120e1002c
:100a10003100320085855500eb07b0000900200049
:100a200008042000050037000804440089844c00b5
:100a30000a0031000603430087834b000001530086
:100a400081815b00f8ff33000203be000800a000b4
:100a50000804440089844c00f6ff3900c639dd00e3
:100a60008301730001003200130020008904d100cb
:100a70000884d3000998a300050032000800a700ed
:100a80000300a0008904d1000884d3008b05e8008e
:100a90008904d1000884d3000001eb000281d20058
:100aa0003100070001f0a1000cf0a70001f0a00048
:100ab000790037006420e1007b0032000801be00ad
:100ac0000200be00f7ff37006120e100760032002f
:100ad0006000b800f3ff37000000200001f8270095
:100ae000f0ff370014002000b6003700f4ff2f009d
:100af000b40037000001be00410007000470a700e9
:100b000003f0a10003f8a30013003a006509b10047
:100b100010003200090035006928e10002003500ac
:100b2000010028000000050000004000818048000e
:100b30008502e900fcff3a0000000600f88f420041
:100b4000050035008100d1000080d3008502e80057
:100b5000fcff3a00000006008000eb0000000500ea
:100b60006011b800b200370081002000618055009c
:100b70000b003d000b00200061fe2f000100e10092
:100b80001d00340082817100610164008904d1007c
:100b90000884d3000000e800faff3a00710020004a
:100ba0006100640003007000020060000900320070
:100bb00061044400e0844c000988a500050032006f
:100bc0008b05e8006808e10002003a008904d100c2
:100bd0000884d300f20f20000258e10005003d0018
:100be000c75ddd00f907b200898075000800780054
:100bf000000006000bf827008b00780000000500bd
:100c0000c70ade00f107b200f50fb200080032009b
:100c1000e1cf4200020032000170a0002400050074
:100c2000810f700001003200040805004400050037
:100c3000810f700002003a00140005008502e900ef
:100c40000000400081c04800fcff3b000170a00094
:100c5000240005000004be00e9ff07000003be00f9
:100c60000405be000200be00e5ff0700844f7500ca
:100c7000000006000200be006450e10005003600de
:100c80006420e100020036000968a30001003a0078
:100c90000800be000160a0004f0678004f05be00ae
:100ca0004f04be0000000600f0ff2f00f1ff2700f8
:100cb000f9ff3700889fbe008a9fbe008c1f780016
:100cc000e4ff0700ebff330003866c006450e10093
:100cd000240032006420e100270032006150e1006e
:100ce000220032006120e100210032008b854200a9
:100cf000eb07b1000134b800003ab8000804420024
:100d000089844a00013ab8000030b8008880400069
:100d100009014a00040033000000400081804800bf
:100d2000020149008b05e900c909dd00830170005b
:100d30000100320013002000c814de004814dd005a
:100d40004709de001200b200c808de000884700007
:100d500085ff070001f0a1000cf0a70001f0a00042
:100d6000cdff37006120e100cfff32000801be0057
:100d70000200be00f7ff37006150e100fcff3a00bf
:100d8000c9ff37006022b800060220000000d00032
:100d90008180d2000482d2008582d2000000a000af
:100da0000202520083825a00030031000202420014
:100db00083824a000000a1000603e900f3ff3a0025
:100dc00000000600889fbe008a9fbe00841f780036
:100dd000a0ff07004f00780011003300f0ff2f0044
:100de000838f6c0006003b00040565000a00a70025
:100df0000800370009f0a6001000200008003700a6
:100e0000820f5400838f5c00030039001000200023
:100e100001003e000000200009f0a7000000ea00e9
:100e20004f05be004f04be000000e00000000600b9
:100e3000889fbe008a9fbe0000827000040271007d
:100e400004827100260032000004be000200be00d1
:100e50006011b8006b092000950220000182cf00cc
:100e60000a0039000541b1000082cf0007003900b7
:100e70000541b1000982cf00040039000541b100ed
:100e80000882cf00010039000541b100054252003f
:100e9000120032000a003b0082817100610164008f
:100ea0008100d1000080d3008984d3000884d3005e
:100eb0008b05e8000442e800f7ff3a00070037001e
:100ec0000804440089844c000000480081804800e8
:100ed0008b05e9000442e900f9ff3a0022ff070010
:100ee0004f05be004f04be000000060080017800e0
:100ef00002003700815978000201e9000200e00099
:080f0000fcff3a0000000600ae
:020000040000fa
:100f080000000000ca0000001f00000000020400ea
:100f18000000000088030000880300008803000028
:100f2800880300008803000088030000880300008d
:100f380088030000880300002403000088030000e1
:100f4800880300008803000088030000880300006d
:100f5800880300008803000088030000880300005d
:100f6800880300008803000088030000880300004d
:100f7800880300008803000088030000880300003d
:100f8800880300008803000088030000880300002d
:100f9800880300008803000088030000880300001d
:100fa800880300008803000088030000880300000d
:100fb80088030000880300008803000088030000fd
:100fc80088030000880300008803000088030000ed
:100fd80088030000880300008803000088030000dd
:100fe80088030000880300008803000088030000cd
:100ff80088030000880300008803000088030000bd
:1010080088030000880300008803000088030000ac
:10101800880300008803000088030000880300009c
:10102800880300008803000088030000880300008c
:10103800880300008803000088030000880300007c
:10104800880300008803000088030000880300006c
:10105800880300008803000088030000880300005c
:10106800880300008803000088030000880300004c
:10107800880300008803000088030000880300003c
:10108800880300008803000088030000880300002c
:10109800880300008803000088030000880300001c
:1010a80088030000540d0000880300008803000036
:1010b80088030000880300008803000088030000fc
:1010c80088030000880300008803000088030000ec
:1010d80088030000880300008803000088030000dc
:1010e80088030000880300008803000088030000cc
:1010f80088030000880300008803000088030000bc
:1011080088030000880300008803000088030000ab
:10111800880300008803000088030000880300009b
:10112800880300008803000088030000880300008b
:10113800880300008803000088030000880300007b
:1011480088030000020300008803000088030000f1
:10115800880300008803000088030000880300005b
:10116800880300008803000088030000880300004b
:10117800880300008803000088030000880300003b
:10118800880300008803000088030000880300002b
:10119800880300008803000088030000880300001b
:1011a800880300008803000088030000880300000b
:1011b80088030000880300008803000088030000fb
:1011c80088030000880300008803000088030000eb
:1011d80088030000880300008803000088030000db
:1011e80088030000880300008803000088030000cb
:1011f80088030000880300008803000088030000bb
:1012080088030000880300008803000088030000aa
:10121800880300008803000088030000880300009a
:101228008803000088030000880300000000fe0017
:101238000000fe0000020000000200001f00000085
:101248004f0821008efe24000e01880000000000d7
:10125800000020000000e000020032000001200031
:101268002002880014000700bb0007000000e0000f
:1012780003003a00a0ce2000010020000200370041
:101288000000200001002000810f700001003200e2
:101298000f000700000020000000e00002003200fc
:1012a8000000020000000000720c020000000000b4
:1012b8000040da000000fe00200020000000e000ee
:1012c8000200320010002000900188000000060093
:1012d800a1028800800478000000eb001f0037009e
:1012e800e284440054a0b4009905ba00e2844400a2
:1012f80054a0b4009906ba00e284440054a0b40093
:101308000006eb00476fde00fd07b200ae01880063
:10131800636ce10003003a000ad801000000eb000a
:101328000e003700606ce10008003a00004deb0049
:101338000a05e800020039003420ec000af0a00099
:101348008b05e900f9ff3e00040037006168e10001
:10135800010032000086eb000b00070019c7ba0035
:101368001905ba000e04e00003003a000a00e00084
:10137800dbff3a0000000600fe07b200ae0288005c
:101388008a047800f5ff37000cd0a300e20f4d0067
:101398001c00390089027800354dba000a05e800ba
:1013a800020039003420ec000af0a0008b05e900a7
:1013b8000f003200254dba000a05e8000200390086
:1013c8003420ec000af0a0008b05e9000800320088
:1013d8000c00e0000600320015cdba000a05e8004e
:1013e800020039003420ec000af0a0008b05e90067
:1013f8008984e80054a0b4000b00e000e2ff3a0042
:10140800000006009902ba00055d78008b05e90026
:10141800f7ff3200c82ade00055d78008b05e90079
:10142800f3ff32000c00e000f1ff320019ddba00d2
:10143800eeff370000000000000000000000000080
:10144800000000003600f800809fbe00829fbe00aa
:10145800849fbe00869fbe00de01e20002003200cb
:101468009704070001003700a80407001088a900a6
:101478004f03be004f02be004f01be004f00be002a
:101488003600f900004006003600f800809fbe00d4
:10149800829fbe00849fbe00869fbe00889fbe00bc
:1014a8008a9fbe008c9fbe003200f8003400f8000e
:1014b80010002000a00188001000200000d0fe00cd
:1014c80008022100e60444004a06200008054500f9
:1014d8006066b8001800e0000d003200140020001b
:1014e8000500200039004200a9804a00808cbe0017
:1014f80018029000a8029000840f5000858f5800b1
:1015080003003a0018007800000001008c8cbe002f
:101518006a044400ea8444008a0f5400edff3a004c
:101528000028a9003400f9003200f9004f06be0077
:101538004f05be004f04be004f03be004f02be0061
:101548004f01be004f00be003600f9000040060003
:101558000040da000000fe0000000500889fbe0081
:101568008a9fbe008c1f7800980007009f003300f8
:1015780003866c006450e1002e0032006420e10014
:10158800330032006150e1002f0032006120e10099
:101598003100320085855500eb07b00009002000b6
:1015a80008042000050037000804440089844c0022
:1015b8000a0031000603430087834b0000015300f3
:1015c80081815b00f8ff33000203be000800a00021
:1015d8000804440089844c00f6ff3900c639dd0050
:1015e8008301730001003200130020008904d10038
:1015f8000884d3000998a300050032000800a7005a
:101608000300a0008904d1000884d3008b05e800fa
:101618008904d1000884d3000001eb000281d200c4
:101628002f00070001f0a1000cf0a70001f0a000b6
:10163800770037006420e100790032000801be001d
:101648000200be00f7ff37006120e100740032009d
:101658006000b800f3ff37000000200001f8270001
:10166800f0ff370014002000b40037000001be006e
:10167800410007000470a70003f0a10003f8a300cd
:1016880013003a006509b100100032000900350066
:101698006928e1000200350001002800000005006b
:1016a80000004000818048008502e900fcff3a0004
:1016b80000000600f88f4200050035008100d100c7
:1016c8000080d3008502e800fcff3a000000060015
:1016d8008000eb00000005006011b800b200370080
:1016e80081002000618055000b003d000b002000a8
:1016f80061fe2f000100e1001d00340082817100ad
:10170800610164008904d1000884d3000000e80066
:10171800faff3a00710020006100640003007000c5
:10172800020060000900320061044400e0844c00bb
:101738000988a500050032008b05e8006808e1006b
:1017480002003a008904d1000884d300f20f200077
:101758000258e10005003d00c75ddd00f907b20051
:101768008980750008007800000006000bf8270043
:101778008b00780000000500c70ade00f107b20000
:10178800f50fb20008003200e1cf4200020032003b
:101798000170a00024000500810f700001003200d4
:1017a8000408050044000500810f700002003a009b
:1017b800140005008502e9000000400081c04800cf
:1017c800fcff3b000170a000240005000004be00df
:1017d800e9ff07000003be000405be000200be00ca
:1017e800e5ff0700844f7500000006000200be00f8
:1017f8006450e100050036006420e1000200360074
:101808000968a30001003a000800be000160a000ba
:101818004f0678004f05be004f04be0000000600ca
:10182800f0ff2f00f1ff2700f9ff3700889fbe0067
:101838008a9fbe008c1f7800e4ff0700ebff33008f
:1018480003866c006450e100240032006420e1004b
:10185800270032006150e100220032006120e100df
:10186800210032008b854200eb07b1000134b8003b
:10187800003ab8000804420089844a00013ab800d6
:101888000030b8008880400009014a000400330095
:101898000000400081804800020149008b05e900f2
:1018a800c909dd0083017000010032001300200027
:1018b800c814de004814dd004709de001200b2003b
:1018c800c808de000884700085ff070001f0a10049
:1018d8000cf0a70001f0a000cdff37006120e10067
:1018e800cfff32000801be000200be00f7ff37003c
:1018f8006150e100fcff3a00c9ff37006022b800e0
:10190800060220000000d0008180d2000482d200ac
:101918008582d2000000a0000202520083825a0091
:10192800030031000202420083824a000000a10045
:101938000603e900f3ff3a0000000600889fbe0096
:101948008a9fbe00841f7800a0ff07004f00780020
:1019580011003300f0ff2f00838f6c0006003b005e
:10196800040565000a00a7000800370009f0a60072
:101978001000200008003700820f5400838f5c009d
:10198800030039001000200001003e000000200084
:1019980009f0a7000000ea004f05be004f04be0092
:1019a8000000e00000000600889fbe008a9fbe007d
:1019b8000082700004027100048271002600320067
:1019c8000004be000200be006011b8006b092000d0
:1019d800950220000182cf000a0039000541b100bc
:1019e8000082cf00070039000541b1000982cf000d
:1019f800040039000541b1000882cf000100390018
:101a08000541b10005425200120032000a003b00b5
:101a180082817100610164008100d1000080d300df
:101a28008984d3000884d3008b05e8000442e800c9
:101a3800f7ff3a00070037000804440089844c0087
:101a480000060000000200001f000000000048001f
:101a5800818048008b05e9000442e900f9ff3a005b
:101a680022ff07004f05be004f04be00000006001d
:101a780000014000c1c020000101410001e02f0029
:101a8800435880008380600080807000415888003f
:101a9800090ba800ef0f500006003e0011002000bf
:101aa8008008dd008359800001806100fdff32005d
:101ab8000600370070005000110020008008dd008b
:101ac8009359800001806100fdff32001200780008
:101ad80000000600889fbe008a9fbe008c1f780009
:101ae80000067800810478000000eb000900e0009f
:101af8000e003200000478006055b8000c00780031
:101b0800dbff07000a054000e0854d000804e800f7
:101b1800888f5400f9ff3e000900d1000a004000f8
:101b2800e0804d006149b80077ff07004f06780054
:101b38004f05be004f04be0000000600e10f500034
:101b480003003200ef0f50000d003a000900370083
:101b5800382ea800e3806000c208dd0030ff2f00a7
:101b68000e0bb600008070007058880010c0b300db
:101b780004003700002ea80010c0b3000100370091
:101b88000040eb00000006000042eb000000e0000f
:101b980026003a00002bef000006200010588800ad
:101ba800042bef002000200030588800082bef009d
:101bb800000024005058880000f0200010608800c1
:101bc80001eba8000104e000060032000a0ba8009f
:101bd800000ca80001102000046080000480600050
:101be800fdff32000204e000060032000a2ba800c4
:101bf800002ca80001202000026080000280600004
:101c0800fdff320014c0b3000304e00007003200f7
:101c18000aeba80000eca80001002800046080007e
:101c280004806000fdff320014c0b3000440780057
:101c38000000060080017800e48f5100060036009d
:101c4800e5805100120020008110dd0001007800bd
:101c58002c28b70005003700eb8041001200200057
:101c68008110dd00010078002a28b700ef8f5100ad
:101c780004003e00110020000308dd00202bb700ff
:101c88000400370070805100110020000008dd00ba
:101c9800222bb70000000600000278000400a10013
:101ca80003b82000830142008002e90014002000ec
:101cb800e38f520011003600e50250002400200096
:101cc800e38f52000d003600e90250003400200076
:101cd800848f520009003600ed02500044002000b5
:101ce800e38f520005003600f10250005400200036
:101cf800e38f5200010036000002eb00e3026000af
:101d08000003eb0087ff2f00e18f52001000320024
:101d180046002000f7f82f00e28f52000c00320036
:101d2800e38f5200050032000003eb0087ff2f000d
:101d38000500e00006003a00030037008600200096
:101d4800f78f2f0002003700c6002000f7ff280099
:101d580004024200c586200005024200148a63007e
:101d68008180fb00060bdd00140a73000008a30045
:101d780005003200f00f2000930960004811dd00d3
:101d8800930971000400370000f02f0093096000e8
:101d98000281fb00930971000000060080ff240007
:101da8008000eb00010878001100980021009800dd
:101db80031009800f0ff2700b0808800c07c200028
:101dc800c0808800d07c2800d0808800f0352200b0
:101dd800e0808800a02d2f00f0808800b80207005e
:101de80000000600881f780013c0b3000341780084
:101df8008000eb00034078008200070073c0b30046
:101e080012c0b3008340780002407800a5000700a4
:101e18000040eb00801f7800801f7800006a2800cf
:101e280011002000809fbe00d6cc2c00c7dc2b0000
:101e38008000eb00343323003505240002502600cf
:101e4800d3dc210010c0b300a6000700e84620003c
:101e58008002eb000502780085017800829927004e
:101e68008138210008007800ea00070035c0b30077
:101e7800c4c1b3008041eb0022c0b30011c0b3005d
:101e8800080078001e0107008042eb000542780038
:101e98008541780012c0b3002103200008007800b3
:101ea8002d01070043012000c2252100419c20008c
:101eb80008007800f70007000042eb008441780032
:101ec80012c0b3008440780008007800f5000700cd
:101ed8008041eb0012c0b30083407800080078000e
:101ee800fb0007000042eb008441780004417800c1
:101ef800a1c1b30008007800d8000700884320007b
:101f08008002eb000502780085017800829927009d
:101f18008138210008007800be0007008001eb002e
:101f2800030178004101200008007800d90007006b
:101f38000042eb008441780012c0b300844078006e
:101f480008007800d70007000042eb0084417800c1
:101f580004417800a1c1b30008007800bf00070061
:101f680013c0b300034178008040eb000000eb0091
:101f780005ff070011c0b30010002000effe0700a6
:101f88008040eb00f0002000ecfe0700d2c0b30058
:101f980061c0b300100020003fff0700d2c0b300ab
:101fa80041c0b300f00020003bff07007bff0700a3
:101fb80010c0b3000af0b700100020001dff070092
:101fc800e88757004f047800000006000a50e20036
:101fd8000b00320060808000f1542000810f500017
:101fe80003003e006a00400060808800040037005b
:101ff8000a70ef000e70ef00005520006080880026
:102008000000060084c82000e14f5000040036009c
:102018000080fb000000e900ee00b9000002420069
:102028000204e00003003200000820000064880079
:1020380002003700000c200000648800310298007c
:102048000304e000010032001490a0000000eb003f
:102058002002980014f0a00081eca80000000600ff
:1020680082c82000e14f5000040036000080fb00c9
:102078000000e900ee00b90000014100f0ff200077
:10208800808f500004003e000100e00003003d0086
:102098008000eb0001003700f1ff200031019800bb
:1020a8000000060084c82000e14f500004003600fc
:1020b8000080fb000000e900ee00b90000024200c9
:1020c8004411dd00020fb2006f80600082007000d2
:1020d8006f8061004800dd008100700041029800b7
:1020e80000000600e4874700889fbe008a9fbe0064
:1020f8008c9fbe008e1f78000206be000405be003d
:1021080081bf9f000604be008ec82000e14f50002a
:10211800040036000080fb000000e900ee00b90072
:10212800000747002fe097000080fb004300dd0018
:102138000120220000807000000f7800cfe0970097
:102148000104e000020032000060a000000f7800e7
:102158006011b8000800be0045fd07000000e0005f
:1021680007003d000000eb005007980009f0a200ae
:10217800200798000fb8970030079800060037002e
:1021880000202000500798000fb8970020079800fb
:10219800f0ff2000300798000200200003182400f8
:1021a8000800be00a4fd07000004be008d00d10099
:1021b8000c80d3004bfd0700024022004397240007
:1021c800e9fc07000a01be009bfd07000200200091
:1021d8000398230098fd07000001be000800be0018
:1021e800e1fc070024fd0700600798001ef0a0002e
:1021f8005e00900000f0a000500798004f0778009c
:102208004f06be004f05be004f04be004f00b10090
:1022180000000600881f7800360020000618880095
:1022280086002000060878000003eb0016009800de
:10223800131098000289b800411cdd004f13de001e
:10224800060374002610980041109800000a000048
:10225800b60100001f000000141898000518980027
:102268004f047800000006004e11dd00b002900017
:10227800028172000482fb004422dd008381fb009e
:10228800c219dd0004827100020172003200980058
:102298008180fb004100980010f0a00000000600bb
:1022a8005110980062109800731098000000060002
:1022b8004811dd00cb08dd0082807000c919dd00ff
:1022c800818071004a22dd00810072005001900077
:1022d8008280700051009800000006000281fb0017
:1022e8004611dd008180fb00c508dd00828070009a
:1022f8008381fb00c719dd008180710060019000b7
:10230800828070006100980000000600100b9000a9
:1023180006c0a0004811dd00cb08dd0082807000f7
:102328008381fb00c519dd00818071000482fb00f8
:10233800810072000683700016089800c82add0024
:10234800a00890008182720025089800000006000d
:1023580021109800a00090000130a00021009800f2
:1023680000000600710898008381fb00c219dd0097
:102378000281fb004311dd00030171000482fb00b0
:1023880004024200020172008582fb000281720091
:1023980080109000010171000210980000000600f2
:1023a80010f0a1000000060000002700840fb6000e
:1023b80017003200a10920000001eb00800720006f
:1023c80053f82000804978008149780082497800d4
:1023d800e2072000207c8000000161000200a000cc
:1023e800710520006004200043f82000804978002f
:1023f8008149780082497800eca10a00840f000026
:10240800a8a00a00840f000080cf5000faff3a000d
:1024180000fc2f00860fb6000000a000307c88006a
:10242800800c2000b0200a00880f0000f0f82f0070
:102438008a0fb6000060a000507c880080ff2f0043
:102448008a0fb6000000a000507c8800a109200077
:10245800120020008007200053f8200080497800ef
:102468008149780082497800eca10a00840f0000b5
:10247800a8a00a00840f000080cf5000100032008e
:10248800e2072000207c8000000161000200a0001b
:10249800710520006004200043f82000804978007e
:1024a8008149780082497800eca10a00840f000075
:1024b800a8a00a00840f000080cf5000faff3a005d
:1024c80010102000707c8800d0072000807c8800d5
:1024d80010222000907c88008fefa8003088a80088
:1024e800572ea9003bcea90041cea8000000060047
:1024f8000102210043062000818141000002eb0017
:10250800910f100001003a0084087800ea8040002a
:10251800838f5000faff3a00000006000203be0055
:102528008040eb001050e2001a0032000181800068
:102538000100e00007003200a30221008000eb0048
:102548008100e800010278001300e0000d003a0065
:10255800010037000002eb00ea22b9000102210065
:102568000482400084007800801878008688be00c5
:102578006000b800300298004102980011c0b30012
:1025880004003700ea814100e98f5000ecff3a006f
:102598008040eb0001407800000006000000e000e9
:1025a80003003200e10f50001f003a001a00370004
:1025b80001e1a9002028a90000022100310009003a
:1025c8000018eb000028a900f0f82f004008b6001a
:1025d8000060a000004288000421ef00703e200047
:1025e80040088800003020000021b7000021a80022
:1025f8000041a900f0fc2f000001b6000040a00037
:102608000008880001e1a8002028a80010c0b30035
:1026180010f0b700050037002028a9001070ef005f
:1026280010c0b300010037000040eb0000000600b6
:102638003faea800000006003faea900000006005b
:102648003baea9000070ef000230ef005000200000
:1026580030808800800c200020808800f6ff07006a
:10266800000006000050e2000d0032000210e200f7
:1026780002003a00eeff07000400370030808000b7
:102688000210e30001003a00ebff07000230ec0003
:10269800208080000210e300010039000230ef00c2
:1026a80000000600308088000000060020808800b6
:1026b80000000600a1aa26000180b900410add0039
:1026c8004f01de0002017200d0a326000201500073
:1026d800a280880000000600881f780008362000c5
:1026e8008002eb000502780085017800a280800056
:1026f8001127200008007800c9fe07000042eb00ff
:10270800844178000441780041c1b3000800780092
:10271800d5fe070010c0b30000f0b7004f047800e2
:10272800000006000070ef000230ef00c2ff070053
:10273800003620001aff070000000600881f7800f6
:1027480019ff0700beff0700c0cc2000d9ff070013
:1027580050002000d3ff0700800c2000d3ff0700a3
:102768000000eb008dff070012002000030020008e
:1027780060c0200069ff07009dfd070012002000cf
:1027880003002000008c200064ff0700088c200054
:102798000a50e20002003a000800780054ff0700df
:1027a800408080003b0007009080800040000700c8
:1027b800f7ff37004400f8000408200024028800ce
:1027c80091025000050d7800390278001201c0000e
:1027d8000700c8000400cd001301c1000400cd00ab
:1027e800240598001b20e6000b0278001ca0e600d8
:1027f8000c02780004097800c1a1de008e8e410029
:102808004606c3004606c0004606c000d607c000fc
:102818005203c000aa019000330598009a0178007d
:10282800130598004400f90000000600201000007d
:10283800640000008000000010100000020000008a
:10284800800000001210000002000000800000005c
:1028580000100000080000008000000014100000b4
:102868000200000082000000ff3f00000810000086
:102878000800000080000000f84f00000800000079
:1028880080000000161000000a0000008000000010
:1028980000000000800078000040eb00d801ab0089
:1028a80002003a00d10e880010c0b30000000600f4
:1028b800800078000040eb00d821ab0002003a000d
:1028c800e10e880010c0b3000000060001e0fe0021
:1028d800e1c02000e2c82000c6c22500d7ff2f00b3
:1028e800690121008aff24000b002000fcff200062
:1028f800cd4920002e03200000e0fe000000060065
:1029080060808000ae0c0200000000007060800053
:102918004080880050618000908088005b2eaa006b
:102928000b88a900004006000000fe000000fe0021
:08293800000000000000000097
:020000040000fa
:102940000000fa00820220008000eb0060062100f7
:1029500066f907000080fa00000006000400fa0093
:1029600060062100100798000040eb00004f78003f
:10297000510037001e80fb00ea00b900800078009b
:102980006006210000804000100798001e009000a3
:10299000100078000000e000450032001e009000aa
:1029a00010007800000001000004e0002300320065
:1029b0001e009000c00090001e00900020009000bb
:1029c000808f50003b0031001e009000604090005e
:1029d0000004a2000004e000120032001e0090007b
:1029e000c00090001e009000200090000000e90050
:1029f000808f50000b003a001e00900010009000e5
:102a00000000e000040032001e00900090009000e2
:102a100010c0b300010001001e00900011c0b300ff
:102a2000614098001e009000400090008000e80087
:102a30001e009000410098001e0037001e0090000c
:102a4000400090000000e0001a0032001e009000dc
:102a5000604090000004e0000f0032001e00900073
:102a600040009000e10f50000b003a001e00900063
:102a7000100090000000e000040032001e009000f2
:102a8000900090000040eb00010001001e0090004b
:102a90008040eb00614098001e00900040009000d4
:102aa0008000e9001e0090004100980001003700fe
:102ab000000000001e4fe8001e407800e34f500069
:102ac000acff36000080fa00000006000600fa00a5
:102ad000881f7800200798000000eb00100798007e
:102ae0002e0090000000e00002003a000000eb0021
:102af0003a0037000040eb00004f78003300370009
:102b00001e80fb00ea00b90080007800600621000a
:102b100000804000100078000000e0002a003a0029
:102b20001e84fb002e00900000000100ea41b90065
:102b3000c106210081004100804878001e80fb0012
:102b4000ea00b90080007800a00621000080400063
:102b500021032000010878001e80fb00ea00b90074
:102b60008000780080062100008040008000eb009b
:102b7000010878001e80fb00ea00b90080007800a0
:102b8000e0062100008040008000eb000108780092
:102b90001e80fb00ea00b90080007800600621007a
:102ba00000804000ae009000010878001e80fb000d
:102bb000ea00b90080007800600621000080400033
:102bc00010079800040037001e4fe8001e407800f0
:102bd000e34f5000caff36001e0090004f047800fb
:102be0000080fa00000006000400fa00000f7800e0
:102bf000110798001e0078009e00900011009800b8
:102c00000080fa00000006000400fa00000f7800bf
:102c1000110798001e0078009e0090002100980087
:102c20000080fa00000006000200fa00000f7800a1
:102c30001e007800604090000080fa00000006004e
:102c40001600fa00400798005207980063079800a2
:102c500074079800050f9800160f9800270f98002a
:102c60007e0190008e0990005e009000ee009000c2
:102c700044f807000081eb008081eb00021f400058
:102c800003974800f0ff2f00010020001e01be0046
:102c9000800f5100818f590003003600f0ff2f0094
:102ca00001002000008fbe001e00be00acf7070030
:102cb0000200200003f82300ebf607001e09900035
:102cc000ae099000fbf707000200200003f023008c
:102cd000e5f6070087f707002007980031079800fe
:102ce0004e00900051002000010878004e00900036
:102cf0008000eb00110098004e0090008000eb0077
:102d0000210098004e009000011020003100980032
:102d10004e0090008000eb00310898009e00780083
:102d20004e009000210898004e0090008000eb00bb
:102d300041089800ae0090004e0090006108980095
:102d40004e009000100078008000780001f0a00094
:102d50004e009000010878004e0090006000900046
:102d6000800078000160a0004e0090006100980093
:102d70000080fa00000006000a00fa00881f7800b0
:102d800020079800320798004307980018c0b30046
:102d90006011b8003e009000ce00900051f707008f
:102da0000000e000010034000044eb000804e000f3
:102db000030032006000b800008fbe002100370021
:102dc00018c0b3000200200003f823003e0090006a
:102dd000ce00900045f707000000e00001003d0034
:102de0000044eb000804e000080032002e009000d0
:102df000200890008000eb0012002000030020005b
:102e0000021f4000039748000e0037002e0090007c
:102e1000200890008000eb0061004000e080480046
:102e20004ff707003e019000ce019000a1f7070088
:102e30000200200003f023008bf607002df70700a7
:102e4000008fbe00f0ff2f00010020001e01be0019
:102e5000800f5100818f590003003600f0ff2f00d2
:102e600001002000008fbe002e0090008000eb00cb
:102e7000410898009e0078002e009000610898009c
:102e80004f0478000080fa00000006000200fa00fb
:102e9000000f78001e0078008000eb000108780029
:102ea0000080fa00000006000400fa0010079800f5
:102eb0001e0090000000e0000b003a001e00900091
:102ec00010000700d1cc2c000100b8004308de0040
:102ed000004f780040c6b3009e40780080cf50007d
:102ee00003003e000400370000c0eb000300370081
:102ef00040c6b300004f78001e4078000080fa0002
:102f0000000006000200fa00000f78001e007800a2
:102f1000030007004200de000080fa000000060007
:102f20000600fa00200798002e00900000004000e4
:102f300080007800c0c02000008f40004158800011
:102f400000e02f00808060002e00900001007000e3
:102f500040588800090ba8002e009000ef0f500089
:102f60000b003e002e009000110020000008dd0044
:102f70001007980000000000815980001e0090009a
:102f8000008060000000e000fbff32000b00370013
:102f90002e00900070005000110020000008dd009d
:102fa0001007980000000000915980001e0090005a
:102fb000008060000000e000fbff32001e0078008f
:102fc000100078000080fa00000006000a00fa00f5
:102fd00030079800410798006000b800008fbe00dd
:102fe0000000eb0020079800080037003e0090002a
:102ff000cbff07008000eb001e0f40005e974800eb
:103000002e0090000000e80020079800ae0090001d
:103010004e009000808f5000f4ff39002e00900089
:103020000000e0000c0032002e0090000000d100f3
:103030008000eb003e024000ae8248002e0090006f
:103040008000eb000001be000400be004df7070049
:1030500000007800010037000000eb000080fa005b
:10306000000006000200fa00000f78001e00780041
:103070000000e00003003a00000ea80010c0b300fa
:10308000010037000040eb000080fa00000006005d
:103090000200fa00000f78001e0078000000e00037
:1030a00016003a00002bef000006200010588800a0
:1030b000042bef000003200030588800082bef009d
:1030c0000008200050588800000820000060880098
:1030d00000f020001060880001eba8000000000054
:1030e0000160800000002800008060000000e00017
:1030f000fbff320010c0b300010037000040eb00be
:103100000080fa00000006000000fa00889fbe0060
:10311000217c800000002700008060000000e000ab
:103120001b0032000001eb0080072000a1092000f5
:1031300053f820008049780081497800824978005e
:10314000217c8000e0072000008060000001780002
:103150000200a000600420007105200043f8200058
:103160008049780081497800824978000000000099
:10317000207c8000ec810a0000000000207c8000a0
:10318000a8800a000000000080cf5000f8ff3a003d
:10319000317c800000fc2f00008060000000a00057
:1031a000307c8800010a2000b0210a00880f00004e
:1031b000517c8000f0f82f00008060000060a000cb
:1031c000507c8800517c800080ff2f0000806000d0
:1031d0000010a000507c8800120020008007200012
:1031e000a109200053f82000804978008149780027
:1031f00082497800207c8000ec810a0000000000f9
:10320000207c8000a8800a000000000080cf5000d1
:1032100014003200217c8000e00720000080600064
:10322000000178000200a000600420007105200069
:1032300043f820008049780081497800824978006d
:1032400000000000207c8000ec810a0000000000eb
:10325000207c8000a8800a000000000080cf500081
:10326000f8ff3a00d321a900160207000020210030
:10327000a107200035020700487828000920200017
:103280000801be008000eb0010002000daf4070007
:10329000fff40700216d8000f00f2c00808060009b
:1032a0000010210001007000206d8800316d800049
:1032b000f00f2c00808060000020210001007000d1
:1032c000306d8800716c800000fc2f000080600071
:1032d0003001b300706c8800d16c8000f00f2c00be
:1032e000008060000080a000d06c8800a0c3b30004
:1032f00028edb70010102000707c8800d007200057
:10330000807c880010222000907c88008fefa8002d
:103310004f04be000080fa00000006000400fa001e
:10332000100798000040eb00004f780011003700b4
:103330001e80fb00ea00b900800078002000210018
:1033400000804000900078001e009000808f5000a8
:1033500007003a001e80fb00ea00b90080007800f8
:1033600020002100008040008000eb000108780070
:103370001e4fe8001e407800e94f5000ecff360079
:103380000080fa00000006000800fa00100798000c
:10339000220798003307980000d0bf000004a20065
:1033a0000004e000020032000040eb00280037007b
:1033b0000040eb00004f7800210037001e80fb002a
:1033c000ea00b90080007800200021000080400061
:1033d000100078000000e00018003a001e80fb009a
:1033e000ea00b90080007800200021000080400041
:1033f0009e009000010878001e80fb00ea00b900e2
:103400008000780040002100008040002e019000e4
:10341000be0190000288be001e80fb00ea00b900d9
:103420008000780080002100008140006000b8002a
:103430000089be0010c0b300050037001e4fe80031
:103440001e407800e94f5000dcff36000040eb00e2
:103450000080fa00000006000200fa00000f780069
:103460001e0078000000e00003003200e10f500071
:10347000210032002400370001e1a9002028a90022
:10348000420620008000eb002000210097f6070094
:103490000028a90001428000f0f82f0000806000a1
:1034a0000060a000004288000421ef00703e200070
:1034b00040088800010880000030200001007000f2
:1034c000000888000021a8000041a9000108800030
:1034d000f0fc2f00008060000040a0000008880081
:1034e00001e1a8002028a80010c0b30000f0b70038
:1034f00010c0b300050037002028a9000070ef00bd
:1035000010c0b300010037000040eb000080fa005b
:10351000000006000200fa00000f78001e0078008c
:10352000e10f500003003200e20f500003003200b0
:1035300004003700760ea80002003700762ea8009f
:10354000000000000080fa00000006000200fa00ff
:10355000000f78001e007800e10f500003003200d9
:10356000e20f50000300320004003700760ea9007d
:1035700002003700762ea900000000000080fa004b
:10358000000006000200fa00000f78001e0078001c
:10359000e10f500003003200e20f50000d00320036
:1035a00019003700b073800000800a00000000009e
:1035b0000004a200614060000080fb006100600028
:1035c000b17380000100a10001007000b073880099
:1035d0000d003700b073800011800a000000000069
:1035e0000004a200614060000080fb0061006000f8
:1035f00000004000b17380000110a10001007000c4
:10360000b0738800000000000080fa00000006008f
:103610000200fa00000f78001e007800e10f500051
:1036200003003200e20f50000900320010003700a2
:10363000b07380006100600000f0a7000000ea00a5
:103640000000ea004f00de0000407800090037006b
:10365000b07380006200600000f0a7000000ea0084
:103660000000ea004f00de00004078000100370053
:103670000040eb000080fa00000006000200fa00a3
:10368000000f78001e007800e10f500003003200a8
:10369000e20f50000300320004003700720ea90050
:1036a00002003700722ea900000000000080fa001e
:1036b000000006000200fa00000f78001e007800eb
:1036c000e10f500019003a0080992000a6702d00eb
:1036d00037e2230004e224000500200002a02500b8
:1036e0002326200056fd0700c09b200096c225001f
:1036f000f7d8230004e224000500200002a02500e2
:10370000232620004efd0700009e20006033b800f5
:1037100004e224000500200002a02500232620004a
:1037200047fd070000000000010037000000000016
:103730000080fa00000006000400fa00000f780084
:10374000110798001e0090008000eb0004f50700b0
:103750000200200003482400a0f407008499200000
:103760000001be000400780083fd07000080fa001d
:10377000000006000400fa00000f7800110798000e
:103780001e0090008000eb00f5f40700020020000e
:103790000348240091f40700c49b20000001be00f0
:1037a0000400780074fd07000080fa0000000600a5
:1037b0000400fa00000f7800110798001e00900026
:1037c0008000eb00e6f4070002002000034824001c
:1037d00082f40700049e20000001be00040078006f
:1037e00065fd07000080fa00000006000800fa00ee
:1037f000000f7800110798002207980033079800ff
:103800009e0090001e007800cbff0700ae009000e5
:103810001e007800d7ff0700be0090001e00780051
:10382000e3ff07000080fa00000006000400fa0031
:10383000d00e80008000eb00c9f40700822b2b0023
:1038400003ac23001bf50700008fbe001e00be0066
:103850000080fa00000006000000fa00c00e8000a0
:1038600000800a00000000000080fb0000f0a700bc
:103870000000ea000000ea004f00de00004078008f
:103880000080fa00000006000400fa00e00e80004c
:103890008000eb00b2f4070062692c0033ab230018
:1038a00004f50700008fbe001e00be000080fa0075
:1038b000000006000000fa00c00e800011800a001f
:1038c000000000000080fb0000f0a7000000ea00fc
:1038d0000000ea004f00de00004078000080fa009f
:1038e000000006000200fa00004f7800c00e8000c1
:1038f000640060000000e000020032000040eb00c5
:10390000030037001e80fb00f00e880010c0b300db
:103910000080fa00000006000200fa00000f7800a4
:103920001e007800e20f50000d003200e30f50003f
:1039300014003200e10f50001b003a00a173800018
:10394000000820000080600000f0a7000000ea00ee
:103950000000e9004f00de0000407800130037004f
:10396000a1738000001020000080600000f0a7001c
:103970000000ea000000e9004f00de00004078008f
:103980000a003700a1738000002020000080600042
:1039900000f0a7000000ea000000e9004f00de0090
:1039a00000407800010037000040eb000080fa0082
:1039b000000006000200fa00000f78001e007800e8
:1039c000e20f500006003200e30f50000600320004
:1039d000e10f500007003a0072eea8000600370021
:1039e000730ea80004003700732ea800000000002a
:1039f00001003700000000000080fa00000006000f
:103a00000200fa000000eb00000f7800befd070086
:103a10001000200019ff07002000200017ff0700fa
:103a20000000eb009afd07000000eb008dfd070091
:103a30000000eb0088fe0700410120000000eb00c1
:103a400062fd0700000f7800f0ff20009e00780064
:103a5000808f500005003a0010002000adfe0700e6
:103a600020002000abfe0700f3ff37001e007800a7
:103a70000000e00005003a0010002000b3fe07003f
:103a800020002000b1fe0700ebff3700008020007f
:103a90009e007800808f5000050036001000200046
:103aa0009cfe070020002000a8fe0700e2ff370070
:103ab00010002000a5fe07002000200095fe070052
:103ac000ddff37000400fa0039e2a80038e2a80060
:103ad00038a2a800c111800000ff2f000080600004
:103ae000c0118800d1118000f0fc2f000080600020
:103af000d0118800a002200001002000008fbe002d
:103b00001e007800001288001e00be004008de0083
:103b100000007800101288000080fa000000060003
:103b20000200fa00004f780000000000f011800051
:103b3000700060000000e000fcff3a001e80fb0007
:0c3b4000401288000080fa00000006001f
:020000040000fa
:103b4c00f03fb1000180b10006003500ee03090022
:103b5c0000000000403fb1000180b100fbff3d00c0
:103b6c001000b000203fb0000200350000800900ba
:083b7c0000000000000006003b
:020000040000fa
:103b8400021000006400000080000000001000002b
:103b94000200000080000000661000002800000001
:083ba400800000000000000099
:020000040000fa
:02000004000af0
:04fe0000ffff000000
:020000040000fa
:02000004000af0
:04fe2000ffffff00e1
:020000040000fa
:02000004000af0
:04fe300078ffff0058
:020000040000fa
:02000004000af0
:04fe38007bf7ff0055
:020000040000fa
:02000004000af0
:04fe4000f453ff0078
:020000040000fa
:02000004000af0
:04fe5000deffff00d2
:020000040000fa
:02000004000af0
:04fe5800ffffff00a9
:020000040000fa
:02000004000af0
:04fe6000ffffff00a1
:020000040000fa
:02000004000af0
:04fe6800ffffff0099
:020000040000fa
:02000004000af0
:04fe7000ffffff0091
:020000040000fa
:02000004000af0
:04fe7800ffffff0089
:020000040000fa
:02000004000af0
:04fe8000ffdcff00a4
:020000040000fa
:02000004000af0
:04fe8800ffffff0079
:020000040000fa
:02000004000af0
:04fe9000fbffff0075
:020000040000fa
:02000004000af0
:04fe980010f2ff0065
:020000040000fa
:02000004000af0
:04fea000ffffff0061
:020000040000fa
:02000004000af0
:04fea800f8ffff0060
:020000040000fa
:02000004000af0
:04feb000ffffff0051
:020000040000fa
:02000004000af0
:04fec000fbffff0045
:020000040000fa
:02000004000af0
:04fed000df9fff00b1
:020000040000fa
:02000004000af0
:04fee000fff9ff0027
:020000040000fa
:02000004000af0
:04fef000ffffff0011
:020000040000fa
:02000004000af0
:04ff000078ffff0087
:020000040000fa
:02000004000af0
:04ff08007bffff007c
:020000040000fa
:02000004000af0
:04ff1000f453ff00a7
:020000040000fa
:02000004000af0
:04ff2000feffff00e1
:020000040000fa
:02000004000af0
:04ff2800ffffff00d8
:020000040000fa
:02000004000af0
:04ff3000fdffff00d2
:00000001FF
